{
	"contracts/array.sol": {
		"Array": {
			"abi": [
				{
					"inputs": [
						{
							"internalType": "uint256",
							"name": "num",
							"type": "uint256"
						}
					],
					"name": "addElement",
					"outputs": [],
					"stateMutability": "nonpayable",
					"type": "function"
				},
				{
					"inputs": [
						{
							"internalType": "uint256",
							"name": "",
							"type": "uint256"
						}
					],
					"name": "array",
					"outputs": [
						{
							"internalType": "uint256",
							"name": "",
							"type": "uint256"
						}
					],
					"stateMutability": "view",
					"type": "function"
				},
				{
					"inputs": [
						{
							"internalType": "uint256",
							"name": "index",
							"type": "uint256"
						}
					],
					"name": "removeElement",
					"outputs": [],
					"stateMutability": "nonpayable",
					"type": "function"
				},
				{
					"inputs": [],
					"name": "size",
					"outputs": [
						{
							"internalType": "uint256",
							"name": "",
							"type": "uint256"
						}
					],
					"stateMutability": "view",
					"type": "function"
				}
			],
			"devdoc": {
				"kind": "dev",
				"methods": {},
				"version": 1
			},
			"evm": {
				"assembly": "    /* \"contracts/array.sol\":61:740  contract Array {... */\n  mstore(0x40, 0x80)\n  callvalue\n  dup1\n  iszero\n  tag_1\n  jumpi\n  0x00\n  dup1\n  revert\ntag_1:\n  pop\n  dataSize(sub_0)\n  dup1\n  dataOffset(sub_0)\n  0x00\n  codecopy\n  0x00\n  return\nstop\n\nsub_0: assembly {\n        /* \"contracts/array.sol\":61:740  contract Array {... */\n      mstore(0x40, 0x80)\n      callvalue\n      dup1\n      iszero\n      tag_1\n      jumpi\n      0x00\n      dup1\n      revert\n    tag_1:\n      pop\n      jumpi(tag_2, lt(calldatasize, 0x04))\n      shr(0xe0, calldataload(0x00))\n      dup1\n      0x38d94193\n      eq\n      tag_3\n      jumpi\n      dup1\n      0x949d225d\n      eq\n      tag_4\n      jumpi\n      dup1\n      0x9fc37abf\n      eq\n      tag_5\n      jumpi\n      dup1\n      0xf5d9612d\n      eq\n      tag_6\n      jumpi\n    tag_2:\n      0x00\n      dup1\n      revert\n        /* \"contracts/array.sol\":142:161  uint[] public array */\n    tag_3:\n      tag_7\n      0x04\n      dup1\n      calldatasize\n      sub\n      dup2\n      add\n      swap1\n      tag_8\n      swap2\n      swap1\n      tag_9\n      jump\t// in\n    tag_8:\n      tag_10\n      jump\t// in\n    tag_7:\n      mload(0x40)\n      tag_11\n      swap2\n      swap1\n      tag_12\n      jump\t// in\n    tag_11:\n      mload(0x40)\n      dup1\n      swap2\n      sub\n      swap1\n      return\n        /* \"contracts/array.sol\":351:431  function size() public view returns(uint) {... */\n    tag_4:\n      tag_13\n      tag_14\n      jump\t// in\n    tag_13:\n      mload(0x40)\n      tag_15\n      swap2\n      swap1\n      tag_12\n      jump\t// in\n    tag_15:\n      mload(0x40)\n      dup1\n      swap2\n      sub\n      swap1\n      return\n        /* \"contracts/array.sol\":497:737  function removeElement(uint index) public {... */\n    tag_5:\n      tag_16\n      0x04\n      dup1\n      calldatasize\n      sub\n      dup2\n      add\n      swap1\n      tag_17\n      swap2\n      swap1\n      tag_9\n      jump\t// in\n    tag_17:\n      tag_18\n      jump\t// in\n    tag_16:\n      stop\n        /* \"contracts/array.sol\":218:289  function addElement(uint num) public {... */\n    tag_6:\n      tag_19\n      0x04\n      dup1\n      calldatasize\n      sub\n      dup2\n      add\n      swap1\n      tag_20\n      swap2\n      swap1\n      tag_9\n      jump\t// in\n    tag_20:\n      tag_21\n      jump\t// in\n    tag_19:\n      stop\n        /* \"contracts/array.sol\":142:161  uint[] public array */\n    tag_10:\n      0x00\n      dup2\n      dup2\n      sload\n      dup2\n      lt\n      tag_22\n      jumpi\n      0x00\n      dup1\n      revert\n    tag_22:\n      swap1\n      0x00\n      mstore\n      keccak256(0x00, 0x20)\n      add\n      0x00\n      swap2\n      pop\n      swap1\n      pop\n      sload\n      dup2\n      jump\t// out\n        /* \"contracts/array.sol\":351:431  function size() public view returns(uint) {... */\n    tag_14:\n        /* \"contracts/array.sol\":387:391  uint */\n      0x00\n        /* \"contracts/array.sol\":411:416  array */\n      dup1\n        /* \"contracts/array.sol\":411:423  array.length */\n      dup1\n      sload\n      swap1\n      pop\n        /* \"contracts/array.sol\":404:423  return array.length */\n      swap1\n      pop\n        /* \"contracts/array.sol\":351:431  function size() public view returns(uint) {... */\n      swap1\n      jump\t// out\n        /* \"contracts/array.sol\":497:737  function removeElement(uint index) public {... */\n    tag_18:\n        /* \"contracts/array.sol\":566:571  array */\n      0x00\n        /* \"contracts/array.sol\":566:578  array.length */\n      dup1\n      sload\n      swap1\n      pop\n        /* \"contracts/array.sol\":558:563  index */\n      dup2\n        /* \"contracts/array.sol\":558:578  index < array.length */\n      lt\n        /* \"contracts/array.sol\":550:602  require(index < array.length, \"Index out of bounds\") */\n      tag_26\n      jumpi\n      mload(0x40)\n      0x08c379a000000000000000000000000000000000000000000000000000000000\n      dup2\n      mstore\n      0x04\n      add\n      tag_27\n      swap1\n      tag_28\n      jump\t// in\n    tag_27:\n      mload(0x40)\n      dup1\n      swap2\n      sub\n      swap1\n      revert\n    tag_26:\n        /* \"contracts/array.sol\":655:660  array */\n      0x00\n        /* \"contracts/array.sol\":661:666  index */\n      dup2\n        /* \"contracts/array.sol\":655:667  array[index] */\n      dup2\n      sload\n      dup2\n      lt\n      tag_29\n      jumpi\n      tag_30\n      tag_31\n      jump\t// in\n    tag_30:\n    tag_29:\n      swap1\n      0x00\n      mstore\n      keccak256(0x00, 0x20)\n      add\n        /* \"contracts/array.sol\":648:667  delete array[index] */\n      0x00\n      swap1\n      sstore\n        /* \"contracts/array.sol\":497:737  function removeElement(uint index) public {... */\n      pop\n      jump\t// out\n        /* \"contracts/array.sol\":218:289  function addElement(uint num) public {... */\n    tag_21:\n        /* \"contracts/array.sol\":266:271  array */\n      0x00\n        /* \"contracts/array.sol\":277:280  num */\n      dup2\n        /* \"contracts/array.sol\":266:281  array.push(num) */\n      swap1\n      dup1\n      0x01\n      dup2\n      sload\n      add\n      dup1\n      dup3\n      sstore\n      dup1\n      swap2\n      pop\n      pop\n      0x01\n      swap1\n      sub\n      swap1\n      0x00\n      mstore\n      keccak256(0x00, 0x20)\n      add\n      0x00\n      swap1\n      swap2\n      swap1\n      swap2\n      swap1\n      swap2\n      pop\n      sstore\n        /* \"contracts/array.sol\":218:289  function addElement(uint num) public {... */\n      pop\n      jump\t// out\n        /* \"#utility.yul\":88:205   */\n    tag_36:\n        /* \"#utility.yul\":197:198   */\n      0x00\n        /* \"#utility.yul\":194:195   */\n      dup1\n        /* \"#utility.yul\":187:199   */\n      revert\n        /* \"#utility.yul\":334:411   */\n    tag_38:\n        /* \"#utility.yul\":371:378   */\n      0x00\n        /* \"#utility.yul\":400:405   */\n      dup2\n        /* \"#utility.yul\":389:405   */\n      swap1\n      pop\n        /* \"#utility.yul\":334:411   */\n      swap2\n      swap1\n      pop\n      jump\t// out\n        /* \"#utility.yul\":417:539   */\n    tag_39:\n        /* \"#utility.yul\":490:514   */\n      tag_51\n        /* \"#utility.yul\":508:513   */\n      dup2\n        /* \"#utility.yul\":490:514   */\n      tag_38\n      jump\t// in\n    tag_51:\n        /* \"#utility.yul\":483:488   */\n      dup2\n        /* \"#utility.yul\":480:515   */\n      eq\n        /* \"#utility.yul\":470:533   */\n      tag_52\n      jumpi\n        /* \"#utility.yul\":529:530   */\n      0x00\n        /* \"#utility.yul\":526:527   */\n      dup1\n        /* \"#utility.yul\":519:531   */\n      revert\n        /* \"#utility.yul\":470:533   */\n    tag_52:\n        /* \"#utility.yul\":417:539   */\n      pop\n      jump\t// out\n        /* \"#utility.yul\":545:684   */\n    tag_40:\n        /* \"#utility.yul\":591:596   */\n      0x00\n        /* \"#utility.yul\":629:635   */\n      dup2\n        /* \"#utility.yul\":616:636   */\n      calldataload\n        /* \"#utility.yul\":607:636   */\n      swap1\n      pop\n        /* \"#utility.yul\":645:678   */\n      tag_54\n        /* \"#utility.yul\":672:677   */\n      dup2\n        /* \"#utility.yul\":645:678   */\n      tag_39\n      jump\t// in\n    tag_54:\n        /* \"#utility.yul\":545:684   */\n      swap3\n      swap2\n      pop\n      pop\n      jump\t// out\n        /* \"#utility.yul\":690:1019   */\n    tag_9:\n        /* \"#utility.yul\":749:755   */\n      0x00\n        /* \"#utility.yul\":798:800   */\n      0x20\n        /* \"#utility.yul\":786:795   */\n      dup3\n        /* \"#utility.yul\":777:784   */\n      dup5\n        /* \"#utility.yul\":773:796   */\n      sub\n        /* \"#utility.yul\":769:801   */\n      slt\n        /* \"#utility.yul\":766:885   */\n      iszero\n      tag_56\n      jumpi\n        /* \"#utility.yul\":804:883   */\n      tag_57\n      tag_36\n      jump\t// in\n    tag_57:\n        /* \"#utility.yul\":766:885   */\n    tag_56:\n        /* \"#utility.yul\":924:925   */\n      0x00\n        /* \"#utility.yul\":949:1002   */\n      tag_58\n        /* \"#utility.yul\":994:1001   */\n      dup5\n        /* \"#utility.yul\":985:991   */\n      dup3\n        /* \"#utility.yul\":974:983   */\n      dup6\n        /* \"#utility.yul\":970:992   */\n      add\n        /* \"#utility.yul\":949:1002   */\n      tag_40\n      jump\t// in\n    tag_58:\n        /* \"#utility.yul\":939:1002   */\n      swap2\n      pop\n        /* \"#utility.yul\":895:1012   */\n      pop\n        /* \"#utility.yul\":690:1019   */\n      swap3\n      swap2\n      pop\n      pop\n      jump\t// out\n        /* \"#utility.yul\":1025:1143   */\n    tag_41:\n        /* \"#utility.yul\":1112:1136   */\n      tag_60\n        /* \"#utility.yul\":1130:1135   */\n      dup2\n        /* \"#utility.yul\":1112:1136   */\n      tag_38\n      jump\t// in\n    tag_60:\n        /* \"#utility.yul\":1107:1110   */\n      dup3\n        /* \"#utility.yul\":1100:1137   */\n      mstore\n        /* \"#utility.yul\":1025:1143   */\n      pop\n      pop\n      jump\t// out\n        /* \"#utility.yul\":1149:1371   */\n    tag_12:\n        /* \"#utility.yul\":1242:1246   */\n      0x00\n        /* \"#utility.yul\":1280:1282   */\n      0x20\n        /* \"#utility.yul\":1269:1278   */\n      dup3\n        /* \"#utility.yul\":1265:1283   */\n      add\n        /* \"#utility.yul\":1257:1283   */\n      swap1\n      pop\n        /* \"#utility.yul\":1293:1364   */\n      tag_62\n        /* \"#utility.yul\":1361:1362   */\n      0x00\n        /* \"#utility.yul\":1350:1359   */\n      dup4\n        /* \"#utility.yul\":1346:1363   */\n      add\n        /* \"#utility.yul\":1337:1343   */\n      dup5\n        /* \"#utility.yul\":1293:1364   */\n      tag_41\n      jump\t// in\n    tag_62:\n        /* \"#utility.yul\":1149:1371   */\n      swap3\n      swap2\n      pop\n      pop\n      jump\t// out\n        /* \"#utility.yul\":1377:1546   */\n    tag_42:\n        /* \"#utility.yul\":1461:1472   */\n      0x00\n        /* \"#utility.yul\":1495:1501   */\n      dup3\n        /* \"#utility.yul\":1490:1493   */\n      dup3\n        /* \"#utility.yul\":1483:1502   */\n      mstore\n        /* \"#utility.yul\":1535:1539   */\n      0x20\n        /* \"#utility.yul\":1530:1533   */\n      dup3\n        /* \"#utility.yul\":1526:1540   */\n      add\n        /* \"#utility.yul\":1511:1540   */\n      swap1\n      pop\n        /* \"#utility.yul\":1377:1546   */\n      swap3\n      swap2\n      pop\n      pop\n      jump\t// out\n        /* \"#utility.yul\":1552:1721   */\n    tag_43:\n        /* \"#utility.yul\":1692:1713   */\n      0x496e646578206f7574206f6620626f756e647300000000000000000000000000\n        /* \"#utility.yul\":1688:1689   */\n      0x00\n        /* \"#utility.yul\":1680:1686   */\n      dup3\n        /* \"#utility.yul\":1676:1690   */\n      add\n        /* \"#utility.yul\":1669:1714   */\n      mstore\n        /* \"#utility.yul\":1552:1721   */\n      pop\n      jump\t// out\n        /* \"#utility.yul\":1727:2093   */\n    tag_44:\n        /* \"#utility.yul\":1869:1872   */\n      0x00\n        /* \"#utility.yul\":1890:1957   */\n      tag_66\n        /* \"#utility.yul\":1954:1956   */\n      0x13\n        /* \"#utility.yul\":1949:1952   */\n      dup4\n        /* \"#utility.yul\":1890:1957   */\n      tag_42\n      jump\t// in\n    tag_66:\n        /* \"#utility.yul\":1883:1957   */\n      swap2\n      pop\n        /* \"#utility.yul\":1966:2059   */\n      tag_67\n        /* \"#utility.yul\":2055:2058   */\n      dup3\n        /* \"#utility.yul\":1966:2059   */\n      tag_43\n      jump\t// in\n    tag_67:\n        /* \"#utility.yul\":2084:2086   */\n      0x20\n        /* \"#utility.yul\":2079:2082   */\n      dup3\n        /* \"#utility.yul\":2075:2087   */\n      add\n        /* \"#utility.yul\":2068:2087   */\n      swap1\n      pop\n        /* \"#utility.yul\":1727:2093   */\n      swap2\n      swap1\n      pop\n      jump\t// out\n        /* \"#utility.yul\":2099:2518   */\n    tag_28:\n        /* \"#utility.yul\":2265:2269   */\n      0x00\n        /* \"#utility.yul\":2303:2305   */\n      0x20\n        /* \"#utility.yul\":2292:2301   */\n      dup3\n        /* \"#utility.yul\":2288:2306   */\n      add\n        /* \"#utility.yul\":2280:2306   */\n      swap1\n      pop\n        /* \"#utility.yul\":2352:2361   */\n      dup2\n        /* \"#utility.yul\":2346:2350   */\n      dup2\n        /* \"#utility.yul\":2342:2362   */\n      sub\n        /* \"#utility.yul\":2338:2339   */\n      0x00\n        /* \"#utility.yul\":2327:2336   */\n      dup4\n        /* \"#utility.yul\":2323:2340   */\n      add\n        /* \"#utility.yul\":2316:2363   */\n      mstore\n        /* \"#utility.yul\":2380:2511   */\n      tag_69\n        /* \"#utility.yul\":2506:2510   */\n      dup2\n        /* \"#utility.yul\":2380:2511   */\n      tag_44\n      jump\t// in\n    tag_69:\n        /* \"#utility.yul\":2372:2511   */\n      swap1\n      pop\n        /* \"#utility.yul\":2099:2518   */\n      swap2\n      swap1\n      pop\n      jump\t// out\n        /* \"#utility.yul\":2524:2704   */\n    tag_31:\n        /* \"#utility.yul\":2572:2649   */\n      0x4e487b7100000000000000000000000000000000000000000000000000000000\n        /* \"#utility.yul\":2569:2570   */\n      0x00\n        /* \"#utility.yul\":2562:2650   */\n      mstore\n        /* \"#utility.yul\":2669:2673   */\n      0x32\n        /* \"#utility.yul\":2666:2667   */\n      0x04\n        /* \"#utility.yul\":2659:2674   */\n      mstore\n        /* \"#utility.yul\":2693:2697   */\n      0x24\n        /* \"#utility.yul\":2690:2691   */\n      0x00\n        /* \"#utility.yul\":2683:2698   */\n      revert\n\n    auxdata: 0xa2646970667358221220dbf17c728b7fde876aa4fdb1c175f65fdefb4e09a1b9d84e4af37583f633f81764736f6c63430008190033\n}\n",
				"bytecode": {
					"linkReferences": {},
					"object": "6080604052348015600e575f80fd5b506102f28061001c5f395ff3fe608060405234801561000f575f80fd5b506004361061004a575f3560e01c806338d941931461004e578063949d225d1461007e5780639fc37abf1461009c578063f5d9612d146100b8575b5f80fd5b610068600480360381019061006391906101c4565b6100d4565b60405161007591906101fe565b60405180910390f35b6100866100f3565b60405161009391906101fe565b60405180910390f35b6100b660048036038101906100b191906101c4565b6100fe565b005b6100d260048036038101906100cd91906101c4565b610165565b005b5f81815481106100e2575f80fd5b905f5260205f20015f915090505481565b5f8080549050905090565b5f805490508110610144576040517f08c379a000000000000000000000000000000000000000000000000000000000815260040161013b90610271565b60405180910390fd5b5f81815481106101575761015661028f565b5b905f5260205f20015f905550565b5f81908060018154018082558091505060019003905f5260205f20015f909190919091505550565b5f80fd5b5f819050919050565b6101a381610191565b81146101ad575f80fd5b50565b5f813590506101be8161019a565b92915050565b5f602082840312156101d9576101d861018d565b5b5f6101e6848285016101b0565b91505092915050565b6101f881610191565b82525050565b5f6020820190506102115f8301846101ef565b92915050565b5f82825260208201905092915050565b7f496e646578206f7574206f6620626f756e6473000000000000000000000000005f82015250565b5f61025b601383610217565b915061026682610227565b602082019050919050565b5f6020820190508181035f8301526102888161024f565b9050919050565b7f4e487b71000000000000000000000000000000000000000000000000000000005f52603260045260245ffdfea2646970667358221220dbf17c728b7fde876aa4fdb1c175f65fdefb4e09a1b9d84e4af37583f633f81764736f6c63430008190033",
					"opcodes": "PUSH1 0x80 PUSH1 0x40 MSTORE CALLVALUE DUP1 ISZERO PUSH1 0xE JUMPI PUSH0 DUP1 REVERT JUMPDEST POP PUSH2 0x2F2 DUP1 PUSH2 0x1C PUSH0 CODECOPY PUSH0 RETURN INVALID PUSH1 0x80 PUSH1 0x40 MSTORE CALLVALUE DUP1 ISZERO PUSH2 0xF JUMPI PUSH0 DUP1 REVERT JUMPDEST POP PUSH1 0x4 CALLDATASIZE LT PUSH2 0x4A JUMPI PUSH0 CALLDATALOAD PUSH1 0xE0 SHR DUP1 PUSH4 0x38D94193 EQ PUSH2 0x4E JUMPI DUP1 PUSH4 0x949D225D EQ PUSH2 0x7E JUMPI DUP1 PUSH4 0x9FC37ABF EQ PUSH2 0x9C JUMPI DUP1 PUSH4 0xF5D9612D EQ PUSH2 0xB8 JUMPI JUMPDEST PUSH0 DUP1 REVERT JUMPDEST PUSH2 0x68 PUSH1 0x4 DUP1 CALLDATASIZE SUB DUP2 ADD SWAP1 PUSH2 0x63 SWAP2 SWAP1 PUSH2 0x1C4 JUMP JUMPDEST PUSH2 0xD4 JUMP JUMPDEST PUSH1 0x40 MLOAD PUSH2 0x75 SWAP2 SWAP1 PUSH2 0x1FE JUMP JUMPDEST PUSH1 0x40 MLOAD DUP1 SWAP2 SUB SWAP1 RETURN JUMPDEST PUSH2 0x86 PUSH2 0xF3 JUMP JUMPDEST PUSH1 0x40 MLOAD PUSH2 0x93 SWAP2 SWAP1 PUSH2 0x1FE JUMP JUMPDEST PUSH1 0x40 MLOAD DUP1 SWAP2 SUB SWAP1 RETURN JUMPDEST PUSH2 0xB6 PUSH1 0x4 DUP1 CALLDATASIZE SUB DUP2 ADD SWAP1 PUSH2 0xB1 SWAP2 SWAP1 PUSH2 0x1C4 JUMP JUMPDEST PUSH2 0xFE JUMP JUMPDEST STOP JUMPDEST PUSH2 0xD2 PUSH1 0x4 DUP1 CALLDATASIZE SUB DUP2 ADD SWAP1 PUSH2 0xCD SWAP2 SWAP1 PUSH2 0x1C4 JUMP JUMPDEST PUSH2 0x165 JUMP JUMPDEST STOP JUMPDEST PUSH0 DUP2 DUP2 SLOAD DUP2 LT PUSH2 0xE2 JUMPI PUSH0 DUP1 REVERT JUMPDEST SWAP1 PUSH0 MSTORE PUSH1 0x20 PUSH0 KECCAK256 ADD PUSH0 SWAP2 POP SWAP1 POP SLOAD DUP2 JUMP JUMPDEST PUSH0 DUP1 DUP1 SLOAD SWAP1 POP SWAP1 POP SWAP1 JUMP JUMPDEST PUSH0 DUP1 SLOAD SWAP1 POP DUP2 LT PUSH2 0x144 JUMPI PUSH1 0x40 MLOAD PUSH32 0x8C379A000000000000000000000000000000000000000000000000000000000 DUP2 MSTORE PUSH1 0x4 ADD PUSH2 0x13B SWAP1 PUSH2 0x271 JUMP JUMPDEST PUSH1 0x40 MLOAD DUP1 SWAP2 SUB SWAP1 REVERT JUMPDEST PUSH0 DUP2 DUP2 SLOAD DUP2 LT PUSH2 0x157 JUMPI PUSH2 0x156 PUSH2 0x28F JUMP JUMPDEST JUMPDEST SWAP1 PUSH0 MSTORE PUSH1 0x20 PUSH0 KECCAK256 ADD PUSH0 SWAP1 SSTORE POP JUMP JUMPDEST PUSH0 DUP2 SWAP1 DUP1 PUSH1 0x1 DUP2 SLOAD ADD DUP1 DUP3 SSTORE DUP1 SWAP2 POP POP PUSH1 0x1 SWAP1 SUB SWAP1 PUSH0 MSTORE PUSH1 0x20 PUSH0 KECCAK256 ADD PUSH0 SWAP1 SWAP2 SWAP1 SWAP2 SWAP1 SWAP2 POP SSTORE POP JUMP JUMPDEST PUSH0 DUP1 REVERT JUMPDEST PUSH0 DUP2 SWAP1 POP SWAP2 SWAP1 POP JUMP JUMPDEST PUSH2 0x1A3 DUP2 PUSH2 0x191 JUMP JUMPDEST DUP2 EQ PUSH2 0x1AD JUMPI PUSH0 DUP1 REVERT JUMPDEST POP JUMP JUMPDEST PUSH0 DUP2 CALLDATALOAD SWAP1 POP PUSH2 0x1BE DUP2 PUSH2 0x19A JUMP JUMPDEST SWAP3 SWAP2 POP POP JUMP JUMPDEST PUSH0 PUSH1 0x20 DUP3 DUP5 SUB SLT ISZERO PUSH2 0x1D9 JUMPI PUSH2 0x1D8 PUSH2 0x18D JUMP JUMPDEST JUMPDEST PUSH0 PUSH2 0x1E6 DUP5 DUP3 DUP6 ADD PUSH2 0x1B0 JUMP JUMPDEST SWAP2 POP POP SWAP3 SWAP2 POP POP JUMP JUMPDEST PUSH2 0x1F8 DUP2 PUSH2 0x191 JUMP JUMPDEST DUP3 MSTORE POP POP JUMP JUMPDEST PUSH0 PUSH1 0x20 DUP3 ADD SWAP1 POP PUSH2 0x211 PUSH0 DUP4 ADD DUP5 PUSH2 0x1EF JUMP JUMPDEST SWAP3 SWAP2 POP POP JUMP JUMPDEST PUSH0 DUP3 DUP3 MSTORE PUSH1 0x20 DUP3 ADD SWAP1 POP SWAP3 SWAP2 POP POP JUMP JUMPDEST PUSH32 0x496E646578206F7574206F6620626F756E647300000000000000000000000000 PUSH0 DUP3 ADD MSTORE POP JUMP JUMPDEST PUSH0 PUSH2 0x25B PUSH1 0x13 DUP4 PUSH2 0x217 JUMP JUMPDEST SWAP2 POP PUSH2 0x266 DUP3 PUSH2 0x227 JUMP JUMPDEST PUSH1 0x20 DUP3 ADD SWAP1 POP SWAP2 SWAP1 POP JUMP JUMPDEST PUSH0 PUSH1 0x20 DUP3 ADD SWAP1 POP DUP2 DUP2 SUB PUSH0 DUP4 ADD MSTORE PUSH2 0x288 DUP2 PUSH2 0x24F JUMP JUMPDEST SWAP1 POP SWAP2 SWAP1 POP JUMP JUMPDEST PUSH32 0x4E487B7100000000000000000000000000000000000000000000000000000000 PUSH0 MSTORE PUSH1 0x32 PUSH1 0x4 MSTORE PUSH1 0x24 PUSH0 REVERT INVALID LOG2 PUSH5 0x6970667358 0x22 SLT KECCAK256 0xDB CALL PUSH29 0x728B7FDE876AA4FDB1C175F65FDEFB4E09A1B9D84E4AF37583F633F817 PUSH5 0x736F6C6343 STOP ADDMOD NOT STOP CALLER "
				},
				"gasEstimates": {
					"creation": {
						"codeDepositCost": "150800",
						"executionCost": "194",
						"totalCost": "150994"
					},
					"external": {
						"addElement(uint256)": "46864",
						"array(uint256)": "infinite",
						"removeElement(uint256)": "9738",
						"size()": "2440"
					}
				},
				"methodIdentifiers": {
					"addElement(uint256)": "f5d9612d",
					"array(uint256)": "38d94193",
					"removeElement(uint256)": "9fc37abf",
					"size()": "949d225d"
				}
			},
			"storageLayout": {
				"storage": [
					{
						"astId": 4,
						"contract": "contracts/array.sol:Array",
						"label": "array",
						"offset": 0,
						"slot": "0",
						"type": "t_array(t_uint256)dyn_storage"
					}
				],
				"types": {
					"t_array(t_uint256)dyn_storage": {
						"base": "t_uint256",
						"encoding": "dynamic_array",
						"label": "uint256[]",
						"numberOfBytes": "32"
					},
					"t_uint256": {
						"encoding": "inplace",
						"label": "uint256",
						"numberOfBytes": "32"
					}
				}
			},
			"userdoc": {
				"kind": "user",
				"methods": {},
				"version": 1
			}
		}
	}
}