{
	"contracts/Memory&Storage.sol": {
		"MemoryAndStorage": {
			"abi": [
				{
					"inputs": [
						{
							"internalType": "uint256",
							"name": "id",
							"type": "uint256"
						},
						{
							"internalType": "uint256",
							"name": "balance",
							"type": "uint256"
						}
					],
					"name": "addUser",
					"outputs": [],
					"stateMutability": "nonpayable",
					"type": "function"
				},
				{
					"inputs": [
						{
							"internalType": "uint256",
							"name": "id",
							"type": "uint256"
						}
					],
					"name": "getBalance",
					"outputs": [
						{
							"internalType": "uint256",
							"name": "",
							"type": "uint256"
						}
					],
					"stateMutability": "view",
					"type": "function"
				},
				{
					"inputs": [
						{
							"internalType": "uint256",
							"name": "id",
							"type": "uint256"
						},
						{
							"internalType": "uint256",
							"name": "balance",
							"type": "uint256"
						}
					],
					"name": "updateBalance",
					"outputs": [],
					"stateMutability": "nonpayable",
					"type": "function"
				}
			],
			"devdoc": {
				"kind": "dev",
				"methods": {},
				"version": 1
			},
			"evm": {
				"assembly": "    /* \"contracts/Memory&Storage.sol\":61:831  contract MemoryAndStorage {... */\n  mstore(0x40, 0x80)\n  callvalue\n  dup1\n  iszero\n  tag_1\n  jumpi\n  0x00\n  dup1\n  revert\ntag_1:\n  pop\n  dataSize(sub_0)\n  dup1\n  dataOffset(sub_0)\n  0x00\n  codecopy\n  0x00\n  return\nstop\n\nsub_0: assembly {\n        /* \"contracts/Memory&Storage.sol\":61:831  contract MemoryAndStorage {... */\n      mstore(0x40, 0x80)\n      callvalue\n      dup1\n      iszero\n      tag_1\n      jumpi\n      0x00\n      dup1\n      revert\n    tag_1:\n      pop\n      jumpi(tag_2, lt(calldatasize, 0x04))\n      shr(0xe0, calldataload(0x00))\n      dup1\n      0x1e010439\n      eq\n      tag_3\n      jumpi\n      dup1\n      0x58453fef\n      eq\n      tag_4\n      jumpi\n      dup1\n      0xe00c04ac\n      eq\n      tag_5\n      jumpi\n    tag_2:\n      0x00\n      dup1\n      revert\n        /* \"contracts/Memory&Storage.sol\":729:828  function getBalance(uint id) public view returns (uint) {... */\n    tag_3:\n      tag_6\n      0x04\n      dup1\n      calldatasize\n      sub\n      dup2\n      add\n      swap1\n      tag_7\n      swap2\n      swap1\n      tag_8\n      jump\t// in\n    tag_7:\n      tag_9\n      jump\t// in\n    tag_6:\n      mload(0x40)\n      tag_10\n      swap2\n      swap1\n      tag_11\n      jump\t// in\n    tag_10:\n      mload(0x40)\n      dup1\n      swap2\n      sub\n      swap1\n      return\n        /* \"contracts/Memory&Storage.sol\":535:669  function updateBalance(uint id, uint balance) public {... */\n    tag_4:\n      tag_12\n      0x04\n      dup1\n      calldatasize\n      sub\n      dup2\n      add\n      swap1\n      tag_13\n      swap2\n      swap1\n      tag_14\n      jump\t// in\n    tag_13:\n      tag_15\n      jump\t// in\n    tag_12:\n      stop\n        /* \"contracts/Memory&Storage.sol\":373:468  function addUser(uint id, uint balance) public {... */\n    tag_5:\n      tag_16\n      0x04\n      dup1\n      calldatasize\n      sub\n      dup2\n      add\n      swap1\n      tag_17\n      swap2\n      swap1\n      tag_14\n      jump\t// in\n    tag_17:\n      tag_18\n      jump\t// in\n    tag_16:\n      stop\n        /* \"contracts/Memory&Storage.sol\":729:828  function getBalance(uint id) public view returns (uint) {... */\n    tag_9:\n        /* \"contracts/Memory&Storage.sol\":779:783  uint */\n      0x00\n        /* \"contracts/Memory&Storage.sol\":803:808  users */\n      dup1\n        /* \"contracts/Memory&Storage.sol\":803:812  users[id] */\n      0x00\n        /* \"contracts/Memory&Storage.sol\":809:811  id */\n      dup4\n        /* \"contracts/Memory&Storage.sol\":803:812  users[id] */\n      dup2\n      mstore\n      0x20\n      add\n      swap1\n      dup2\n      mstore\n      0x20\n      add\n      0x00\n      keccak256\n        /* \"contracts/Memory&Storage.sol\":803:820  users[id].balance */\n      0x01\n      add\n      sload\n        /* \"contracts/Memory&Storage.sol\":796:820  return users[id].balance */\n      swap1\n      pop\n        /* \"contracts/Memory&Storage.sol\":729:828  function getBalance(uint id) public view returns (uint) {... */\n      swap2\n      swap1\n      pop\n      jump\t// out\n        /* \"contracts/Memory&Storage.sol\":535:669  function updateBalance(uint id, uint balance) public {... */\n    tag_15:\n        /* \"contracts/Memory&Storage.sol\":599:616  User storage user */\n      0x00\n        /* \"contracts/Memory&Storage.sol\":619:624  users */\n      dup1\n        /* \"contracts/Memory&Storage.sol\":619:628  users[id] */\n      0x00\n        /* \"contracts/Memory&Storage.sol\":625:627  id */\n      dup5\n        /* \"contracts/Memory&Storage.sol\":619:628  users[id] */\n      dup2\n      mstore\n      0x20\n      add\n      swap1\n      dup2\n      mstore\n      0x20\n      add\n      0x00\n      keccak256\n        /* \"contracts/Memory&Storage.sol\":599:628  User storage user = users[id] */\n      swap1\n      pop\n        /* \"contracts/Memory&Storage.sol\":654:661  balance */\n      dup2\n        /* \"contracts/Memory&Storage.sol\":639:643  user */\n      dup2\n        /* \"contracts/Memory&Storage.sol\":639:651  user.balance */\n      0x01\n      add\n        /* \"contracts/Memory&Storage.sol\":639:661  user.balance = balance */\n      dup2\n      swap1\n      sstore\n      pop\n        /* \"contracts/Memory&Storage.sol\":588:669  {... */\n      pop\n        /* \"contracts/Memory&Storage.sol\":535:669  function updateBalance(uint id, uint balance) public {... */\n      pop\n      pop\n      jump\t// out\n        /* \"contracts/Memory&Storage.sol\":373:468  function addUser(uint id, uint balance) public {... */\n    tag_18:\n        /* \"contracts/Memory&Storage.sol\":443:460  User(id, balance) */\n      mload(0x40)\n      dup1\n      0x40\n      add\n      0x40\n      mstore\n      dup1\n        /* \"contracts/Memory&Storage.sol\":448:450  id */\n      dup4\n        /* \"contracts/Memory&Storage.sol\":443:460  User(id, balance) */\n      dup2\n      mstore\n      0x20\n      add\n        /* \"contracts/Memory&Storage.sol\":452:459  balance */\n      dup3\n        /* \"contracts/Memory&Storage.sol\":443:460  User(id, balance) */\n      dup2\n      mstore\n      pop\n        /* \"contracts/Memory&Storage.sol\":431:436  users */\n      0x00\n        /* \"contracts/Memory&Storage.sol\":431:440  users[id] */\n      dup1\n        /* \"contracts/Memory&Storage.sol\":437:439  id */\n      dup5\n        /* \"contracts/Memory&Storage.sol\":431:440  users[id] */\n      dup2\n      mstore\n      0x20\n      add\n      swap1\n      dup2\n      mstore\n      0x20\n      add\n      0x00\n      keccak256\n        /* \"contracts/Memory&Storage.sol\":431:460  users[id] = User(id, balance) */\n      0x00\n      dup3\n      add\n      mload\n      dup2\n      0x00\n      add\n      sstore\n      0x20\n      dup3\n      add\n      mload\n      dup2\n      0x01\n      add\n      sstore\n      swap1\n      pop\n      pop\n        /* \"contracts/Memory&Storage.sol\":373:468  function addUser(uint id, uint balance) public {... */\n      pop\n      pop\n      jump\t// out\n        /* \"#utility.yul\":88:205   */\n    tag_23:\n        /* \"#utility.yul\":197:198   */\n      0x00\n        /* \"#utility.yul\":194:195   */\n      dup1\n        /* \"#utility.yul\":187:199   */\n      revert\n        /* \"#utility.yul\":334:411   */\n    tag_25:\n        /* \"#utility.yul\":371:378   */\n      0x00\n        /* \"#utility.yul\":400:405   */\n      dup2\n        /* \"#utility.yul\":389:405   */\n      swap1\n      pop\n        /* \"#utility.yul\":334:411   */\n      swap2\n      swap1\n      pop\n      jump\t// out\n        /* \"#utility.yul\":417:539   */\n    tag_26:\n        /* \"#utility.yul\":490:514   */\n      tag_35\n        /* \"#utility.yul\":508:513   */\n      dup2\n        /* \"#utility.yul\":490:514   */\n      tag_25\n      jump\t// in\n    tag_35:\n        /* \"#utility.yul\":483:488   */\n      dup2\n        /* \"#utility.yul\":480:515   */\n      eq\n        /* \"#utility.yul\":470:533   */\n      tag_36\n      jumpi\n        /* \"#utility.yul\":529:530   */\n      0x00\n        /* \"#utility.yul\":526:527   */\n      dup1\n        /* \"#utility.yul\":519:531   */\n      revert\n        /* \"#utility.yul\":470:533   */\n    tag_36:\n        /* \"#utility.yul\":417:539   */\n      pop\n      jump\t// out\n        /* \"#utility.yul\":545:684   */\n    tag_27:\n        /* \"#utility.yul\":591:596   */\n      0x00\n        /* \"#utility.yul\":629:635   */\n      dup2\n        /* \"#utility.yul\":616:636   */\n      calldataload\n        /* \"#utility.yul\":607:636   */\n      swap1\n      pop\n        /* \"#utility.yul\":645:678   */\n      tag_38\n        /* \"#utility.yul\":672:677   */\n      dup2\n        /* \"#utility.yul\":645:678   */\n      tag_26\n      jump\t// in\n    tag_38:\n        /* \"#utility.yul\":545:684   */\n      swap3\n      swap2\n      pop\n      pop\n      jump\t// out\n        /* \"#utility.yul\":690:1019   */\n    tag_8:\n        /* \"#utility.yul\":749:755   */\n      0x00\n        /* \"#utility.yul\":798:800   */\n      0x20\n        /* \"#utility.yul\":786:795   */\n      dup3\n        /* \"#utility.yul\":777:784   */\n      dup5\n        /* \"#utility.yul\":773:796   */\n      sub\n        /* \"#utility.yul\":769:801   */\n      slt\n        /* \"#utility.yul\":766:885   */\n      iszero\n      tag_40\n      jumpi\n        /* \"#utility.yul\":804:883   */\n      tag_41\n      tag_23\n      jump\t// in\n    tag_41:\n        /* \"#utility.yul\":766:885   */\n    tag_40:\n        /* \"#utility.yul\":924:925   */\n      0x00\n        /* \"#utility.yul\":949:1002   */\n      tag_42\n        /* \"#utility.yul\":994:1001   */\n      dup5\n        /* \"#utility.yul\":985:991   */\n      dup3\n        /* \"#utility.yul\":974:983   */\n      dup6\n        /* \"#utility.yul\":970:992   */\n      add\n        /* \"#utility.yul\":949:1002   */\n      tag_27\n      jump\t// in\n    tag_42:\n        /* \"#utility.yul\":939:1002   */\n      swap2\n      pop\n        /* \"#utility.yul\":895:1012   */\n      pop\n        /* \"#utility.yul\":690:1019   */\n      swap3\n      swap2\n      pop\n      pop\n      jump\t// out\n        /* \"#utility.yul\":1025:1143   */\n    tag_28:\n        /* \"#utility.yul\":1112:1136   */\n      tag_44\n        /* \"#utility.yul\":1130:1135   */\n      dup2\n        /* \"#utility.yul\":1112:1136   */\n      tag_25\n      jump\t// in\n    tag_44:\n        /* \"#utility.yul\":1107:1110   */\n      dup3\n        /* \"#utility.yul\":1100:1137   */\n      mstore\n        /* \"#utility.yul\":1025:1143   */\n      pop\n      pop\n      jump\t// out\n        /* \"#utility.yul\":1149:1371   */\n    tag_11:\n        /* \"#utility.yul\":1242:1246   */\n      0x00\n        /* \"#utility.yul\":1280:1282   */\n      0x20\n        /* \"#utility.yul\":1269:1278   */\n      dup3\n        /* \"#utility.yul\":1265:1283   */\n      add\n        /* \"#utility.yul\":1257:1283   */\n      swap1\n      pop\n        /* \"#utility.yul\":1293:1364   */\n      tag_46\n        /* \"#utility.yul\":1361:1362   */\n      0x00\n        /* \"#utility.yul\":1350:1359   */\n      dup4\n        /* \"#utility.yul\":1346:1363   */\n      add\n        /* \"#utility.yul\":1337:1343   */\n      dup5\n        /* \"#utility.yul\":1293:1364   */\n      tag_28\n      jump\t// in\n    tag_46:\n        /* \"#utility.yul\":1149:1371   */\n      swap3\n      swap2\n      pop\n      pop\n      jump\t// out\n        /* \"#utility.yul\":1377:1851   */\n    tag_14:\n        /* \"#utility.yul\":1445:1451   */\n      0x00\n        /* \"#utility.yul\":1453:1459   */\n      dup1\n        /* \"#utility.yul\":1502:1504   */\n      0x40\n        /* \"#utility.yul\":1490:1499   */\n      dup4\n        /* \"#utility.yul\":1481:1488   */\n      dup6\n        /* \"#utility.yul\":1477:1500   */\n      sub\n        /* \"#utility.yul\":1473:1505   */\n      slt\n        /* \"#utility.yul\":1470:1589   */\n      iszero\n      tag_48\n      jumpi\n        /* \"#utility.yul\":1508:1587   */\n      tag_49\n      tag_23\n      jump\t// in\n    tag_49:\n        /* \"#utility.yul\":1470:1589   */\n    tag_48:\n        /* \"#utility.yul\":1628:1629   */\n      0x00\n        /* \"#utility.yul\":1653:1706   */\n      tag_50\n        /* \"#utility.yul\":1698:1705   */\n      dup6\n        /* \"#utility.yul\":1689:1695   */\n      dup3\n        /* \"#utility.yul\":1678:1687   */\n      dup7\n        /* \"#utility.yul\":1674:1696   */\n      add\n        /* \"#utility.yul\":1653:1706   */\n      tag_27\n      jump\t// in\n    tag_50:\n        /* \"#utility.yul\":1643:1706   */\n      swap3\n      pop\n        /* \"#utility.yul\":1599:1716   */\n      pop\n        /* \"#utility.yul\":1755:1757   */\n      0x20\n        /* \"#utility.yul\":1781:1834   */\n      tag_51\n        /* \"#utility.yul\":1826:1833   */\n      dup6\n        /* \"#utility.yul\":1817:1823   */\n      dup3\n        /* \"#utility.yul\":1806:1815   */\n      dup7\n        /* \"#utility.yul\":1802:1824   */\n      add\n        /* \"#utility.yul\":1781:1834   */\n      tag_27\n      jump\t// in\n    tag_51:\n        /* \"#utility.yul\":1771:1834   */\n      swap2\n      pop\n        /* \"#utility.yul\":1726:1844   */\n      pop\n        /* \"#utility.yul\":1377:1851   */\n      swap3\n      pop\n      swap3\n      swap1\n      pop\n      jump\t// out\n\n    auxdata: 0xa264697066735822122094d5360d66b50baa03cd0e90374e0e7c7b4e553be76697a47efc6f178a9bb14d64736f6c634300081a0033\n}\n",
				"bytecode": {
					"linkReferences": {},
					"object": "6080604052348015600e575f80fd5b506102248061001c5f395ff3fe608060405234801561000f575f80fd5b506004361061003f575f3560e01c80631e0104391461004357806358453fef14610073578063e00c04ac1461008f575b5f80fd5b61005d6004803603810190610058919061015d565b6100ab565b60405161006a9190610197565b60405180910390f35b61008d600480360381019061008891906101b0565b6100c7565b005b6100a960048036038101906100a491906101b0565b6100e8565b005b5f805f8381526020019081526020015f20600101549050919050565b5f805f8481526020019081526020015f209050818160010181905550505050565b6040518060400160405280838152602001828152505f808481526020019081526020015f205f820151815f0155602082015181600101559050505050565b5f80fd5b5f819050919050565b61013c8161012a565b8114610146575f80fd5b50565b5f8135905061015781610133565b92915050565b5f6020828403121561017257610171610126565b5b5f61017f84828501610149565b91505092915050565b6101918161012a565b82525050565b5f6020820190506101aa5f830184610188565b92915050565b5f80604083850312156101c6576101c5610126565b5b5f6101d385828601610149565b92505060206101e485828601610149565b915050925092905056fea264697066735822122094d5360d66b50baa03cd0e90374e0e7c7b4e553be76697a47efc6f178a9bb14d64736f6c634300081a0033",
					"opcodes": "PUSH1 0x80 PUSH1 0x40 MSTORE CALLVALUE DUP1 ISZERO PUSH1 0xE JUMPI PUSH0 DUP1 REVERT JUMPDEST POP PUSH2 0x224 DUP1 PUSH2 0x1C PUSH0 CODECOPY PUSH0 RETURN INVALID PUSH1 0x80 PUSH1 0x40 MSTORE CALLVALUE DUP1 ISZERO PUSH2 0xF JUMPI PUSH0 DUP1 REVERT JUMPDEST POP PUSH1 0x4 CALLDATASIZE LT PUSH2 0x3F JUMPI PUSH0 CALLDATALOAD PUSH1 0xE0 SHR DUP1 PUSH4 0x1E010439 EQ PUSH2 0x43 JUMPI DUP1 PUSH4 0x58453FEF EQ PUSH2 0x73 JUMPI DUP1 PUSH4 0xE00C04AC EQ PUSH2 0x8F JUMPI JUMPDEST PUSH0 DUP1 REVERT JUMPDEST PUSH2 0x5D PUSH1 0x4 DUP1 CALLDATASIZE SUB DUP2 ADD SWAP1 PUSH2 0x58 SWAP2 SWAP1 PUSH2 0x15D JUMP JUMPDEST PUSH2 0xAB JUMP JUMPDEST PUSH1 0x40 MLOAD PUSH2 0x6A SWAP2 SWAP1 PUSH2 0x197 JUMP JUMPDEST PUSH1 0x40 MLOAD DUP1 SWAP2 SUB SWAP1 RETURN JUMPDEST PUSH2 0x8D PUSH1 0x4 DUP1 CALLDATASIZE SUB DUP2 ADD SWAP1 PUSH2 0x88 SWAP2 SWAP1 PUSH2 0x1B0 JUMP JUMPDEST PUSH2 0xC7 JUMP JUMPDEST STOP JUMPDEST PUSH2 0xA9 PUSH1 0x4 DUP1 CALLDATASIZE SUB DUP2 ADD SWAP1 PUSH2 0xA4 SWAP2 SWAP1 PUSH2 0x1B0 JUMP JUMPDEST PUSH2 0xE8 JUMP JUMPDEST STOP JUMPDEST PUSH0 DUP1 PUSH0 DUP4 DUP2 MSTORE PUSH1 0x20 ADD SWAP1 DUP2 MSTORE PUSH1 0x20 ADD PUSH0 KECCAK256 PUSH1 0x1 ADD SLOAD SWAP1 POP SWAP2 SWAP1 POP JUMP JUMPDEST PUSH0 DUP1 PUSH0 DUP5 DUP2 MSTORE PUSH1 0x20 ADD SWAP1 DUP2 MSTORE PUSH1 0x20 ADD PUSH0 KECCAK256 SWAP1 POP DUP2 DUP2 PUSH1 0x1 ADD DUP2 SWAP1 SSTORE POP POP POP POP JUMP JUMPDEST PUSH1 0x40 MLOAD DUP1 PUSH1 0x40 ADD PUSH1 0x40 MSTORE DUP1 DUP4 DUP2 MSTORE PUSH1 0x20 ADD DUP3 DUP2 MSTORE POP PUSH0 DUP1 DUP5 DUP2 MSTORE PUSH1 0x20 ADD SWAP1 DUP2 MSTORE PUSH1 0x20 ADD PUSH0 KECCAK256 PUSH0 DUP3 ADD MLOAD DUP2 PUSH0 ADD SSTORE PUSH1 0x20 DUP3 ADD MLOAD DUP2 PUSH1 0x1 ADD SSTORE SWAP1 POP POP POP POP JUMP JUMPDEST PUSH0 DUP1 REVERT JUMPDEST PUSH0 DUP2 SWAP1 POP SWAP2 SWAP1 POP JUMP JUMPDEST PUSH2 0x13C DUP2 PUSH2 0x12A JUMP JUMPDEST DUP2 EQ PUSH2 0x146 JUMPI PUSH0 DUP1 REVERT JUMPDEST POP JUMP JUMPDEST PUSH0 DUP2 CALLDATALOAD SWAP1 POP PUSH2 0x157 DUP2 PUSH2 0x133 JUMP JUMPDEST SWAP3 SWAP2 POP POP JUMP JUMPDEST PUSH0 PUSH1 0x20 DUP3 DUP5 SUB SLT ISZERO PUSH2 0x172 JUMPI PUSH2 0x171 PUSH2 0x126 JUMP JUMPDEST JUMPDEST PUSH0 PUSH2 0x17F DUP5 DUP3 DUP6 ADD PUSH2 0x149 JUMP JUMPDEST SWAP2 POP POP SWAP3 SWAP2 POP POP JUMP JUMPDEST PUSH2 0x191 DUP2 PUSH2 0x12A JUMP JUMPDEST DUP3 MSTORE POP POP JUMP JUMPDEST PUSH0 PUSH1 0x20 DUP3 ADD SWAP1 POP PUSH2 0x1AA PUSH0 DUP4 ADD DUP5 PUSH2 0x188 JUMP JUMPDEST SWAP3 SWAP2 POP POP JUMP JUMPDEST PUSH0 DUP1 PUSH1 0x40 DUP4 DUP6 SUB SLT ISZERO PUSH2 0x1C6 JUMPI PUSH2 0x1C5 PUSH2 0x126 JUMP JUMPDEST JUMPDEST PUSH0 PUSH2 0x1D3 DUP6 DUP3 DUP7 ADD PUSH2 0x149 JUMP JUMPDEST SWAP3 POP POP PUSH1 0x20 PUSH2 0x1E4 DUP6 DUP3 DUP7 ADD PUSH2 0x149 JUMP JUMPDEST SWAP2 POP POP SWAP3 POP SWAP3 SWAP1 POP JUMP INVALID LOG2 PUSH5 0x6970667358 0x22 SLT KECCAK256 SWAP5 0xD5 CALLDATASIZE 0xD PUSH7 0xB50BAA03CD0E90 CALLDATACOPY 0x4E 0xE PUSH29 0x7B4E553BE76697A47EFC6F178A9BB14D64736F6C634300081A00330000 "
				},
				"gasEstimates": {
					"creation": {
						"codeDepositCost": "109600",
						"executionCost": "157",
						"totalCost": "109757"
					},
					"external": {
						"addUser(uint256,uint256)": "infinite",
						"getBalance(uint256)": "infinite",
						"updateBalance(uint256,uint256)": "infinite"
					}
				},
				"methodIdentifiers": {
					"addUser(uint256,uint256)": "e00c04ac",
					"getBalance(uint256)": "1e010439",
					"updateBalance(uint256,uint256)": "58453fef"
				}
			},
			"storageLayout": {
				"storage": [
					{
						"astId": 6,
						"contract": "contracts/Memory&Storage.sol:MemoryAndStorage",
						"label": "users",
						"offset": 0,
						"slot": "0",
						"type": "t_mapping(t_uint256,t_struct(User)11_storage)"
					}
				],
				"types": {
					"t_mapping(t_uint256,t_struct(User)11_storage)": {
						"encoding": "mapping",
						"key": "t_uint256",
						"label": "mapping(uint256 => struct MemoryAndStorage.User)",
						"numberOfBytes": "32",
						"value": "t_struct(User)11_storage"
					},
					"t_struct(User)11_storage": {
						"encoding": "inplace",
						"label": "struct MemoryAndStorage.User",
						"members": [
							{
								"astId": 8,
								"contract": "contracts/Memory&Storage.sol:MemoryAndStorage",
								"label": "id",
								"offset": 0,
								"slot": "0",
								"type": "t_uint256"
							},
							{
								"astId": 10,
								"contract": "contracts/Memory&Storage.sol:MemoryAndStorage",
								"label": "balance",
								"offset": 0,
								"slot": "1",
								"type": "t_uint256"
							}
						],
						"numberOfBytes": "64"
					},
					"t_uint256": {
						"encoding": "inplace",
						"label": "uint256",
						"numberOfBytes": "32"
					}
				}
			},
			"userdoc": {
				"kind": "user",
				"methods": {},
				"version": 1
			}
		}
	}
}