{
	"contracts/errorHandling.sol": {
		"Bank": {
			"abi": [
				{
					"inputs": [
						{
							"internalType": "uint256",
							"name": "_toAdd",
							"type": "uint256"
						}
					],
					"name": "addBalance",
					"outputs": [
						{
							"internalType": "uint256",
							"name": "",
							"type": "uint256"
						}
					],
					"stateMutability": "nonpayable",
					"type": "function"
				},
				{
					"inputs": [],
					"name": "getBalance",
					"outputs": [
						{
							"internalType": "uint256",
							"name": "",
							"type": "uint256"
						}
					],
					"stateMutability": "view",
					"type": "function"
				},
				{
					"inputs": [
						{
							"internalType": "address",
							"name": "recipent",
							"type": "address"
						},
						{
							"internalType": "uint256",
							"name": "amount",
							"type": "uint256"
						}
					],
					"name": "transfer",
					"outputs": [],
					"stateMutability": "nonpayable",
					"type": "function"
				}
			],
			"devdoc": {
				"kind": "dev",
				"methods": {},
				"version": 1
			},
			"evm": {
				"assembly": "    /* \"contracts/errorHandling.sol\":61:1108  contract Bank {... */\n  mstore(0x40, 0x80)\n  callvalue\n  dup1\n  iszero\n  tag_1\n  jumpi\n  0x00\n  dup1\n  revert\ntag_1:\n  pop\n  dataSize(sub_0)\n  dup1\n  dataOffset(sub_0)\n  0x00\n  codecopy\n  0x00\n  return\nstop\n\nsub_0: assembly {\n        /* \"contracts/errorHandling.sol\":61:1108  contract Bank {... */\n      mstore(0x40, 0x80)\n      callvalue\n      dup1\n      iszero\n      tag_1\n      jumpi\n      0x00\n      dup1\n      revert\n    tag_1:\n      pop\n      jumpi(tag_2, lt(calldatasize, 0x04))\n      shr(0xe0, calldataload(0x00))\n      dup1\n      0x12065fe0\n      eq\n      tag_3\n      jumpi\n      dup1\n      0xa9059cbb\n      eq\n      tag_4\n      jumpi\n      dup1\n      0xd91921ed\n      eq\n      tag_5\n      jumpi\n    tag_2:\n      0x00\n      dup1\n      revert\n        /* \"contracts/errorHandling.sol\":429:524  function getBalance() public view returns(uint) {... */\n    tag_3:\n      tag_6\n      tag_7\n      jump\t// in\n    tag_6:\n      mload(0x40)\n      tag_8\n      swap2\n      swap1\n      tag_9\n      jump\t// in\n    tag_8:\n      mload(0x40)\n      dup1\n      swap2\n      sub\n      swap1\n      return\n        /* \"contracts/errorHandling.sol\":588:1105  function transfer(address recipent, uint amount) public {... */\n    tag_4:\n      tag_10\n      0x04\n      dup1\n      calldatasize\n      sub\n      dup2\n      add\n      swap1\n      tag_11\n      swap2\n      swap1\n      tag_12\n      jump\t// in\n    tag_11:\n      tag_13\n      jump\t// in\n    tag_10:\n      stop\n        /* \"contracts/errorHandling.sol\":228:371  function addBalance(uint _toAdd) public returns(uint) {... */\n    tag_5:\n      tag_14\n      0x04\n      dup1\n      calldatasize\n      sub\n      dup2\n      add\n      swap1\n      tag_15\n      swap2\n      swap1\n      tag_16\n      jump\t// in\n    tag_15:\n      tag_17\n      jump\t// in\n    tag_14:\n      mload(0x40)\n      tag_18\n      swap2\n      swap1\n      tag_9\n      jump\t// in\n    tag_18:\n      mload(0x40)\n      dup1\n      swap2\n      sub\n      swap1\n      return\n        /* \"contracts/errorHandling.sol\":429:524  function getBalance() public view returns(uint) {... */\n    tag_7:\n        /* \"contracts/errorHandling.sol\":471:475  uint */\n      0x00\n        /* \"contracts/errorHandling.sol\":495:504  balanceOf */\n      dup1\n        /* \"contracts/errorHandling.sol\":495:516  balanceOf[msg.sender] */\n      0x00\n        /* \"contracts/errorHandling.sol\":505:515  msg.sender */\n      caller\n        /* \"contracts/errorHandling.sol\":495:516  balanceOf[msg.sender] */\n      0xffffffffffffffffffffffffffffffffffffffff\n      and\n      0xffffffffffffffffffffffffffffffffffffffff\n      and\n      dup2\n      mstore\n      0x20\n      add\n      swap1\n      dup2\n      mstore\n      0x20\n      add\n      0x00\n      keccak256\n      sload\n        /* \"contracts/errorHandling.sol\":488:516  return balanceOf[msg.sender] */\n      swap1\n      pop\n        /* \"contracts/errorHandling.sol\":429:524  function getBalance() public view returns(uint) {... */\n      swap1\n      jump\t// out\n        /* \"contracts/errorHandling.sol\":588:1105  function transfer(address recipent, uint amount) public {... */\n    tag_13:\n        /* \"contracts/errorHandling.sol\":688:694  amount */\n      dup1\n        /* \"contracts/errorHandling.sol\":663:672  balanceOf */\n      0x00\n        /* \"contracts/errorHandling.sol\":663:684  balanceOf[msg.sender] */\n      dup1\n        /* \"contracts/errorHandling.sol\":673:683  msg.sender */\n      caller\n        /* \"contracts/errorHandling.sol\":663:684  balanceOf[msg.sender] */\n      0xffffffffffffffffffffffffffffffffffffffff\n      and\n      0xffffffffffffffffffffffffffffffffffffffff\n      and\n      dup2\n      mstore\n      0x20\n      add\n      swap1\n      dup2\n      mstore\n      0x20\n      add\n      0x00\n      keccak256\n      sload\n        /* \"contracts/errorHandling.sol\":663:694  balanceOf[msg.sender] >= amount */\n      lt\n      iszero\n        /* \"contracts/errorHandling.sol\":655:719  require(balanceOf[msg.sender] >= amount, \"Insufficient Balance\") */\n      tag_21\n      jumpi\n      mload(0x40)\n      0x08c379a000000000000000000000000000000000000000000000000000000000\n      dup2\n      mstore\n      0x04\n      add\n      tag_22\n      swap1\n      tag_23\n      jump\t// in\n    tag_22:\n      mload(0x40)\n      dup1\n      swap2\n      sub\n      swap1\n      revert\n    tag_21:\n        /* \"contracts/errorHandling.sol\":784:792  recipent */\n      dup2\n        /* \"contracts/errorHandling.sol\":770:792  msg.sender != recipent */\n      0xffffffffffffffffffffffffffffffffffffffff\n      and\n        /* \"contracts/errorHandling.sol\":770:780  msg.sender */\n      caller\n        /* \"contracts/errorHandling.sol\":770:792  msg.sender != recipent */\n      0xffffffffffffffffffffffffffffffffffffffff\n      and\n      sub\n        /* \"contracts/errorHandling.sol\":762:820  require(msg.sender != recipent, \"You can't Fund Yourself\") */\n      tag_24\n      jumpi\n      mload(0x40)\n      0x08c379a000000000000000000000000000000000000000000000000000000000\n      dup2\n      mstore\n      0x04\n      add\n      tag_25\n      swap1\n      tag_26\n      jump\t// in\n    tag_25:\n      mload(0x40)\n      dup1\n      swap2\n      sub\n      swap1\n      revert\n    tag_24:\n        /* \"contracts/errorHandling.sol\":855:881  uint senderPreviousBalance */\n      0x00\n        /* \"contracts/errorHandling.sol\":884:893  balanceOf */\n      dup1\n        /* \"contracts/errorHandling.sol\":884:905  balanceOf[msg.sender] */\n      0x00\n        /* \"contracts/errorHandling.sol\":894:904  msg.sender */\n      caller\n        /* \"contracts/errorHandling.sol\":884:905  balanceOf[msg.sender] */\n      0xffffffffffffffffffffffffffffffffffffffff\n      and\n      0xffffffffffffffffffffffffffffffffffffffff\n      and\n      dup2\n      mstore\n      0x20\n      add\n      swap1\n      dup2\n      mstore\n      0x20\n      add\n      0x00\n      keccak256\n      sload\n        /* \"contracts/errorHandling.sol\":855:905  uint senderPreviousBalance = balanceOf[msg.sender] */\n      swap1\n      pop\n        /* \"contracts/errorHandling.sol\":941:947  amount */\n      dup2\n        /* \"contracts/errorHandling.sol\":916:925  balanceOf */\n      0x00\n        /* \"contracts/errorHandling.sol\":916:937  balanceOf[msg.sender] */\n      dup1\n        /* \"contracts/errorHandling.sol\":926:936  msg.sender */\n      caller\n        /* \"contracts/errorHandling.sol\":916:937  balanceOf[msg.sender] */\n      0xffffffffffffffffffffffffffffffffffffffff\n      and\n      0xffffffffffffffffffffffffffffffffffffffff\n      and\n      dup2\n      mstore\n      0x20\n      add\n      swap1\n      dup2\n      mstore\n      0x20\n      add\n      0x00\n      keccak256\n      0x00\n        /* \"contracts/errorHandling.sol\":916:947  balanceOf[msg.sender] -= amount */\n      dup3\n      dup3\n      sload\n      tag_27\n      swap2\n      swap1\n      tag_28\n      jump\t// in\n    tag_27:\n      swap3\n      pop\n      pop\n      dup2\n      swap1\n      sstore\n      pop\n        /* \"contracts/errorHandling.sol\":981:987  amount */\n      dup2\n        /* \"contracts/errorHandling.sol\":958:967  balanceOf */\n      0x00\n        /* \"contracts/errorHandling.sol\":958:977  balanceOf[recipent] */\n      dup1\n        /* \"contracts/errorHandling.sol\":968:976  recipent */\n      dup6\n        /* \"contracts/errorHandling.sol\":958:977  balanceOf[recipent] */\n      0xffffffffffffffffffffffffffffffffffffffff\n      and\n      0xffffffffffffffffffffffffffffffffffffffff\n      and\n      dup2\n      mstore\n      0x20\n      add\n      swap1\n      dup2\n      mstore\n      0x20\n      add\n      0x00\n      keccak256\n      0x00\n        /* \"contracts/errorHandling.sol\":958:987  balanceOf[recipent] += amount */\n      dup3\n      dup3\n      sload\n      tag_29\n      swap2\n      swap1\n      tag_30\n      jump\t// in\n    tag_29:\n      swap3\n      pop\n      pop\n      dup2\n      swap1\n      sstore\n      pop\n        /* \"contracts/errorHandling.sol\":1054:1060  amount */\n      dup2\n        /* \"contracts/errorHandling.sol\":1030:1051  senderPreviousBalance */\n      dup2\n        /* \"contracts/errorHandling.sol\":1030:1060  senderPreviousBalance - amount */\n      tag_31\n      swap2\n      swap1\n      tag_28\n      jump\t// in\n    tag_31:\n        /* \"contracts/errorHandling.sol\":1005:1014  balanceOf */\n      0x00\n        /* \"contracts/errorHandling.sol\":1005:1026  balanceOf[msg.sender] */\n      dup1\n        /* \"contracts/errorHandling.sol\":1015:1025  msg.sender */\n      caller\n        /* \"contracts/errorHandling.sol\":1005:1026  balanceOf[msg.sender] */\n      0xffffffffffffffffffffffffffffffffffffffff\n      and\n      0xffffffffffffffffffffffffffffffffffffffff\n      and\n      dup2\n      mstore\n      0x20\n      add\n      swap1\n      dup2\n      mstore\n      0x20\n      add\n      0x00\n      keccak256\n      sload\n        /* \"contracts/errorHandling.sol\":1005:1060  balanceOf[msg.sender] == senderPreviousBalance - amount */\n      eq\n        /* \"contracts/errorHandling.sol\":998:1061  assert(balanceOf[msg.sender] == senderPreviousBalance - amount) */\n      tag_32\n      jumpi\n      tag_33\n      tag_34\n      jump\t// in\n    tag_33:\n    tag_32:\n        /* \"contracts/errorHandling.sol\":644:1105  {... */\n      pop\n        /* \"contracts/errorHandling.sol\":588:1105  function transfer(address recipent, uint amount) public {... */\n      pop\n      pop\n      jump\t// out\n        /* \"contracts/errorHandling.sol\":228:371  function addBalance(uint _toAdd) public returns(uint) {... */\n    tag_17:\n        /* \"contracts/errorHandling.sol\":276:280  uint */\n      0x00\n        /* \"contracts/errorHandling.sol\":318:324  _toAdd */\n      dup2\n        /* \"contracts/errorHandling.sol\":293:302  balanceOf */\n      0x00\n        /* \"contracts/errorHandling.sol\":293:314  balanceOf[msg.sender] */\n      dup1\n        /* \"contracts/errorHandling.sol\":303:313  msg.sender */\n      caller\n        /* \"contracts/errorHandling.sol\":293:314  balanceOf[msg.sender] */\n      0xffffffffffffffffffffffffffffffffffffffff\n      and\n      0xffffffffffffffffffffffffffffffffffffffff\n      and\n      dup2\n      mstore\n      0x20\n      add\n      swap1\n      dup2\n      mstore\n      0x20\n      add\n      0x00\n      keccak256\n      0x00\n        /* \"contracts/errorHandling.sol\":293:324  balanceOf[msg.sender] += _toAdd */\n      dup3\n      dup3\n      sload\n      tag_36\n      swap2\n      swap1\n      tag_30\n      jump\t// in\n    tag_36:\n      swap3\n      pop\n      pop\n      dup2\n      swap1\n      sstore\n      pop\n        /* \"contracts/errorHandling.sol\":342:351  balanceOf */\n      0x00\n        /* \"contracts/errorHandling.sol\":342:363  balanceOf[msg.sender] */\n      dup1\n        /* \"contracts/errorHandling.sol\":352:362  msg.sender */\n      caller\n        /* \"contracts/errorHandling.sol\":342:363  balanceOf[msg.sender] */\n      0xffffffffffffffffffffffffffffffffffffffff\n      and\n      0xffffffffffffffffffffffffffffffffffffffff\n      and\n      dup2\n      mstore\n      0x20\n      add\n      swap1\n      dup2\n      mstore\n      0x20\n      add\n      0x00\n      keccak256\n      sload\n        /* \"contracts/errorHandling.sol\":335:363  return balanceOf[msg.sender] */\n      swap1\n      pop\n        /* \"contracts/errorHandling.sol\":228:371  function addBalance(uint _toAdd) public returns(uint) {... */\n      swap2\n      swap1\n      pop\n      jump\t// out\n        /* \"#utility.yul\":7:84   */\n    tag_37:\n        /* \"#utility.yul\":44:51   */\n      0x00\n        /* \"#utility.yul\":73:78   */\n      dup2\n        /* \"#utility.yul\":62:78   */\n      swap1\n      pop\n        /* \"#utility.yul\":7:84   */\n      swap2\n      swap1\n      pop\n      jump\t// out\n        /* \"#utility.yul\":90:208   */\n    tag_38:\n        /* \"#utility.yul\":177:201   */\n      tag_57\n        /* \"#utility.yul\":195:200   */\n      dup2\n        /* \"#utility.yul\":177:201   */\n      tag_37\n      jump\t// in\n    tag_57:\n        /* \"#utility.yul\":172:175   */\n      dup3\n        /* \"#utility.yul\":165:202   */\n      mstore\n        /* \"#utility.yul\":90:208   */\n      pop\n      pop\n      jump\t// out\n        /* \"#utility.yul\":214:436   */\n    tag_9:\n        /* \"#utility.yul\":307:311   */\n      0x00\n        /* \"#utility.yul\":345:347   */\n      0x20\n        /* \"#utility.yul\":334:343   */\n      dup3\n        /* \"#utility.yul\":330:348   */\n      add\n        /* \"#utility.yul\":322:348   */\n      swap1\n      pop\n        /* \"#utility.yul\":358:429   */\n      tag_59\n        /* \"#utility.yul\":426:427   */\n      0x00\n        /* \"#utility.yul\":415:424   */\n      dup4\n        /* \"#utility.yul\":411:428   */\n      add\n        /* \"#utility.yul\":402:408   */\n      dup5\n        /* \"#utility.yul\":358:429   */\n      tag_38\n      jump\t// in\n    tag_59:\n        /* \"#utility.yul\":214:436   */\n      swap3\n      swap2\n      pop\n      pop\n      jump\t// out\n        /* \"#utility.yul\":523:640   */\n    tag_40:\n        /* \"#utility.yul\":632:633   */\n      0x00\n        /* \"#utility.yul\":629:630   */\n      dup1\n        /* \"#utility.yul\":622:634   */\n      revert\n        /* \"#utility.yul\":769:895   */\n    tag_42:\n        /* \"#utility.yul\":806:813   */\n      0x00\n        /* \"#utility.yul\":846:888   */\n      0xffffffffffffffffffffffffffffffffffffffff\n        /* \"#utility.yul\":839:844   */\n      dup3\n        /* \"#utility.yul\":835:889   */\n      and\n        /* \"#utility.yul\":824:889   */\n      swap1\n      pop\n        /* \"#utility.yul\":769:895   */\n      swap2\n      swap1\n      pop\n      jump\t// out\n        /* \"#utility.yul\":901:997   */\n    tag_43:\n        /* \"#utility.yul\":938:945   */\n      0x00\n        /* \"#utility.yul\":967:991   */\n      tag_65\n        /* \"#utility.yul\":985:990   */\n      dup3\n        /* \"#utility.yul\":967:991   */\n      tag_42\n      jump\t// in\n    tag_65:\n        /* \"#utility.yul\":956:991   */\n      swap1\n      pop\n        /* \"#utility.yul\":901:997   */\n      swap2\n      swap1\n      pop\n      jump\t// out\n        /* \"#utility.yul\":1003:1125   */\n    tag_44:\n        /* \"#utility.yul\":1076:1100   */\n      tag_67\n        /* \"#utility.yul\":1094:1099   */\n      dup2\n        /* \"#utility.yul\":1076:1100   */\n      tag_43\n      jump\t// in\n    tag_67:\n        /* \"#utility.yul\":1069:1074   */\n      dup2\n        /* \"#utility.yul\":1066:1101   */\n      eq\n        /* \"#utility.yul\":1056:1119   */\n      tag_68\n      jumpi\n        /* \"#utility.yul\":1115:1116   */\n      0x00\n        /* \"#utility.yul\":1112:1113   */\n      dup1\n        /* \"#utility.yul\":1105:1117   */\n      revert\n        /* \"#utility.yul\":1056:1119   */\n    tag_68:\n        /* \"#utility.yul\":1003:1125   */\n      pop\n      jump\t// out\n        /* \"#utility.yul\":1131:1270   */\n    tag_45:\n        /* \"#utility.yul\":1177:1182   */\n      0x00\n        /* \"#utility.yul\":1215:1221   */\n      dup2\n        /* \"#utility.yul\":1202:1222   */\n      calldataload\n        /* \"#utility.yul\":1193:1222   */\n      swap1\n      pop\n        /* \"#utility.yul\":1231:1264   */\n      tag_70\n        /* \"#utility.yul\":1258:1263   */\n      dup2\n        /* \"#utility.yul\":1231:1264   */\n      tag_44\n      jump\t// in\n    tag_70:\n        /* \"#utility.yul\":1131:1270   */\n      swap3\n      swap2\n      pop\n      pop\n      jump\t// out\n        /* \"#utility.yul\":1276:1398   */\n    tag_46:\n        /* \"#utility.yul\":1349:1373   */\n      tag_72\n        /* \"#utility.yul\":1367:1372   */\n      dup2\n        /* \"#utility.yul\":1349:1373   */\n      tag_37\n      jump\t// in\n    tag_72:\n        /* \"#utility.yul\":1342:1347   */\n      dup2\n        /* \"#utility.yul\":1339:1374   */\n      eq\n        /* \"#utility.yul\":1329:1392   */\n      tag_73\n      jumpi\n        /* \"#utility.yul\":1388:1389   */\n      0x00\n        /* \"#utility.yul\":1385:1386   */\n      dup1\n        /* \"#utility.yul\":1378:1390   */\n      revert\n        /* \"#utility.yul\":1329:1392   */\n    tag_73:\n        /* \"#utility.yul\":1276:1398   */\n      pop\n      jump\t// out\n        /* \"#utility.yul\":1404:1543   */\n    tag_47:\n        /* \"#utility.yul\":1450:1455   */\n      0x00\n        /* \"#utility.yul\":1488:1494   */\n      dup2\n        /* \"#utility.yul\":1475:1495   */\n      calldataload\n        /* \"#utility.yul\":1466:1495   */\n      swap1\n      pop\n        /* \"#utility.yul\":1504:1537   */\n      tag_75\n        /* \"#utility.yul\":1531:1536   */\n      dup2\n        /* \"#utility.yul\":1504:1537   */\n      tag_46\n      jump\t// in\n    tag_75:\n        /* \"#utility.yul\":1404:1543   */\n      swap3\n      swap2\n      pop\n      pop\n      jump\t// out\n        /* \"#utility.yul\":1549:2023   */\n    tag_12:\n        /* \"#utility.yul\":1617:1623   */\n      0x00\n        /* \"#utility.yul\":1625:1631   */\n      dup1\n        /* \"#utility.yul\":1674:1676   */\n      0x40\n        /* \"#utility.yul\":1662:1671   */\n      dup4\n        /* \"#utility.yul\":1653:1660   */\n      dup6\n        /* \"#utility.yul\":1649:1672   */\n      sub\n        /* \"#utility.yul\":1645:1677   */\n      slt\n        /* \"#utility.yul\":1642:1761   */\n      iszero\n      tag_77\n      jumpi\n        /* \"#utility.yul\":1680:1759   */\n      tag_78\n      tag_40\n      jump\t// in\n    tag_78:\n        /* \"#utility.yul\":1642:1761   */\n    tag_77:\n        /* \"#utility.yul\":1800:1801   */\n      0x00\n        /* \"#utility.yul\":1825:1878   */\n      tag_79\n        /* \"#utility.yul\":1870:1877   */\n      dup6\n        /* \"#utility.yul\":1861:1867   */\n      dup3\n        /* \"#utility.yul\":1850:1859   */\n      dup7\n        /* \"#utility.yul\":1846:1868   */\n      add\n        /* \"#utility.yul\":1825:1878   */\n      tag_45\n      jump\t// in\n    tag_79:\n        /* \"#utility.yul\":1815:1878   */\n      swap3\n      pop\n        /* \"#utility.yul\":1771:1888   */\n      pop\n        /* \"#utility.yul\":1927:1929   */\n      0x20\n        /* \"#utility.yul\":1953:2006   */\n      tag_80\n        /* \"#utility.yul\":1998:2005   */\n      dup6\n        /* \"#utility.yul\":1989:1995   */\n      dup3\n        /* \"#utility.yul\":1978:1987   */\n      dup7\n        /* \"#utility.yul\":1974:1996   */\n      add\n        /* \"#utility.yul\":1953:2006   */\n      tag_47\n      jump\t// in\n    tag_80:\n        /* \"#utility.yul\":1943:2006   */\n      swap2\n      pop\n        /* \"#utility.yul\":1898:2016   */\n      pop\n        /* \"#utility.yul\":1549:2023   */\n      swap3\n      pop\n      swap3\n      swap1\n      pop\n      jump\t// out\n        /* \"#utility.yul\":2029:2358   */\n    tag_16:\n        /* \"#utility.yul\":2088:2094   */\n      0x00\n        /* \"#utility.yul\":2137:2139   */\n      0x20\n        /* \"#utility.yul\":2125:2134   */\n      dup3\n        /* \"#utility.yul\":2116:2123   */\n      dup5\n        /* \"#utility.yul\":2112:2135   */\n      sub\n        /* \"#utility.yul\":2108:2140   */\n      slt\n        /* \"#utility.yul\":2105:2224   */\n      iszero\n      tag_82\n      jumpi\n        /* \"#utility.yul\":2143:2222   */\n      tag_83\n      tag_40\n      jump\t// in\n    tag_83:\n        /* \"#utility.yul\":2105:2224   */\n    tag_82:\n        /* \"#utility.yul\":2263:2264   */\n      0x00\n        /* \"#utility.yul\":2288:2341   */\n      tag_84\n        /* \"#utility.yul\":2333:2340   */\n      dup5\n        /* \"#utility.yul\":2324:2330   */\n      dup3\n        /* \"#utility.yul\":2313:2322   */\n      dup6\n        /* \"#utility.yul\":2309:2331   */\n      add\n        /* \"#utility.yul\":2288:2341   */\n      tag_47\n      jump\t// in\n    tag_84:\n        /* \"#utility.yul\":2278:2341   */\n      swap2\n      pop\n        /* \"#utility.yul\":2234:2351   */\n      pop\n        /* \"#utility.yul\":2029:2358   */\n      swap3\n      swap2\n      pop\n      pop\n      jump\t// out\n        /* \"#utility.yul\":2364:2533   */\n    tag_48:\n        /* \"#utility.yul\":2448:2459   */\n      0x00\n        /* \"#utility.yul\":2482:2488   */\n      dup3\n        /* \"#utility.yul\":2477:2480   */\n      dup3\n        /* \"#utility.yul\":2470:2489   */\n      mstore\n        /* \"#utility.yul\":2522:2526   */\n      0x20\n        /* \"#utility.yul\":2517:2520   */\n      dup3\n        /* \"#utility.yul\":2513:2527   */\n      add\n        /* \"#utility.yul\":2498:2527   */\n      swap1\n      pop\n        /* \"#utility.yul\":2364:2533   */\n      swap3\n      swap2\n      pop\n      pop\n      jump\t// out\n        /* \"#utility.yul\":2539:2709   */\n    tag_49:\n        /* \"#utility.yul\":2679:2701   */\n      0x496e73756666696369656e742042616c616e6365000000000000000000000000\n        /* \"#utility.yul\":2675:2676   */\n      0x00\n        /* \"#utility.yul\":2667:2673   */\n      dup3\n        /* \"#utility.yul\":2663:2677   */\n      add\n        /* \"#utility.yul\":2656:2702   */\n      mstore\n        /* \"#utility.yul\":2539:2709   */\n      pop\n      jump\t// out\n        /* \"#utility.yul\":2715:3081   */\n    tag_50:\n        /* \"#utility.yul\":2857:2860   */\n      0x00\n        /* \"#utility.yul\":2878:2945   */\n      tag_88\n        /* \"#utility.yul\":2942:2944   */\n      0x14\n        /* \"#utility.yul\":2937:2940   */\n      dup4\n        /* \"#utility.yul\":2878:2945   */\n      tag_48\n      jump\t// in\n    tag_88:\n        /* \"#utility.yul\":2871:2945   */\n      swap2\n      pop\n        /* \"#utility.yul\":2954:3047   */\n      tag_89\n        /* \"#utility.yul\":3043:3046   */\n      dup3\n        /* \"#utility.yul\":2954:3047   */\n      tag_49\n      jump\t// in\n    tag_89:\n        /* \"#utility.yul\":3072:3074   */\n      0x20\n        /* \"#utility.yul\":3067:3070   */\n      dup3\n        /* \"#utility.yul\":3063:3075   */\n      add\n        /* \"#utility.yul\":3056:3075   */\n      swap1\n      pop\n        /* \"#utility.yul\":2715:3081   */\n      swap2\n      swap1\n      pop\n      jump\t// out\n        /* \"#utility.yul\":3087:3506   */\n    tag_23:\n        /* \"#utility.yul\":3253:3257   */\n      0x00\n        /* \"#utility.yul\":3291:3293   */\n      0x20\n        /* \"#utility.yul\":3280:3289   */\n      dup3\n        /* \"#utility.yul\":3276:3294   */\n      add\n        /* \"#utility.yul\":3268:3294   */\n      swap1\n      pop\n        /* \"#utility.yul\":3340:3349   */\n      dup2\n        /* \"#utility.yul\":3334:3338   */\n      dup2\n        /* \"#utility.yul\":3330:3350   */\n      sub\n        /* \"#utility.yul\":3326:3327   */\n      0x00\n        /* \"#utility.yul\":3315:3324   */\n      dup4\n        /* \"#utility.yul\":3311:3328   */\n      add\n        /* \"#utility.yul\":3304:3351   */\n      mstore\n        /* \"#utility.yul\":3368:3499   */\n      tag_91\n        /* \"#utility.yul\":3494:3498   */\n      dup2\n        /* \"#utility.yul\":3368:3499   */\n      tag_50\n      jump\t// in\n    tag_91:\n        /* \"#utility.yul\":3360:3499   */\n      swap1\n      pop\n        /* \"#utility.yul\":3087:3506   */\n      swap2\n      swap1\n      pop\n      jump\t// out\n        /* \"#utility.yul\":3512:3685   */\n    tag_51:\n        /* \"#utility.yul\":3652:3677   */\n      0x596f752063616e27742046756e6420596f757273656c66000000000000000000\n        /* \"#utility.yul\":3648:3649   */\n      0x00\n        /* \"#utility.yul\":3640:3646   */\n      dup3\n        /* \"#utility.yul\":3636:3650   */\n      add\n        /* \"#utility.yul\":3629:3678   */\n      mstore\n        /* \"#utility.yul\":3512:3685   */\n      pop\n      jump\t// out\n        /* \"#utility.yul\":3691:4057   */\n    tag_52:\n        /* \"#utility.yul\":3833:3836   */\n      0x00\n        /* \"#utility.yul\":3854:3921   */\n      tag_94\n        /* \"#utility.yul\":3918:3920   */\n      0x17\n        /* \"#utility.yul\":3913:3916   */\n      dup4\n        /* \"#utility.yul\":3854:3921   */\n      tag_48\n      jump\t// in\n    tag_94:\n        /* \"#utility.yul\":3847:3921   */\n      swap2\n      pop\n        /* \"#utility.yul\":3930:4023   */\n      tag_95\n        /* \"#utility.yul\":4019:4022   */\n      dup3\n        /* \"#utility.yul\":3930:4023   */\n      tag_51\n      jump\t// in\n    tag_95:\n        /* \"#utility.yul\":4048:4050   */\n      0x20\n        /* \"#utility.yul\":4043:4046   */\n      dup3\n        /* \"#utility.yul\":4039:4051   */\n      add\n        /* \"#utility.yul\":4032:4051   */\n      swap1\n      pop\n        /* \"#utility.yul\":3691:4057   */\n      swap2\n      swap1\n      pop\n      jump\t// out\n        /* \"#utility.yul\":4063:4482   */\n    tag_26:\n        /* \"#utility.yul\":4229:4233   */\n      0x00\n        /* \"#utility.yul\":4267:4269   */\n      0x20\n        /* \"#utility.yul\":4256:4265   */\n      dup3\n        /* \"#utility.yul\":4252:4270   */\n      add\n        /* \"#utility.yul\":4244:4270   */\n      swap1\n      pop\n        /* \"#utility.yul\":4316:4325   */\n      dup2\n        /* \"#utility.yul\":4310:4314   */\n      dup2\n        /* \"#utility.yul\":4306:4326   */\n      sub\n        /* \"#utility.yul\":4302:4303   */\n      0x00\n        /* \"#utility.yul\":4291:4300   */\n      dup4\n        /* \"#utility.yul\":4287:4304   */\n      add\n        /* \"#utility.yul\":4280:4327   */\n      mstore\n        /* \"#utility.yul\":4344:4475   */\n      tag_97\n        /* \"#utility.yul\":4470:4474   */\n      dup2\n        /* \"#utility.yul\":4344:4475   */\n      tag_52\n      jump\t// in\n    tag_97:\n        /* \"#utility.yul\":4336:4475   */\n      swap1\n      pop\n        /* \"#utility.yul\":4063:4482   */\n      swap2\n      swap1\n      pop\n      jump\t// out\n        /* \"#utility.yul\":4488:4668   */\n    tag_53:\n        /* \"#utility.yul\":4536:4613   */\n      0x4e487b7100000000000000000000000000000000000000000000000000000000\n        /* \"#utility.yul\":4533:4534   */\n      0x00\n        /* \"#utility.yul\":4526:4614   */\n      mstore\n        /* \"#utility.yul\":4633:4637   */\n      0x11\n        /* \"#utility.yul\":4630:4631   */\n      0x04\n        /* \"#utility.yul\":4623:4638   */\n      mstore\n        /* \"#utility.yul\":4657:4661   */\n      0x24\n        /* \"#utility.yul\":4654:4655   */\n      0x00\n        /* \"#utility.yul\":4647:4662   */\n      revert\n        /* \"#utility.yul\":4674:4868   */\n    tag_28:\n        /* \"#utility.yul\":4714:4718   */\n      0x00\n        /* \"#utility.yul\":4734:4754   */\n      tag_100\n        /* \"#utility.yul\":4752:4753   */\n      dup3\n        /* \"#utility.yul\":4734:4754   */\n      tag_37\n      jump\t// in\n    tag_100:\n        /* \"#utility.yul\":4729:4754   */\n      swap2\n      pop\n        /* \"#utility.yul\":4768:4788   */\n      tag_101\n        /* \"#utility.yul\":4786:4787   */\n      dup4\n        /* \"#utility.yul\":4768:4788   */\n      tag_37\n      jump\t// in\n    tag_101:\n        /* \"#utility.yul\":4763:4788   */\n      swap3\n      pop\n        /* \"#utility.yul\":4812:4813   */\n      dup3\n        /* \"#utility.yul\":4809:4810   */\n      dup3\n        /* \"#utility.yul\":4805:4814   */\n      sub\n        /* \"#utility.yul\":4797:4814   */\n      swap1\n      pop\n        /* \"#utility.yul\":4836:4837   */\n      dup2\n        /* \"#utility.yul\":4830:4834   */\n      dup2\n        /* \"#utility.yul\":4827:4838   */\n      gt\n        /* \"#utility.yul\":4824:4861   */\n      iszero\n      tag_102\n      jumpi\n        /* \"#utility.yul\":4841:4859   */\n      tag_103\n      tag_53\n      jump\t// in\n    tag_103:\n        /* \"#utility.yul\":4824:4861   */\n    tag_102:\n        /* \"#utility.yul\":4674:4868   */\n      swap3\n      swap2\n      pop\n      pop\n      jump\t// out\n        /* \"#utility.yul\":4874:5065   */\n    tag_30:\n        /* \"#utility.yul\":4914:4917   */\n      0x00\n        /* \"#utility.yul\":4933:4953   */\n      tag_105\n        /* \"#utility.yul\":4951:4952   */\n      dup3\n        /* \"#utility.yul\":4933:4953   */\n      tag_37\n      jump\t// in\n    tag_105:\n        /* \"#utility.yul\":4928:4953   */\n      swap2\n      pop\n        /* \"#utility.yul\":4967:4987   */\n      tag_106\n        /* \"#utility.yul\":4985:4986   */\n      dup4\n        /* \"#utility.yul\":4967:4987   */\n      tag_37\n      jump\t// in\n    tag_106:\n        /* \"#utility.yul\":4962:4987   */\n      swap3\n      pop\n        /* \"#utility.yul\":5010:5011   */\n      dup3\n        /* \"#utility.yul\":5007:5008   */\n      dup3\n        /* \"#utility.yul\":5003:5012   */\n      add\n        /* \"#utility.yul\":4996:5012   */\n      swap1\n      pop\n        /* \"#utility.yul\":5031:5034   */\n      dup1\n        /* \"#utility.yul\":5028:5029   */\n      dup3\n        /* \"#utility.yul\":5025:5035   */\n      gt\n        /* \"#utility.yul\":5022:5058   */\n      iszero\n      tag_107\n      jumpi\n        /* \"#utility.yul\":5038:5056   */\n      tag_108\n      tag_53\n      jump\t// in\n    tag_108:\n        /* \"#utility.yul\":5022:5058   */\n    tag_107:\n        /* \"#utility.yul\":4874:5065   */\n      swap3\n      swap2\n      pop\n      pop\n      jump\t// out\n        /* \"#utility.yul\":5071:5251   */\n    tag_34:\n        /* \"#utility.yul\":5119:5196   */\n      0x4e487b7100000000000000000000000000000000000000000000000000000000\n        /* \"#utility.yul\":5116:5117   */\n      0x00\n        /* \"#utility.yul\":5109:5197   */\n      mstore\n        /* \"#utility.yul\":5216:5220   */\n      0x01\n        /* \"#utility.yul\":5213:5214   */\n      0x04\n        /* \"#utility.yul\":5206:5221   */\n      mstore\n        /* \"#utility.yul\":5240:5244   */\n      0x24\n        /* \"#utility.yul\":5237:5238   */\n      0x00\n        /* \"#utility.yul\":5230:5245   */\n      revert\n\n    auxdata: 0xa264697066735822122003a525790960a189f1f25f5c6e85fbcdc8dafd0dba65fedb7dcc4ae950fb73d964736f6c63430008190033\n}\n",
				"bytecode": {
					"linkReferences": {},
					"object": "6080604052348015600e575f80fd5b506106ac8061001c5f395ff3fe608060405234801561000f575f80fd5b506004361061003f575f3560e01c806312065fe014610043578063a9059cbb14610061578063d91921ed1461007d575b5f80fd5b61004b6100ad565b60405161005891906103cc565b60405180910390f35b61007b6004803603810190610076919061046d565b6100f0565b005b610097600480360381019061009291906104ab565b61031d565b6040516100a491906103cc565b60405180910390f35b5f805f3373ffffffffffffffffffffffffffffffffffffffff1673ffffffffffffffffffffffffffffffffffffffff1681526020019081526020015f2054905090565b805f803373ffffffffffffffffffffffffffffffffffffffff1673ffffffffffffffffffffffffffffffffffffffff1681526020019081526020015f2054101561016f576040517f08c379a000000000000000000000000000000000000000000000000000000000815260040161016690610530565b60405180910390fd5b8173ffffffffffffffffffffffffffffffffffffffff163373ffffffffffffffffffffffffffffffffffffffff16036101dd576040517f08c379a00000000000000000000000000000000000000000000000000000000081526004016101d490610598565b60405180910390fd5b5f805f3373ffffffffffffffffffffffffffffffffffffffff1673ffffffffffffffffffffffffffffffffffffffff1681526020019081526020015f20549050815f803373ffffffffffffffffffffffffffffffffffffffff1673ffffffffffffffffffffffffffffffffffffffff1681526020019081526020015f205f82825461026891906105e3565b92505081905550815f808573ffffffffffffffffffffffffffffffffffffffff1673ffffffffffffffffffffffffffffffffffffffff1681526020019081526020015f205f8282546102ba9190610616565b9250508190555081816102cd91906105e3565b5f803373ffffffffffffffffffffffffffffffffffffffff1673ffffffffffffffffffffffffffffffffffffffff1681526020019081526020015f20541461031857610317610649565b5b505050565b5f815f803373ffffffffffffffffffffffffffffffffffffffff1673ffffffffffffffffffffffffffffffffffffffff1681526020019081526020015f205f8282546103699190610616565b925050819055505f803373ffffffffffffffffffffffffffffffffffffffff1673ffffffffffffffffffffffffffffffffffffffff1681526020019081526020015f20549050919050565b5f819050919050565b6103c6816103b4565b82525050565b5f6020820190506103df5f8301846103bd565b92915050565b5f80fd5b5f73ffffffffffffffffffffffffffffffffffffffff82169050919050565b5f610412826103e9565b9050919050565b61042281610408565b811461042c575f80fd5b50565b5f8135905061043d81610419565b92915050565b61044c816103b4565b8114610456575f80fd5b50565b5f8135905061046781610443565b92915050565b5f8060408385031215610483576104826103e5565b5b5f6104908582860161042f565b92505060206104a185828601610459565b9150509250929050565b5f602082840312156104c0576104bf6103e5565b5b5f6104cd84828501610459565b91505092915050565b5f82825260208201905092915050565b7f496e73756666696369656e742042616c616e63650000000000000000000000005f82015250565b5f61051a6014836104d6565b9150610525826104e6565b602082019050919050565b5f6020820190508181035f8301526105478161050e565b9050919050565b7f596f752063616e27742046756e6420596f757273656c660000000000000000005f82015250565b5f6105826017836104d6565b915061058d8261054e565b602082019050919050565b5f6020820190508181035f8301526105af81610576565b9050919050565b7f4e487b71000000000000000000000000000000000000000000000000000000005f52601160045260245ffd5b5f6105ed826103b4565b91506105f8836103b4565b92508282039050818111156106105761060f6105b6565b5b92915050565b5f610620826103b4565b915061062b836103b4565b9250828201905080821115610643576106426105b6565b5b92915050565b7f4e487b71000000000000000000000000000000000000000000000000000000005f52600160045260245ffdfea264697066735822122003a525790960a189f1f25f5c6e85fbcdc8dafd0dba65fedb7dcc4ae950fb73d964736f6c63430008190033",
					"opcodes": "PUSH1 0x80 PUSH1 0x40 MSTORE CALLVALUE DUP1 ISZERO PUSH1 0xE JUMPI PUSH0 DUP1 REVERT JUMPDEST POP PUSH2 0x6AC DUP1 PUSH2 0x1C PUSH0 CODECOPY PUSH0 RETURN INVALID PUSH1 0x80 PUSH1 0x40 MSTORE CALLVALUE DUP1 ISZERO PUSH2 0xF JUMPI PUSH0 DUP1 REVERT JUMPDEST POP PUSH1 0x4 CALLDATASIZE LT PUSH2 0x3F JUMPI PUSH0 CALLDATALOAD PUSH1 0xE0 SHR DUP1 PUSH4 0x12065FE0 EQ PUSH2 0x43 JUMPI DUP1 PUSH4 0xA9059CBB EQ PUSH2 0x61 JUMPI DUP1 PUSH4 0xD91921ED EQ PUSH2 0x7D JUMPI JUMPDEST PUSH0 DUP1 REVERT JUMPDEST PUSH2 0x4B PUSH2 0xAD JUMP JUMPDEST PUSH1 0x40 MLOAD PUSH2 0x58 SWAP2 SWAP1 PUSH2 0x3CC JUMP JUMPDEST PUSH1 0x40 MLOAD DUP1 SWAP2 SUB SWAP1 RETURN JUMPDEST PUSH2 0x7B PUSH1 0x4 DUP1 CALLDATASIZE SUB DUP2 ADD SWAP1 PUSH2 0x76 SWAP2 SWAP1 PUSH2 0x46D JUMP JUMPDEST PUSH2 0xF0 JUMP JUMPDEST STOP JUMPDEST PUSH2 0x97 PUSH1 0x4 DUP1 CALLDATASIZE SUB DUP2 ADD SWAP1 PUSH2 0x92 SWAP2 SWAP1 PUSH2 0x4AB JUMP JUMPDEST PUSH2 0x31D JUMP JUMPDEST PUSH1 0x40 MLOAD PUSH2 0xA4 SWAP2 SWAP1 PUSH2 0x3CC JUMP JUMPDEST PUSH1 0x40 MLOAD DUP1 SWAP2 SUB SWAP1 RETURN JUMPDEST PUSH0 DUP1 PUSH0 CALLER PUSH20 0xFFFFFFFFFFFFFFFFFFFFFFFFFFFFFFFFFFFFFFFF AND PUSH20 0xFFFFFFFFFFFFFFFFFFFFFFFFFFFFFFFFFFFFFFFF AND DUP2 MSTORE PUSH1 0x20 ADD SWAP1 DUP2 MSTORE PUSH1 0x20 ADD PUSH0 KECCAK256 SLOAD SWAP1 POP SWAP1 JUMP JUMPDEST DUP1 PUSH0 DUP1 CALLER PUSH20 0xFFFFFFFFFFFFFFFFFFFFFFFFFFFFFFFFFFFFFFFF AND PUSH20 0xFFFFFFFFFFFFFFFFFFFFFFFFFFFFFFFFFFFFFFFF AND DUP2 MSTORE PUSH1 0x20 ADD SWAP1 DUP2 MSTORE PUSH1 0x20 ADD PUSH0 KECCAK256 SLOAD LT ISZERO PUSH2 0x16F JUMPI PUSH1 0x40 MLOAD PUSH32 0x8C379A000000000000000000000000000000000000000000000000000000000 DUP2 MSTORE PUSH1 0x4 ADD PUSH2 0x166 SWAP1 PUSH2 0x530 JUMP JUMPDEST PUSH1 0x40 MLOAD DUP1 SWAP2 SUB SWAP1 REVERT JUMPDEST DUP2 PUSH20 0xFFFFFFFFFFFFFFFFFFFFFFFFFFFFFFFFFFFFFFFF AND CALLER PUSH20 0xFFFFFFFFFFFFFFFFFFFFFFFFFFFFFFFFFFFFFFFF AND SUB PUSH2 0x1DD JUMPI PUSH1 0x40 MLOAD PUSH32 0x8C379A000000000000000000000000000000000000000000000000000000000 DUP2 MSTORE PUSH1 0x4 ADD PUSH2 0x1D4 SWAP1 PUSH2 0x598 JUMP JUMPDEST PUSH1 0x40 MLOAD DUP1 SWAP2 SUB SWAP1 REVERT JUMPDEST PUSH0 DUP1 PUSH0 CALLER PUSH20 0xFFFFFFFFFFFFFFFFFFFFFFFFFFFFFFFFFFFFFFFF AND PUSH20 0xFFFFFFFFFFFFFFFFFFFFFFFFFFFFFFFFFFFFFFFF AND DUP2 MSTORE PUSH1 0x20 ADD SWAP1 DUP2 MSTORE PUSH1 0x20 ADD PUSH0 KECCAK256 SLOAD SWAP1 POP DUP2 PUSH0 DUP1 CALLER PUSH20 0xFFFFFFFFFFFFFFFFFFFFFFFFFFFFFFFFFFFFFFFF AND PUSH20 0xFFFFFFFFFFFFFFFFFFFFFFFFFFFFFFFFFFFFFFFF AND DUP2 MSTORE PUSH1 0x20 ADD SWAP1 DUP2 MSTORE PUSH1 0x20 ADD PUSH0 KECCAK256 PUSH0 DUP3 DUP3 SLOAD PUSH2 0x268 SWAP2 SWAP1 PUSH2 0x5E3 JUMP JUMPDEST SWAP3 POP POP DUP2 SWAP1 SSTORE POP DUP2 PUSH0 DUP1 DUP6 PUSH20 0xFFFFFFFFFFFFFFFFFFFFFFFFFFFFFFFFFFFFFFFF AND PUSH20 0xFFFFFFFFFFFFFFFFFFFFFFFFFFFFFFFFFFFFFFFF AND DUP2 MSTORE PUSH1 0x20 ADD SWAP1 DUP2 MSTORE PUSH1 0x20 ADD PUSH0 KECCAK256 PUSH0 DUP3 DUP3 SLOAD PUSH2 0x2BA SWAP2 SWAP1 PUSH2 0x616 JUMP JUMPDEST SWAP3 POP POP DUP2 SWAP1 SSTORE POP DUP2 DUP2 PUSH2 0x2CD SWAP2 SWAP1 PUSH2 0x5E3 JUMP JUMPDEST PUSH0 DUP1 CALLER PUSH20 0xFFFFFFFFFFFFFFFFFFFFFFFFFFFFFFFFFFFFFFFF AND PUSH20 0xFFFFFFFFFFFFFFFFFFFFFFFFFFFFFFFFFFFFFFFF AND DUP2 MSTORE PUSH1 0x20 ADD SWAP1 DUP2 MSTORE PUSH1 0x20 ADD PUSH0 KECCAK256 SLOAD EQ PUSH2 0x318 JUMPI PUSH2 0x317 PUSH2 0x649 JUMP JUMPDEST JUMPDEST POP POP POP JUMP JUMPDEST PUSH0 DUP2 PUSH0 DUP1 CALLER PUSH20 0xFFFFFFFFFFFFFFFFFFFFFFFFFFFFFFFFFFFFFFFF AND PUSH20 0xFFFFFFFFFFFFFFFFFFFFFFFFFFFFFFFFFFFFFFFF AND DUP2 MSTORE PUSH1 0x20 ADD SWAP1 DUP2 MSTORE PUSH1 0x20 ADD PUSH0 KECCAK256 PUSH0 DUP3 DUP3 SLOAD PUSH2 0x369 SWAP2 SWAP1 PUSH2 0x616 JUMP JUMPDEST SWAP3 POP POP DUP2 SWAP1 SSTORE POP PUSH0 DUP1 CALLER PUSH20 0xFFFFFFFFFFFFFFFFFFFFFFFFFFFFFFFFFFFFFFFF AND PUSH20 0xFFFFFFFFFFFFFFFFFFFFFFFFFFFFFFFFFFFFFFFF AND DUP2 MSTORE PUSH1 0x20 ADD SWAP1 DUP2 MSTORE PUSH1 0x20 ADD PUSH0 KECCAK256 SLOAD SWAP1 POP SWAP2 SWAP1 POP JUMP JUMPDEST PUSH0 DUP2 SWAP1 POP SWAP2 SWAP1 POP JUMP JUMPDEST PUSH2 0x3C6 DUP2 PUSH2 0x3B4 JUMP JUMPDEST DUP3 MSTORE POP POP JUMP JUMPDEST PUSH0 PUSH1 0x20 DUP3 ADD SWAP1 POP PUSH2 0x3DF PUSH0 DUP4 ADD DUP5 PUSH2 0x3BD JUMP JUMPDEST SWAP3 SWAP2 POP POP JUMP JUMPDEST PUSH0 DUP1 REVERT JUMPDEST PUSH0 PUSH20 0xFFFFFFFFFFFFFFFFFFFFFFFFFFFFFFFFFFFFFFFF DUP3 AND SWAP1 POP SWAP2 SWAP1 POP JUMP JUMPDEST PUSH0 PUSH2 0x412 DUP3 PUSH2 0x3E9 JUMP JUMPDEST SWAP1 POP SWAP2 SWAP1 POP JUMP JUMPDEST PUSH2 0x422 DUP2 PUSH2 0x408 JUMP JUMPDEST DUP2 EQ PUSH2 0x42C JUMPI PUSH0 DUP1 REVERT JUMPDEST POP JUMP JUMPDEST PUSH0 DUP2 CALLDATALOAD SWAP1 POP PUSH2 0x43D DUP2 PUSH2 0x419 JUMP JUMPDEST SWAP3 SWAP2 POP POP JUMP JUMPDEST PUSH2 0x44C DUP2 PUSH2 0x3B4 JUMP JUMPDEST DUP2 EQ PUSH2 0x456 JUMPI PUSH0 DUP1 REVERT JUMPDEST POP JUMP JUMPDEST PUSH0 DUP2 CALLDATALOAD SWAP1 POP PUSH2 0x467 DUP2 PUSH2 0x443 JUMP JUMPDEST SWAP3 SWAP2 POP POP JUMP JUMPDEST PUSH0 DUP1 PUSH1 0x40 DUP4 DUP6 SUB SLT ISZERO PUSH2 0x483 JUMPI PUSH2 0x482 PUSH2 0x3E5 JUMP JUMPDEST JUMPDEST PUSH0 PUSH2 0x490 DUP6 DUP3 DUP7 ADD PUSH2 0x42F JUMP JUMPDEST SWAP3 POP POP PUSH1 0x20 PUSH2 0x4A1 DUP6 DUP3 DUP7 ADD PUSH2 0x459 JUMP JUMPDEST SWAP2 POP POP SWAP3 POP SWAP3 SWAP1 POP JUMP JUMPDEST PUSH0 PUSH1 0x20 DUP3 DUP5 SUB SLT ISZERO PUSH2 0x4C0 JUMPI PUSH2 0x4BF PUSH2 0x3E5 JUMP JUMPDEST JUMPDEST PUSH0 PUSH2 0x4CD DUP5 DUP3 DUP6 ADD PUSH2 0x459 JUMP JUMPDEST SWAP2 POP POP SWAP3 SWAP2 POP POP JUMP JUMPDEST PUSH0 DUP3 DUP3 MSTORE PUSH1 0x20 DUP3 ADD SWAP1 POP SWAP3 SWAP2 POP POP JUMP JUMPDEST PUSH32 0x496E73756666696369656E742042616C616E6365000000000000000000000000 PUSH0 DUP3 ADD MSTORE POP JUMP JUMPDEST PUSH0 PUSH2 0x51A PUSH1 0x14 DUP4 PUSH2 0x4D6 JUMP JUMPDEST SWAP2 POP PUSH2 0x525 DUP3 PUSH2 0x4E6 JUMP JUMPDEST PUSH1 0x20 DUP3 ADD SWAP1 POP SWAP2 SWAP1 POP JUMP JUMPDEST PUSH0 PUSH1 0x20 DUP3 ADD SWAP1 POP DUP2 DUP2 SUB PUSH0 DUP4 ADD MSTORE PUSH2 0x547 DUP2 PUSH2 0x50E JUMP JUMPDEST SWAP1 POP SWAP2 SWAP1 POP JUMP JUMPDEST PUSH32 0x596F752063616E27742046756E6420596F757273656C66000000000000000000 PUSH0 DUP3 ADD MSTORE POP JUMP JUMPDEST PUSH0 PUSH2 0x582 PUSH1 0x17 DUP4 PUSH2 0x4D6 JUMP JUMPDEST SWAP2 POP PUSH2 0x58D DUP3 PUSH2 0x54E JUMP JUMPDEST PUSH1 0x20 DUP3 ADD SWAP1 POP SWAP2 SWAP1 POP JUMP JUMPDEST PUSH0 PUSH1 0x20 DUP3 ADD SWAP1 POP DUP2 DUP2 SUB PUSH0 DUP4 ADD MSTORE PUSH2 0x5AF DUP2 PUSH2 0x576 JUMP JUMPDEST SWAP1 POP SWAP2 SWAP1 POP JUMP JUMPDEST PUSH32 0x4E487B7100000000000000000000000000000000000000000000000000000000 PUSH0 MSTORE PUSH1 0x11 PUSH1 0x4 MSTORE PUSH1 0x24 PUSH0 REVERT JUMPDEST PUSH0 PUSH2 0x5ED DUP3 PUSH2 0x3B4 JUMP JUMPDEST SWAP2 POP PUSH2 0x5F8 DUP4 PUSH2 0x3B4 JUMP JUMPDEST SWAP3 POP DUP3 DUP3 SUB SWAP1 POP DUP2 DUP2 GT ISZERO PUSH2 0x610 JUMPI PUSH2 0x60F PUSH2 0x5B6 JUMP JUMPDEST JUMPDEST SWAP3 SWAP2 POP POP JUMP JUMPDEST PUSH0 PUSH2 0x620 DUP3 PUSH2 0x3B4 JUMP JUMPDEST SWAP2 POP PUSH2 0x62B DUP4 PUSH2 0x3B4 JUMP JUMPDEST SWAP3 POP DUP3 DUP3 ADD SWAP1 POP DUP1 DUP3 GT ISZERO PUSH2 0x643 JUMPI PUSH2 0x642 PUSH2 0x5B6 JUMP JUMPDEST JUMPDEST SWAP3 SWAP2 POP POP JUMP JUMPDEST PUSH32 0x4E487B7100000000000000000000000000000000000000000000000000000000 PUSH0 MSTORE PUSH1 0x1 PUSH1 0x4 MSTORE PUSH1 0x24 PUSH0 REVERT INVALID LOG2 PUSH5 0x6970667358 0x22 SLT KECCAK256 SUB 0xA5 0x25 PUSH26 0x960A189F1F25F5C6E85FBCDC8DAFD0DBA65FEDB7DCC4AE950FB PUSH20 0xD964736F6C634300081900330000000000000000 "
				},
				"gasEstimates": {
					"creation": {
						"codeDepositCost": "341600",
						"executionCost": "378",
						"totalCost": "341978"
					},
					"external": {
						"addBalance(uint256)": "infinite",
						"getBalance()": "2497",
						"transfer(address,uint256)": "infinite"
					}
				},
				"methodIdentifiers": {
					"addBalance(uint256)": "d91921ed",
					"getBalance()": "12065fe0",
					"transfer(address,uint256)": "a9059cbb"
				}
			},
			"storageLayout": {
				"storage": [
					{
						"astId": 5,
						"contract": "contracts/errorHandling.sol:Bank",
						"label": "balanceOf",
						"offset": 0,
						"slot": "0",
						"type": "t_mapping(t_address,t_uint256)"
					}
				],
				"types": {
					"t_address": {
						"encoding": "inplace",
						"label": "address",
						"numberOfBytes": "20"
					},
					"t_mapping(t_address,t_uint256)": {
						"encoding": "mapping",
						"key": "t_address",
						"label": "mapping(address => uint256)",
						"numberOfBytes": "32",
						"value": "t_uint256"
					},
					"t_uint256": {
						"encoding": "inplace",
						"label": "uint256",
						"numberOfBytes": "32"
					}
				}
			},
			"userdoc": {
				"kind": "user",
				"methods": {},
				"version": 1
			}
		}
	}
}