{
	"contracts/modifier.sol": {
		"Bank": {
			"abi": [
				{
					"inputs": [],
					"stateMutability": "nonpayable",
					"type": "constructor"
				},
				{
					"inputs": [
						{
							"internalType": "uint256",
							"name": "_toAdd",
							"type": "uint256"
						}
					],
					"name": "addBalance",
					"outputs": [
						{
							"internalType": "uint256",
							"name": "",
							"type": "uint256"
						}
					],
					"stateMutability": "nonpayable",
					"type": "function"
				},
				{
					"inputs": [],
					"name": "getBalance",
					"outputs": [
						{
							"internalType": "uint256",
							"name": "",
							"type": "uint256"
						}
					],
					"stateMutability": "view",
					"type": "function"
				},
				{
					"inputs": [
						{
							"internalType": "address",
							"name": "recipent",
							"type": "address"
						},
						{
							"internalType": "uint256",
							"name": "amount",
							"type": "uint256"
						}
					],
					"name": "transfer",
					"outputs": [],
					"stateMutability": "nonpayable",
					"type": "function"
				}
			],
			"devdoc": {
				"kind": "dev",
				"methods": {},
				"version": 1
			},
			"evm": {
				"assembly": "    /* \"contracts/modifier.sol\":61:1460  contract Bank {... */\n  mstore(0x40, 0x80)\n    /* \"contracts/modifier.sol\":446:497  constructor() {... */\n  callvalue\n  dup1\n  iszero\n  tag_1\n  jumpi\n  0x00\n  dup1\n  revert\ntag_1:\n  pop\n    /* \"contracts/modifier.sol\":479:489  msg.sender */\n  caller\n    /* \"contracts/modifier.sol\":471:476  owner */\n  0x01\n  0x00\n    /* \"contracts/modifier.sol\":471:489  owner = msg.sender */\n  0x0100\n  exp\n  dup2\n  sload\n  dup2\n  0xffffffffffffffffffffffffffffffffffffffff\n  mul\n  not\n  and\n  swap1\n  dup4\n  0xffffffffffffffffffffffffffffffffffffffff\n  and\n  mul\n  or\n  swap1\n  sstore\n  pop\n    /* \"contracts/modifier.sol\":61:1460  contract Bank {... */\n  dataSize(sub_0)\n  dup1\n  dataOffset(sub_0)\n  0x00\n  codecopy\n  0x00\n  return\nstop\n\nsub_0: assembly {\n        /* \"contracts/modifier.sol\":61:1460  contract Bank {... */\n      mstore(0x40, 0x80)\n      callvalue\n      dup1\n      iszero\n      tag_1\n      jumpi\n      0x00\n      dup1\n      revert\n    tag_1:\n      pop\n      jumpi(tag_2, lt(calldatasize, 0x04))\n      shr(0xe0, calldataload(0x00))\n      dup1\n      0x12065fe0\n      eq\n      tag_3\n      jumpi\n      dup1\n      0xa9059cbb\n      eq\n      tag_4\n      jumpi\n      dup1\n      0xd91921ed\n      eq\n      tag_5\n      jumpi\n    tag_2:\n      0x00\n      dup1\n      revert\n        /* \"contracts/modifier.sol\":771:866  function getBalance() public view returns(uint) {... */\n    tag_3:\n      tag_6\n      tag_7\n      jump\t// in\n    tag_6:\n      mload(0x40)\n      tag_8\n      swap2\n      swap1\n      tag_9\n      jump\t// in\n    tag_8:\n      mload(0x40)\n      dup1\n      swap2\n      sub\n      swap1\n      return\n        /* \"contracts/modifier.sol\":930:1457  function transfer(address recipent, uint amount) public onlyOwner {... */\n    tag_4:\n      tag_10\n      0x04\n      dup1\n      calldatasize\n      sub\n      dup2\n      add\n      swap1\n      tag_11\n      swap2\n      swap1\n      tag_12\n      jump\t// in\n    tag_11:\n      tag_13\n      jump\t// in\n    tag_10:\n      stop\n        /* \"contracts/modifier.sol\":560:713  function addBalance(uint _toAdd) public onlyOwner returns(uint) {... */\n    tag_5:\n      tag_14\n      0x04\n      dup1\n      calldatasize\n      sub\n      dup2\n      add\n      swap1\n      tag_15\n      swap2\n      swap1\n      tag_16\n      jump\t// in\n    tag_15:\n      tag_17\n      jump\t// in\n    tag_14:\n      mload(0x40)\n      tag_18\n      swap2\n      swap1\n      tag_9\n      jump\t// in\n    tag_18:\n      mload(0x40)\n      dup1\n      swap2\n      sub\n      swap1\n      return\n        /* \"contracts/modifier.sol\":771:866  function getBalance() public view returns(uint) {... */\n    tag_7:\n        /* \"contracts/modifier.sol\":813:817  uint */\n      0x00\n        /* \"contracts/modifier.sol\":837:846  balanceOf */\n      dup1\n        /* \"contracts/modifier.sol\":837:858  balanceOf[msg.sender] */\n      0x00\n        /* \"contracts/modifier.sol\":847:857  msg.sender */\n      caller\n        /* \"contracts/modifier.sol\":837:858  balanceOf[msg.sender] */\n      0xffffffffffffffffffffffffffffffffffffffff\n      and\n      0xffffffffffffffffffffffffffffffffffffffff\n      and\n      dup2\n      mstore\n      0x20\n      add\n      swap1\n      dup2\n      mstore\n      0x20\n      add\n      0x00\n      keccak256\n      sload\n        /* \"contracts/modifier.sol\":830:858  return balanceOf[msg.sender] */\n      swap1\n      pop\n        /* \"contracts/modifier.sol\":771:866  function getBalance() public view returns(uint) {... */\n      swap1\n      jump\t// out\n        /* \"contracts/modifier.sol\":930:1457  function transfer(address recipent, uint amount) public onlyOwner {... */\n    tag_13:\n        /* \"contracts/modifier.sol\":331:336  owner */\n      0x01\n      0x00\n      swap1\n      sload\n      swap1\n      0x0100\n      exp\n      swap1\n      div\n      0xffffffffffffffffffffffffffffffffffffffff\n      and\n        /* \"contracts/modifier.sol\":317:336  msg.sender == owner */\n      0xffffffffffffffffffffffffffffffffffffffff\n      and\n        /* \"contracts/modifier.sol\":317:327  msg.sender */\n      caller\n        /* \"contracts/modifier.sol\":317:336  msg.sender == owner */\n      0xffffffffffffffffffffffffffffffffffffffff\n      and\n      eq\n        /* \"contracts/modifier.sol\":309:356  require(msg.sender == owner, \"Only Bank Owner\") */\n      tag_21\n      jumpi\n      mload(0x40)\n      0x08c379a000000000000000000000000000000000000000000000000000000000\n      dup2\n      mstore\n      0x04\n      add\n      tag_22\n      swap1\n      tag_23\n      jump\t// in\n    tag_22:\n      mload(0x40)\n      dup1\n      swap2\n      sub\n      swap1\n      revert\n    tag_21:\n        /* \"contracts/modifier.sol\":1040:1046  amount */\n      dup1\n        /* \"contracts/modifier.sol\":1015:1024  balanceOf */\n      0x00\n        /* \"contracts/modifier.sol\":1015:1036  balanceOf[msg.sender] */\n      dup1\n        /* \"contracts/modifier.sol\":1025:1035  msg.sender */\n      caller\n        /* \"contracts/modifier.sol\":1015:1036  balanceOf[msg.sender] */\n      0xffffffffffffffffffffffffffffffffffffffff\n      and\n      0xffffffffffffffffffffffffffffffffffffffff\n      and\n      dup2\n      mstore\n      0x20\n      add\n      swap1\n      dup2\n      mstore\n      0x20\n      add\n      0x00\n      keccak256\n      sload\n        /* \"contracts/modifier.sol\":1015:1046  balanceOf[msg.sender] >= amount */\n      lt\n      iszero\n        /* \"contracts/modifier.sol\":1007:1071  require(balanceOf[msg.sender] >= amount, \"Insufficient Balance\") */\n      tag_25\n      jumpi\n      mload(0x40)\n      0x08c379a000000000000000000000000000000000000000000000000000000000\n      dup2\n      mstore\n      0x04\n      add\n      tag_26\n      swap1\n      tag_27\n      jump\t// in\n    tag_26:\n      mload(0x40)\n      dup1\n      swap2\n      sub\n      swap1\n      revert\n    tag_25:\n        /* \"contracts/modifier.sol\":1136:1144  recipent */\n      dup2\n        /* \"contracts/modifier.sol\":1122:1144  msg.sender != recipent */\n      0xffffffffffffffffffffffffffffffffffffffff\n      and\n        /* \"contracts/modifier.sol\":1122:1132  msg.sender */\n      caller\n        /* \"contracts/modifier.sol\":1122:1144  msg.sender != recipent */\n      0xffffffffffffffffffffffffffffffffffffffff\n      and\n      sub\n        /* \"contracts/modifier.sol\":1114:1172  require(msg.sender != recipent, \"You can't Fund Yourself\") */\n      tag_28\n      jumpi\n      mload(0x40)\n      0x08c379a000000000000000000000000000000000000000000000000000000000\n      dup2\n      mstore\n      0x04\n      add\n      tag_29\n      swap1\n      tag_30\n      jump\t// in\n    tag_29:\n      mload(0x40)\n      dup1\n      swap2\n      sub\n      swap1\n      revert\n    tag_28:\n        /* \"contracts/modifier.sol\":1207:1233  uint senderPreviousBalance */\n      0x00\n        /* \"contracts/modifier.sol\":1236:1245  balanceOf */\n      dup1\n        /* \"contracts/modifier.sol\":1236:1257  balanceOf[msg.sender] */\n      0x00\n        /* \"contracts/modifier.sol\":1246:1256  msg.sender */\n      caller\n        /* \"contracts/modifier.sol\":1236:1257  balanceOf[msg.sender] */\n      0xffffffffffffffffffffffffffffffffffffffff\n      and\n      0xffffffffffffffffffffffffffffffffffffffff\n      and\n      dup2\n      mstore\n      0x20\n      add\n      swap1\n      dup2\n      mstore\n      0x20\n      add\n      0x00\n      keccak256\n      sload\n        /* \"contracts/modifier.sol\":1207:1257  uint senderPreviousBalance = balanceOf[msg.sender] */\n      swap1\n      pop\n        /* \"contracts/modifier.sol\":1293:1299  amount */\n      dup2\n        /* \"contracts/modifier.sol\":1268:1277  balanceOf */\n      0x00\n        /* \"contracts/modifier.sol\":1268:1289  balanceOf[msg.sender] */\n      dup1\n        /* \"contracts/modifier.sol\":1278:1288  msg.sender */\n      caller\n        /* \"contracts/modifier.sol\":1268:1289  balanceOf[msg.sender] */\n      0xffffffffffffffffffffffffffffffffffffffff\n      and\n      0xffffffffffffffffffffffffffffffffffffffff\n      and\n      dup2\n      mstore\n      0x20\n      add\n      swap1\n      dup2\n      mstore\n      0x20\n      add\n      0x00\n      keccak256\n      0x00\n        /* \"contracts/modifier.sol\":1268:1299  balanceOf[msg.sender] -= amount */\n      dup3\n      dup3\n      sload\n      tag_31\n      swap2\n      swap1\n      tag_32\n      jump\t// in\n    tag_31:\n      swap3\n      pop\n      pop\n      dup2\n      swap1\n      sstore\n      pop\n        /* \"contracts/modifier.sol\":1333:1339  amount */\n      dup2\n        /* \"contracts/modifier.sol\":1310:1319  balanceOf */\n      0x00\n        /* \"contracts/modifier.sol\":1310:1329  balanceOf[recipent] */\n      dup1\n        /* \"contracts/modifier.sol\":1320:1328  recipent */\n      dup6\n        /* \"contracts/modifier.sol\":1310:1329  balanceOf[recipent] */\n      0xffffffffffffffffffffffffffffffffffffffff\n      and\n      0xffffffffffffffffffffffffffffffffffffffff\n      and\n      dup2\n      mstore\n      0x20\n      add\n      swap1\n      dup2\n      mstore\n      0x20\n      add\n      0x00\n      keccak256\n      0x00\n        /* \"contracts/modifier.sol\":1310:1339  balanceOf[recipent] += amount */\n      dup3\n      dup3\n      sload\n      tag_33\n      swap2\n      swap1\n      tag_34\n      jump\t// in\n    tag_33:\n      swap3\n      pop\n      pop\n      dup2\n      swap1\n      sstore\n      pop\n        /* \"contracts/modifier.sol\":1406:1412  amount */\n      dup2\n        /* \"contracts/modifier.sol\":1382:1403  senderPreviousBalance */\n      dup2\n        /* \"contracts/modifier.sol\":1382:1412  senderPreviousBalance - amount */\n      tag_35\n      swap2\n      swap1\n      tag_32\n      jump\t// in\n    tag_35:\n        /* \"contracts/modifier.sol\":1357:1366  balanceOf */\n      0x00\n        /* \"contracts/modifier.sol\":1357:1378  balanceOf[msg.sender] */\n      dup1\n        /* \"contracts/modifier.sol\":1367:1377  msg.sender */\n      caller\n        /* \"contracts/modifier.sol\":1357:1378  balanceOf[msg.sender] */\n      0xffffffffffffffffffffffffffffffffffffffff\n      and\n      0xffffffffffffffffffffffffffffffffffffffff\n      and\n      dup2\n      mstore\n      0x20\n      add\n      swap1\n      dup2\n      mstore\n      0x20\n      add\n      0x00\n      keccak256\n      sload\n        /* \"contracts/modifier.sol\":1357:1412  balanceOf[msg.sender] == senderPreviousBalance - amount */\n      eq\n        /* \"contracts/modifier.sol\":1350:1413  assert(balanceOf[msg.sender] == senderPreviousBalance - amount) */\n      tag_36\n      jumpi\n      tag_37\n      tag_38\n      jump\t// in\n    tag_37:\n    tag_36:\n        /* \"contracts/modifier.sol\":996:1457  {... */\n      pop\n        /* \"contracts/modifier.sol\":930:1457  function transfer(address recipent, uint amount) public onlyOwner {... */\n      pop\n      pop\n      jump\t// out\n        /* \"contracts/modifier.sol\":560:713  function addBalance(uint _toAdd) public onlyOwner returns(uint) {... */\n    tag_17:\n        /* \"contracts/modifier.sol\":618:622  uint */\n      0x00\n        /* \"contracts/modifier.sol\":331:336  owner */\n      0x01\n      0x00\n      swap1\n      sload\n      swap1\n      0x0100\n      exp\n      swap1\n      div\n      0xffffffffffffffffffffffffffffffffffffffff\n      and\n        /* \"contracts/modifier.sol\":317:336  msg.sender == owner */\n      0xffffffffffffffffffffffffffffffffffffffff\n      and\n        /* \"contracts/modifier.sol\":317:327  msg.sender */\n      caller\n        /* \"contracts/modifier.sol\":317:336  msg.sender == owner */\n      0xffffffffffffffffffffffffffffffffffffffff\n      and\n      eq\n        /* \"contracts/modifier.sol\":309:356  require(msg.sender == owner, \"Only Bank Owner\") */\n      tag_40\n      jumpi\n      mload(0x40)\n      0x08c379a000000000000000000000000000000000000000000000000000000000\n      dup2\n      mstore\n      0x04\n      add\n      tag_41\n      swap1\n      tag_23\n      jump\t// in\n    tag_41:\n      mload(0x40)\n      dup1\n      swap2\n      sub\n      swap1\n      revert\n    tag_40:\n        /* \"contracts/modifier.sol\":660:666  _toAdd */\n      dup2\n        /* \"contracts/modifier.sol\":635:644  balanceOf */\n      0x00\n        /* \"contracts/modifier.sol\":635:656  balanceOf[msg.sender] */\n      dup1\n        /* \"contracts/modifier.sol\":645:655  msg.sender */\n      caller\n        /* \"contracts/modifier.sol\":635:656  balanceOf[msg.sender] */\n      0xffffffffffffffffffffffffffffffffffffffff\n      and\n      0xffffffffffffffffffffffffffffffffffffffff\n      and\n      dup2\n      mstore\n      0x20\n      add\n      swap1\n      dup2\n      mstore\n      0x20\n      add\n      0x00\n      keccak256\n      0x00\n        /* \"contracts/modifier.sol\":635:666  balanceOf[msg.sender] += _toAdd */\n      dup3\n      dup3\n      sload\n      tag_43\n      swap2\n      swap1\n      tag_34\n      jump\t// in\n    tag_43:\n      swap3\n      pop\n      pop\n      dup2\n      swap1\n      sstore\n      pop\n        /* \"contracts/modifier.sol\":684:693  balanceOf */\n      0x00\n        /* \"contracts/modifier.sol\":684:705  balanceOf[msg.sender] */\n      dup1\n        /* \"contracts/modifier.sol\":694:704  msg.sender */\n      caller\n        /* \"contracts/modifier.sol\":684:705  balanceOf[msg.sender] */\n      0xffffffffffffffffffffffffffffffffffffffff\n      and\n      0xffffffffffffffffffffffffffffffffffffffff\n      and\n      dup2\n      mstore\n      0x20\n      add\n      swap1\n      dup2\n      mstore\n      0x20\n      add\n      0x00\n      keccak256\n      sload\n        /* \"contracts/modifier.sol\":677:705  return balanceOf[msg.sender] */\n      swap1\n      pop\n        /* \"contracts/modifier.sol\":560:713  function addBalance(uint _toAdd) public onlyOwner returns(uint) {... */\n      swap2\n      swap1\n      pop\n      jump\t// out\n        /* \"#utility.yul\":7:84   */\n    tag_44:\n        /* \"#utility.yul\":44:51   */\n      0x00\n        /* \"#utility.yul\":73:78   */\n      dup2\n        /* \"#utility.yul\":62:78   */\n      swap1\n      pop\n        /* \"#utility.yul\":7:84   */\n      swap2\n      swap1\n      pop\n      jump\t// out\n        /* \"#utility.yul\":90:208   */\n    tag_45:\n        /* \"#utility.yul\":177:201   */\n      tag_66\n        /* \"#utility.yul\":195:200   */\n      dup2\n        /* \"#utility.yul\":177:201   */\n      tag_44\n      jump\t// in\n    tag_66:\n        /* \"#utility.yul\":172:175   */\n      dup3\n        /* \"#utility.yul\":165:202   */\n      mstore\n        /* \"#utility.yul\":90:208   */\n      pop\n      pop\n      jump\t// out\n        /* \"#utility.yul\":214:436   */\n    tag_9:\n        /* \"#utility.yul\":307:311   */\n      0x00\n        /* \"#utility.yul\":345:347   */\n      0x20\n        /* \"#utility.yul\":334:343   */\n      dup3\n        /* \"#utility.yul\":330:348   */\n      add\n        /* \"#utility.yul\":322:348   */\n      swap1\n      pop\n        /* \"#utility.yul\":358:429   */\n      tag_68\n        /* \"#utility.yul\":426:427   */\n      0x00\n        /* \"#utility.yul\":415:424   */\n      dup4\n        /* \"#utility.yul\":411:428   */\n      add\n        /* \"#utility.yul\":402:408   */\n      dup5\n        /* \"#utility.yul\":358:429   */\n      tag_45\n      jump\t// in\n    tag_68:\n        /* \"#utility.yul\":214:436   */\n      swap3\n      swap2\n      pop\n      pop\n      jump\t// out\n        /* \"#utility.yul\":523:640   */\n    tag_47:\n        /* \"#utility.yul\":632:633   */\n      0x00\n        /* \"#utility.yul\":629:630   */\n      dup1\n        /* \"#utility.yul\":622:634   */\n      revert\n        /* \"#utility.yul\":769:895   */\n    tag_49:\n        /* \"#utility.yul\":806:813   */\n      0x00\n        /* \"#utility.yul\":846:888   */\n      0xffffffffffffffffffffffffffffffffffffffff\n        /* \"#utility.yul\":839:844   */\n      dup3\n        /* \"#utility.yul\":835:889   */\n      and\n        /* \"#utility.yul\":824:889   */\n      swap1\n      pop\n        /* \"#utility.yul\":769:895   */\n      swap2\n      swap1\n      pop\n      jump\t// out\n        /* \"#utility.yul\":901:997   */\n    tag_50:\n        /* \"#utility.yul\":938:945   */\n      0x00\n        /* \"#utility.yul\":967:991   */\n      tag_74\n        /* \"#utility.yul\":985:990   */\n      dup3\n        /* \"#utility.yul\":967:991   */\n      tag_49\n      jump\t// in\n    tag_74:\n        /* \"#utility.yul\":956:991   */\n      swap1\n      pop\n        /* \"#utility.yul\":901:997   */\n      swap2\n      swap1\n      pop\n      jump\t// out\n        /* \"#utility.yul\":1003:1125   */\n    tag_51:\n        /* \"#utility.yul\":1076:1100   */\n      tag_76\n        /* \"#utility.yul\":1094:1099   */\n      dup2\n        /* \"#utility.yul\":1076:1100   */\n      tag_50\n      jump\t// in\n    tag_76:\n        /* \"#utility.yul\":1069:1074   */\n      dup2\n        /* \"#utility.yul\":1066:1101   */\n      eq\n        /* \"#utility.yul\":1056:1119   */\n      tag_77\n      jumpi\n        /* \"#utility.yul\":1115:1116   */\n      0x00\n        /* \"#utility.yul\":1112:1113   */\n      dup1\n        /* \"#utility.yul\":1105:1117   */\n      revert\n        /* \"#utility.yul\":1056:1119   */\n    tag_77:\n        /* \"#utility.yul\":1003:1125   */\n      pop\n      jump\t// out\n        /* \"#utility.yul\":1131:1270   */\n    tag_52:\n        /* \"#utility.yul\":1177:1182   */\n      0x00\n        /* \"#utility.yul\":1215:1221   */\n      dup2\n        /* \"#utility.yul\":1202:1222   */\n      calldataload\n        /* \"#utility.yul\":1193:1222   */\n      swap1\n      pop\n        /* \"#utility.yul\":1231:1264   */\n      tag_79\n        /* \"#utility.yul\":1258:1263   */\n      dup2\n        /* \"#utility.yul\":1231:1264   */\n      tag_51\n      jump\t// in\n    tag_79:\n        /* \"#utility.yul\":1131:1270   */\n      swap3\n      swap2\n      pop\n      pop\n      jump\t// out\n        /* \"#utility.yul\":1276:1398   */\n    tag_53:\n        /* \"#utility.yul\":1349:1373   */\n      tag_81\n        /* \"#utility.yul\":1367:1372   */\n      dup2\n        /* \"#utility.yul\":1349:1373   */\n      tag_44\n      jump\t// in\n    tag_81:\n        /* \"#utility.yul\":1342:1347   */\n      dup2\n        /* \"#utility.yul\":1339:1374   */\n      eq\n        /* \"#utility.yul\":1329:1392   */\n      tag_82\n      jumpi\n        /* \"#utility.yul\":1388:1389   */\n      0x00\n        /* \"#utility.yul\":1385:1386   */\n      dup1\n        /* \"#utility.yul\":1378:1390   */\n      revert\n        /* \"#utility.yul\":1329:1392   */\n    tag_82:\n        /* \"#utility.yul\":1276:1398   */\n      pop\n      jump\t// out\n        /* \"#utility.yul\":1404:1543   */\n    tag_54:\n        /* \"#utility.yul\":1450:1455   */\n      0x00\n        /* \"#utility.yul\":1488:1494   */\n      dup2\n        /* \"#utility.yul\":1475:1495   */\n      calldataload\n        /* \"#utility.yul\":1466:1495   */\n      swap1\n      pop\n        /* \"#utility.yul\":1504:1537   */\n      tag_84\n        /* \"#utility.yul\":1531:1536   */\n      dup2\n        /* \"#utility.yul\":1504:1537   */\n      tag_53\n      jump\t// in\n    tag_84:\n        /* \"#utility.yul\":1404:1543   */\n      swap3\n      swap2\n      pop\n      pop\n      jump\t// out\n        /* \"#utility.yul\":1549:2023   */\n    tag_12:\n        /* \"#utility.yul\":1617:1623   */\n      0x00\n        /* \"#utility.yul\":1625:1631   */\n      dup1\n        /* \"#utility.yul\":1674:1676   */\n      0x40\n        /* \"#utility.yul\":1662:1671   */\n      dup4\n        /* \"#utility.yul\":1653:1660   */\n      dup6\n        /* \"#utility.yul\":1649:1672   */\n      sub\n        /* \"#utility.yul\":1645:1677   */\n      slt\n        /* \"#utility.yul\":1642:1761   */\n      iszero\n      tag_86\n      jumpi\n        /* \"#utility.yul\":1680:1759   */\n      tag_87\n      tag_47\n      jump\t// in\n    tag_87:\n        /* \"#utility.yul\":1642:1761   */\n    tag_86:\n        /* \"#utility.yul\":1800:1801   */\n      0x00\n        /* \"#utility.yul\":1825:1878   */\n      tag_88\n        /* \"#utility.yul\":1870:1877   */\n      dup6\n        /* \"#utility.yul\":1861:1867   */\n      dup3\n        /* \"#utility.yul\":1850:1859   */\n      dup7\n        /* \"#utility.yul\":1846:1868   */\n      add\n        /* \"#utility.yul\":1825:1878   */\n      tag_52\n      jump\t// in\n    tag_88:\n        /* \"#utility.yul\":1815:1878   */\n      swap3\n      pop\n        /* \"#utility.yul\":1771:1888   */\n      pop\n        /* \"#utility.yul\":1927:1929   */\n      0x20\n        /* \"#utility.yul\":1953:2006   */\n      tag_89\n        /* \"#utility.yul\":1998:2005   */\n      dup6\n        /* \"#utility.yul\":1989:1995   */\n      dup3\n        /* \"#utility.yul\":1978:1987   */\n      dup7\n        /* \"#utility.yul\":1974:1996   */\n      add\n        /* \"#utility.yul\":1953:2006   */\n      tag_54\n      jump\t// in\n    tag_89:\n        /* \"#utility.yul\":1943:2006   */\n      swap2\n      pop\n        /* \"#utility.yul\":1898:2016   */\n      pop\n        /* \"#utility.yul\":1549:2023   */\n      swap3\n      pop\n      swap3\n      swap1\n      pop\n      jump\t// out\n        /* \"#utility.yul\":2029:2358   */\n    tag_16:\n        /* \"#utility.yul\":2088:2094   */\n      0x00\n        /* \"#utility.yul\":2137:2139   */\n      0x20\n        /* \"#utility.yul\":2125:2134   */\n      dup3\n        /* \"#utility.yul\":2116:2123   */\n      dup5\n        /* \"#utility.yul\":2112:2135   */\n      sub\n        /* \"#utility.yul\":2108:2140   */\n      slt\n        /* \"#utility.yul\":2105:2224   */\n      iszero\n      tag_91\n      jumpi\n        /* \"#utility.yul\":2143:2222   */\n      tag_92\n      tag_47\n      jump\t// in\n    tag_92:\n        /* \"#utility.yul\":2105:2224   */\n    tag_91:\n        /* \"#utility.yul\":2263:2264   */\n      0x00\n        /* \"#utility.yul\":2288:2341   */\n      tag_93\n        /* \"#utility.yul\":2333:2340   */\n      dup5\n        /* \"#utility.yul\":2324:2330   */\n      dup3\n        /* \"#utility.yul\":2313:2322   */\n      dup6\n        /* \"#utility.yul\":2309:2331   */\n      add\n        /* \"#utility.yul\":2288:2341   */\n      tag_54\n      jump\t// in\n    tag_93:\n        /* \"#utility.yul\":2278:2341   */\n      swap2\n      pop\n        /* \"#utility.yul\":2234:2351   */\n      pop\n        /* \"#utility.yul\":2029:2358   */\n      swap3\n      swap2\n      pop\n      pop\n      jump\t// out\n        /* \"#utility.yul\":2364:2533   */\n    tag_55:\n        /* \"#utility.yul\":2448:2459   */\n      0x00\n        /* \"#utility.yul\":2482:2488   */\n      dup3\n        /* \"#utility.yul\":2477:2480   */\n      dup3\n        /* \"#utility.yul\":2470:2489   */\n      mstore\n        /* \"#utility.yul\":2522:2526   */\n      0x20\n        /* \"#utility.yul\":2517:2520   */\n      dup3\n        /* \"#utility.yul\":2513:2527   */\n      add\n        /* \"#utility.yul\":2498:2527   */\n      swap1\n      pop\n        /* \"#utility.yul\":2364:2533   */\n      swap3\n      swap2\n      pop\n      pop\n      jump\t// out\n        /* \"#utility.yul\":2539:2704   */\n    tag_56:\n        /* \"#utility.yul\":2679:2696   */\n      0x4f6e6c792042616e6b204f776e65720000000000000000000000000000000000\n        /* \"#utility.yul\":2675:2676   */\n      0x00\n        /* \"#utility.yul\":2667:2673   */\n      dup3\n        /* \"#utility.yul\":2663:2677   */\n      add\n        /* \"#utility.yul\":2656:2697   */\n      mstore\n        /* \"#utility.yul\":2539:2704   */\n      pop\n      jump\t// out\n        /* \"#utility.yul\":2710:3076   */\n    tag_57:\n        /* \"#utility.yul\":2852:2855   */\n      0x00\n        /* \"#utility.yul\":2873:2940   */\n      tag_97\n        /* \"#utility.yul\":2937:2939   */\n      0x0f\n        /* \"#utility.yul\":2932:2935   */\n      dup4\n        /* \"#utility.yul\":2873:2940   */\n      tag_55\n      jump\t// in\n    tag_97:\n        /* \"#utility.yul\":2866:2940   */\n      swap2\n      pop\n        /* \"#utility.yul\":2949:3042   */\n      tag_98\n        /* \"#utility.yul\":3038:3041   */\n      dup3\n        /* \"#utility.yul\":2949:3042   */\n      tag_56\n      jump\t// in\n    tag_98:\n        /* \"#utility.yul\":3067:3069   */\n      0x20\n        /* \"#utility.yul\":3062:3065   */\n      dup3\n        /* \"#utility.yul\":3058:3070   */\n      add\n        /* \"#utility.yul\":3051:3070   */\n      swap1\n      pop\n        /* \"#utility.yul\":2710:3076   */\n      swap2\n      swap1\n      pop\n      jump\t// out\n        /* \"#utility.yul\":3082:3501   */\n    tag_23:\n        /* \"#utility.yul\":3248:3252   */\n      0x00\n        /* \"#utility.yul\":3286:3288   */\n      0x20\n        /* \"#utility.yul\":3275:3284   */\n      dup3\n        /* \"#utility.yul\":3271:3289   */\n      add\n        /* \"#utility.yul\":3263:3289   */\n      swap1\n      pop\n        /* \"#utility.yul\":3335:3344   */\n      dup2\n        /* \"#utility.yul\":3329:3333   */\n      dup2\n        /* \"#utility.yul\":3325:3345   */\n      sub\n        /* \"#utility.yul\":3321:3322   */\n      0x00\n        /* \"#utility.yul\":3310:3319   */\n      dup4\n        /* \"#utility.yul\":3306:3323   */\n      add\n        /* \"#utility.yul\":3299:3346   */\n      mstore\n        /* \"#utility.yul\":3363:3494   */\n      tag_100\n        /* \"#utility.yul\":3489:3493   */\n      dup2\n        /* \"#utility.yul\":3363:3494   */\n      tag_57\n      jump\t// in\n    tag_100:\n        /* \"#utility.yul\":3355:3494   */\n      swap1\n      pop\n        /* \"#utility.yul\":3082:3501   */\n      swap2\n      swap1\n      pop\n      jump\t// out\n        /* \"#utility.yul\":3507:3677   */\n    tag_58:\n        /* \"#utility.yul\":3647:3669   */\n      0x496e73756666696369656e742042616c616e6365000000000000000000000000\n        /* \"#utility.yul\":3643:3644   */\n      0x00\n        /* \"#utility.yul\":3635:3641   */\n      dup3\n        /* \"#utility.yul\":3631:3645   */\n      add\n        /* \"#utility.yul\":3624:3670   */\n      mstore\n        /* \"#utility.yul\":3507:3677   */\n      pop\n      jump\t// out\n        /* \"#utility.yul\":3683:4049   */\n    tag_59:\n        /* \"#utility.yul\":3825:3828   */\n      0x00\n        /* \"#utility.yul\":3846:3913   */\n      tag_103\n        /* \"#utility.yul\":3910:3912   */\n      0x14\n        /* \"#utility.yul\":3905:3908   */\n      dup4\n        /* \"#utility.yul\":3846:3913   */\n      tag_55\n      jump\t// in\n    tag_103:\n        /* \"#utility.yul\":3839:3913   */\n      swap2\n      pop\n        /* \"#utility.yul\":3922:4015   */\n      tag_104\n        /* \"#utility.yul\":4011:4014   */\n      dup3\n        /* \"#utility.yul\":3922:4015   */\n      tag_58\n      jump\t// in\n    tag_104:\n        /* \"#utility.yul\":4040:4042   */\n      0x20\n        /* \"#utility.yul\":4035:4038   */\n      dup3\n        /* \"#utility.yul\":4031:4043   */\n      add\n        /* \"#utility.yul\":4024:4043   */\n      swap1\n      pop\n        /* \"#utility.yul\":3683:4049   */\n      swap2\n      swap1\n      pop\n      jump\t// out\n        /* \"#utility.yul\":4055:4474   */\n    tag_27:\n        /* \"#utility.yul\":4221:4225   */\n      0x00\n        /* \"#utility.yul\":4259:4261   */\n      0x20\n        /* \"#utility.yul\":4248:4257   */\n      dup3\n        /* \"#utility.yul\":4244:4262   */\n      add\n        /* \"#utility.yul\":4236:4262   */\n      swap1\n      pop\n        /* \"#utility.yul\":4308:4317   */\n      dup2\n        /* \"#utility.yul\":4302:4306   */\n      dup2\n        /* \"#utility.yul\":4298:4318   */\n      sub\n        /* \"#utility.yul\":4294:4295   */\n      0x00\n        /* \"#utility.yul\":4283:4292   */\n      dup4\n        /* \"#utility.yul\":4279:4296   */\n      add\n        /* \"#utility.yul\":4272:4319   */\n      mstore\n        /* \"#utility.yul\":4336:4467   */\n      tag_106\n        /* \"#utility.yul\":4462:4466   */\n      dup2\n        /* \"#utility.yul\":4336:4467   */\n      tag_59\n      jump\t// in\n    tag_106:\n        /* \"#utility.yul\":4328:4467   */\n      swap1\n      pop\n        /* \"#utility.yul\":4055:4474   */\n      swap2\n      swap1\n      pop\n      jump\t// out\n        /* \"#utility.yul\":4480:4653   */\n    tag_60:\n        /* \"#utility.yul\":4620:4645   */\n      0x596f752063616e27742046756e6420596f757273656c66000000000000000000\n        /* \"#utility.yul\":4616:4617   */\n      0x00\n        /* \"#utility.yul\":4608:4614   */\n      dup3\n        /* \"#utility.yul\":4604:4618   */\n      add\n        /* \"#utility.yul\":4597:4646   */\n      mstore\n        /* \"#utility.yul\":4480:4653   */\n      pop\n      jump\t// out\n        /* \"#utility.yul\":4659:5025   */\n    tag_61:\n        /* \"#utility.yul\":4801:4804   */\n      0x00\n        /* \"#utility.yul\":4822:4889   */\n      tag_109\n        /* \"#utility.yul\":4886:4888   */\n      0x17\n        /* \"#utility.yul\":4881:4884   */\n      dup4\n        /* \"#utility.yul\":4822:4889   */\n      tag_55\n      jump\t// in\n    tag_109:\n        /* \"#utility.yul\":4815:4889   */\n      swap2\n      pop\n        /* \"#utility.yul\":4898:4991   */\n      tag_110\n        /* \"#utility.yul\":4987:4990   */\n      dup3\n        /* \"#utility.yul\":4898:4991   */\n      tag_60\n      jump\t// in\n    tag_110:\n        /* \"#utility.yul\":5016:5018   */\n      0x20\n        /* \"#utility.yul\":5011:5014   */\n      dup3\n        /* \"#utility.yul\":5007:5019   */\n      add\n        /* \"#utility.yul\":5000:5019   */\n      swap1\n      pop\n        /* \"#utility.yul\":4659:5025   */\n      swap2\n      swap1\n      pop\n      jump\t// out\n        /* \"#utility.yul\":5031:5450   */\n    tag_30:\n        /* \"#utility.yul\":5197:5201   */\n      0x00\n        /* \"#utility.yul\":5235:5237   */\n      0x20\n        /* \"#utility.yul\":5224:5233   */\n      dup3\n        /* \"#utility.yul\":5220:5238   */\n      add\n        /* \"#utility.yul\":5212:5238   */\n      swap1\n      pop\n        /* \"#utility.yul\":5284:5293   */\n      dup2\n        /* \"#utility.yul\":5278:5282   */\n      dup2\n        /* \"#utility.yul\":5274:5294   */\n      sub\n        /* \"#utility.yul\":5270:5271   */\n      0x00\n        /* \"#utility.yul\":5259:5268   */\n      dup4\n        /* \"#utility.yul\":5255:5272   */\n      add\n        /* \"#utility.yul\":5248:5295   */\n      mstore\n        /* \"#utility.yul\":5312:5443   */\n      tag_112\n        /* \"#utility.yul\":5438:5442   */\n      dup2\n        /* \"#utility.yul\":5312:5443   */\n      tag_61\n      jump\t// in\n    tag_112:\n        /* \"#utility.yul\":5304:5443   */\n      swap1\n      pop\n        /* \"#utility.yul\":5031:5450   */\n      swap2\n      swap1\n      pop\n      jump\t// out\n        /* \"#utility.yul\":5456:5636   */\n    tag_62:\n        /* \"#utility.yul\":5504:5581   */\n      0x4e487b7100000000000000000000000000000000000000000000000000000000\n        /* \"#utility.yul\":5501:5502   */\n      0x00\n        /* \"#utility.yul\":5494:5582   */\n      mstore\n        /* \"#utility.yul\":5601:5605   */\n      0x11\n        /* \"#utility.yul\":5598:5599   */\n      0x04\n        /* \"#utility.yul\":5591:5606   */\n      mstore\n        /* \"#utility.yul\":5625:5629   */\n      0x24\n        /* \"#utility.yul\":5622:5623   */\n      0x00\n        /* \"#utility.yul\":5615:5630   */\n      revert\n        /* \"#utility.yul\":5642:5836   */\n    tag_32:\n        /* \"#utility.yul\":5682:5686   */\n      0x00\n        /* \"#utility.yul\":5702:5722   */\n      tag_115\n        /* \"#utility.yul\":5720:5721   */\n      dup3\n        /* \"#utility.yul\":5702:5722   */\n      tag_44\n      jump\t// in\n    tag_115:\n        /* \"#utility.yul\":5697:5722   */\n      swap2\n      pop\n        /* \"#utility.yul\":5736:5756   */\n      tag_116\n        /* \"#utility.yul\":5754:5755   */\n      dup4\n        /* \"#utility.yul\":5736:5756   */\n      tag_44\n      jump\t// in\n    tag_116:\n        /* \"#utility.yul\":5731:5756   */\n      swap3\n      pop\n        /* \"#utility.yul\":5780:5781   */\n      dup3\n        /* \"#utility.yul\":5777:5778   */\n      dup3\n        /* \"#utility.yul\":5773:5782   */\n      sub\n        /* \"#utility.yul\":5765:5782   */\n      swap1\n      pop\n        /* \"#utility.yul\":5804:5805   */\n      dup2\n        /* \"#utility.yul\":5798:5802   */\n      dup2\n        /* \"#utility.yul\":5795:5806   */\n      gt\n        /* \"#utility.yul\":5792:5829   */\n      iszero\n      tag_117\n      jumpi\n        /* \"#utility.yul\":5809:5827   */\n      tag_118\n      tag_62\n      jump\t// in\n    tag_118:\n        /* \"#utility.yul\":5792:5829   */\n    tag_117:\n        /* \"#utility.yul\":5642:5836   */\n      swap3\n      swap2\n      pop\n      pop\n      jump\t// out\n        /* \"#utility.yul\":5842:6033   */\n    tag_34:\n        /* \"#utility.yul\":5882:5885   */\n      0x00\n        /* \"#utility.yul\":5901:5921   */\n      tag_120\n        /* \"#utility.yul\":5919:5920   */\n      dup3\n        /* \"#utility.yul\":5901:5921   */\n      tag_44\n      jump\t// in\n    tag_120:\n        /* \"#utility.yul\":5896:5921   */\n      swap2\n      pop\n        /* \"#utility.yul\":5935:5955   */\n      tag_121\n        /* \"#utility.yul\":5953:5954   */\n      dup4\n        /* \"#utility.yul\":5935:5955   */\n      tag_44\n      jump\t// in\n    tag_121:\n        /* \"#utility.yul\":5930:5955   */\n      swap3\n      pop\n        /* \"#utility.yul\":5978:5979   */\n      dup3\n        /* \"#utility.yul\":5975:5976   */\n      dup3\n        /* \"#utility.yul\":5971:5980   */\n      add\n        /* \"#utility.yul\":5964:5980   */\n      swap1\n      pop\n        /* \"#utility.yul\":5999:6002   */\n      dup1\n        /* \"#utility.yul\":5996:5997   */\n      dup3\n        /* \"#utility.yul\":5993:6003   */\n      gt\n        /* \"#utility.yul\":5990:6026   */\n      iszero\n      tag_122\n      jumpi\n        /* \"#utility.yul\":6006:6024   */\n      tag_123\n      tag_62\n      jump\t// in\n    tag_123:\n        /* \"#utility.yul\":5990:6026   */\n    tag_122:\n        /* \"#utility.yul\":5842:6033   */\n      swap3\n      swap2\n      pop\n      pop\n      jump\t// out\n        /* \"#utility.yul\":6039:6219   */\n    tag_38:\n        /* \"#utility.yul\":6087:6164   */\n      0x4e487b7100000000000000000000000000000000000000000000000000000000\n        /* \"#utility.yul\":6084:6085   */\n      0x00\n        /* \"#utility.yul\":6077:6165   */\n      mstore\n        /* \"#utility.yul\":6184:6188   */\n      0x01\n        /* \"#utility.yul\":6181:6182   */\n      0x04\n        /* \"#utility.yul\":6174:6189   */\n      mstore\n        /* \"#utility.yul\":6208:6212   */\n      0x24\n        /* \"#utility.yul\":6205:6206   */\n      0x00\n        /* \"#utility.yul\":6198:6213   */\n      revert\n\n    auxdata: 0xa2646970667358221220fd8a7067143df56aef794dafa4bc2c998cea4c5819ee13fe36336a5a780589e164736f6c634300081a0033\n}\n",
				"bytecode": {
					"linkReferences": {},
					"object": "6080604052348015600e575f80fd5b503360015f6101000a81548173ffffffffffffffffffffffffffffffffffffffff021916908373ffffffffffffffffffffffffffffffffffffffff1602179055506108328061005c5f395ff3fe608060405234801561000f575f80fd5b506004361061003f575f3560e01c806312065fe014610043578063a9059cbb14610061578063d91921ed1461007d575b5f80fd5b61004b6100ad565b60405161005891906104ea565b60405180910390f35b61007b6004803603810190610076919061058b565b6100f0565b005b610097600480360381019061009291906105c9565b6103ac565b6040516100a491906104ea565b60405180910390f35b5f805f3373ffffffffffffffffffffffffffffffffffffffff1673ffffffffffffffffffffffffffffffffffffffff1681526020019081526020015f2054905090565b60015f9054906101000a900473ffffffffffffffffffffffffffffffffffffffff1673ffffffffffffffffffffffffffffffffffffffff163373ffffffffffffffffffffffffffffffffffffffff161461017f576040517f08c379a00000000000000000000000000000000000000000000000000000000081526004016101769061064e565b60405180910390fd5b805f803373ffffffffffffffffffffffffffffffffffffffff1673ffffffffffffffffffffffffffffffffffffffff1681526020019081526020015f205410156101fe576040517f08c379a00000000000000000000000000000000000000000000000000000000081526004016101f5906106b6565b60405180910390fd5b8173ffffffffffffffffffffffffffffffffffffffff163373ffffffffffffffffffffffffffffffffffffffff160361026c576040517f08c379a00000000000000000000000000000000000000000000000000000000081526004016102639061071e565b60405180910390fd5b5f805f3373ffffffffffffffffffffffffffffffffffffffff1673ffffffffffffffffffffffffffffffffffffffff1681526020019081526020015f20549050815f803373ffffffffffffffffffffffffffffffffffffffff1673ffffffffffffffffffffffffffffffffffffffff1681526020019081526020015f205f8282546102f79190610769565b92505081905550815f808573ffffffffffffffffffffffffffffffffffffffff1673ffffffffffffffffffffffffffffffffffffffff1681526020019081526020015f205f828254610349919061079c565b92505081905550818161035c9190610769565b5f803373ffffffffffffffffffffffffffffffffffffffff1673ffffffffffffffffffffffffffffffffffffffff1681526020019081526020015f2054146103a7576103a66107cf565b5b505050565b5f60015f9054906101000a900473ffffffffffffffffffffffffffffffffffffffff1673ffffffffffffffffffffffffffffffffffffffff163373ffffffffffffffffffffffffffffffffffffffff161461043c576040517f08c379a00000000000000000000000000000000000000000000000000000000081526004016104339061064e565b60405180910390fd5b815f803373ffffffffffffffffffffffffffffffffffffffff1673ffffffffffffffffffffffffffffffffffffffff1681526020019081526020015f205f828254610487919061079c565b925050819055505f803373ffffffffffffffffffffffffffffffffffffffff1673ffffffffffffffffffffffffffffffffffffffff1681526020019081526020015f20549050919050565b5f819050919050565b6104e4816104d2565b82525050565b5f6020820190506104fd5f8301846104db565b92915050565b5f80fd5b5f73ffffffffffffffffffffffffffffffffffffffff82169050919050565b5f61053082610507565b9050919050565b61054081610526565b811461054a575f80fd5b50565b5f8135905061055b81610537565b92915050565b61056a816104d2565b8114610574575f80fd5b50565b5f8135905061058581610561565b92915050565b5f80604083850312156105a1576105a0610503565b5b5f6105ae8582860161054d565b92505060206105bf85828601610577565b9150509250929050565b5f602082840312156105de576105dd610503565b5b5f6105eb84828501610577565b91505092915050565b5f82825260208201905092915050565b7f4f6e6c792042616e6b204f776e657200000000000000000000000000000000005f82015250565b5f610638600f836105f4565b915061064382610604565b602082019050919050565b5f6020820190508181035f8301526106658161062c565b9050919050565b7f496e73756666696369656e742042616c616e63650000000000000000000000005f82015250565b5f6106a06014836105f4565b91506106ab8261066c565b602082019050919050565b5f6020820190508181035f8301526106cd81610694565b9050919050565b7f596f752063616e27742046756e6420596f757273656c660000000000000000005f82015250565b5f6107086017836105f4565b9150610713826106d4565b602082019050919050565b5f6020820190508181035f830152610735816106fc565b9050919050565b7f4e487b71000000000000000000000000000000000000000000000000000000005f52601160045260245ffd5b5f610773826104d2565b915061077e836104d2565b92508282039050818111156107965761079561073c565b5b92915050565b5f6107a6826104d2565b91506107b1836104d2565b92508282019050808211156107c9576107c861073c565b5b92915050565b7f4e487b71000000000000000000000000000000000000000000000000000000005f52600160045260245ffdfea2646970667358221220fd8a7067143df56aef794dafa4bc2c998cea4c5819ee13fe36336a5a780589e164736f6c634300081a0033",
					"opcodes": "PUSH1 0x80 PUSH1 0x40 MSTORE CALLVALUE DUP1 ISZERO PUSH1 0xE JUMPI PUSH0 DUP1 REVERT JUMPDEST POP CALLER PUSH1 0x1 PUSH0 PUSH2 0x100 EXP DUP2 SLOAD DUP2 PUSH20 0xFFFFFFFFFFFFFFFFFFFFFFFFFFFFFFFFFFFFFFFF MUL NOT AND SWAP1 DUP4 PUSH20 0xFFFFFFFFFFFFFFFFFFFFFFFFFFFFFFFFFFFFFFFF AND MUL OR SWAP1 SSTORE POP PUSH2 0x832 DUP1 PUSH2 0x5C PUSH0 CODECOPY PUSH0 RETURN INVALID PUSH1 0x80 PUSH1 0x40 MSTORE CALLVALUE DUP1 ISZERO PUSH2 0xF JUMPI PUSH0 DUP1 REVERT JUMPDEST POP PUSH1 0x4 CALLDATASIZE LT PUSH2 0x3F JUMPI PUSH0 CALLDATALOAD PUSH1 0xE0 SHR DUP1 PUSH4 0x12065FE0 EQ PUSH2 0x43 JUMPI DUP1 PUSH4 0xA9059CBB EQ PUSH2 0x61 JUMPI DUP1 PUSH4 0xD91921ED EQ PUSH2 0x7D JUMPI JUMPDEST PUSH0 DUP1 REVERT JUMPDEST PUSH2 0x4B PUSH2 0xAD JUMP JUMPDEST PUSH1 0x40 MLOAD PUSH2 0x58 SWAP2 SWAP1 PUSH2 0x4EA JUMP JUMPDEST PUSH1 0x40 MLOAD DUP1 SWAP2 SUB SWAP1 RETURN JUMPDEST PUSH2 0x7B PUSH1 0x4 DUP1 CALLDATASIZE SUB DUP2 ADD SWAP1 PUSH2 0x76 SWAP2 SWAP1 PUSH2 0x58B JUMP JUMPDEST PUSH2 0xF0 JUMP JUMPDEST STOP JUMPDEST PUSH2 0x97 PUSH1 0x4 DUP1 CALLDATASIZE SUB DUP2 ADD SWAP1 PUSH2 0x92 SWAP2 SWAP1 PUSH2 0x5C9 JUMP JUMPDEST PUSH2 0x3AC JUMP JUMPDEST PUSH1 0x40 MLOAD PUSH2 0xA4 SWAP2 SWAP1 PUSH2 0x4EA JUMP JUMPDEST PUSH1 0x40 MLOAD DUP1 SWAP2 SUB SWAP1 RETURN JUMPDEST PUSH0 DUP1 PUSH0 CALLER PUSH20 0xFFFFFFFFFFFFFFFFFFFFFFFFFFFFFFFFFFFFFFFF AND PUSH20 0xFFFFFFFFFFFFFFFFFFFFFFFFFFFFFFFFFFFFFFFF AND DUP2 MSTORE PUSH1 0x20 ADD SWAP1 DUP2 MSTORE PUSH1 0x20 ADD PUSH0 KECCAK256 SLOAD SWAP1 POP SWAP1 JUMP JUMPDEST PUSH1 0x1 PUSH0 SWAP1 SLOAD SWAP1 PUSH2 0x100 EXP SWAP1 DIV PUSH20 0xFFFFFFFFFFFFFFFFFFFFFFFFFFFFFFFFFFFFFFFF AND PUSH20 0xFFFFFFFFFFFFFFFFFFFFFFFFFFFFFFFFFFFFFFFF AND CALLER PUSH20 0xFFFFFFFFFFFFFFFFFFFFFFFFFFFFFFFFFFFFFFFF AND EQ PUSH2 0x17F JUMPI PUSH1 0x40 MLOAD PUSH32 0x8C379A000000000000000000000000000000000000000000000000000000000 DUP2 MSTORE PUSH1 0x4 ADD PUSH2 0x176 SWAP1 PUSH2 0x64E JUMP JUMPDEST PUSH1 0x40 MLOAD DUP1 SWAP2 SUB SWAP1 REVERT JUMPDEST DUP1 PUSH0 DUP1 CALLER PUSH20 0xFFFFFFFFFFFFFFFFFFFFFFFFFFFFFFFFFFFFFFFF AND PUSH20 0xFFFFFFFFFFFFFFFFFFFFFFFFFFFFFFFFFFFFFFFF AND DUP2 MSTORE PUSH1 0x20 ADD SWAP1 DUP2 MSTORE PUSH1 0x20 ADD PUSH0 KECCAK256 SLOAD LT ISZERO PUSH2 0x1FE JUMPI PUSH1 0x40 MLOAD PUSH32 0x8C379A000000000000000000000000000000000000000000000000000000000 DUP2 MSTORE PUSH1 0x4 ADD PUSH2 0x1F5 SWAP1 PUSH2 0x6B6 JUMP JUMPDEST PUSH1 0x40 MLOAD DUP1 SWAP2 SUB SWAP1 REVERT JUMPDEST DUP2 PUSH20 0xFFFFFFFFFFFFFFFFFFFFFFFFFFFFFFFFFFFFFFFF AND CALLER PUSH20 0xFFFFFFFFFFFFFFFFFFFFFFFFFFFFFFFFFFFFFFFF AND SUB PUSH2 0x26C JUMPI PUSH1 0x40 MLOAD PUSH32 0x8C379A000000000000000000000000000000000000000000000000000000000 DUP2 MSTORE PUSH1 0x4 ADD PUSH2 0x263 SWAP1 PUSH2 0x71E JUMP JUMPDEST PUSH1 0x40 MLOAD DUP1 SWAP2 SUB SWAP1 REVERT JUMPDEST PUSH0 DUP1 PUSH0 CALLER PUSH20 0xFFFFFFFFFFFFFFFFFFFFFFFFFFFFFFFFFFFFFFFF AND PUSH20 0xFFFFFFFFFFFFFFFFFFFFFFFFFFFFFFFFFFFFFFFF AND DUP2 MSTORE PUSH1 0x20 ADD SWAP1 DUP2 MSTORE PUSH1 0x20 ADD PUSH0 KECCAK256 SLOAD SWAP1 POP DUP2 PUSH0 DUP1 CALLER PUSH20 0xFFFFFFFFFFFFFFFFFFFFFFFFFFFFFFFFFFFFFFFF AND PUSH20 0xFFFFFFFFFFFFFFFFFFFFFFFFFFFFFFFFFFFFFFFF AND DUP2 MSTORE PUSH1 0x20 ADD SWAP1 DUP2 MSTORE PUSH1 0x20 ADD PUSH0 KECCAK256 PUSH0 DUP3 DUP3 SLOAD PUSH2 0x2F7 SWAP2 SWAP1 PUSH2 0x769 JUMP JUMPDEST SWAP3 POP POP DUP2 SWAP1 SSTORE POP DUP2 PUSH0 DUP1 DUP6 PUSH20 0xFFFFFFFFFFFFFFFFFFFFFFFFFFFFFFFFFFFFFFFF AND PUSH20 0xFFFFFFFFFFFFFFFFFFFFFFFFFFFFFFFFFFFFFFFF AND DUP2 MSTORE PUSH1 0x20 ADD SWAP1 DUP2 MSTORE PUSH1 0x20 ADD PUSH0 KECCAK256 PUSH0 DUP3 DUP3 SLOAD PUSH2 0x349 SWAP2 SWAP1 PUSH2 0x79C JUMP JUMPDEST SWAP3 POP POP DUP2 SWAP1 SSTORE POP DUP2 DUP2 PUSH2 0x35C SWAP2 SWAP1 PUSH2 0x769 JUMP JUMPDEST PUSH0 DUP1 CALLER PUSH20 0xFFFFFFFFFFFFFFFFFFFFFFFFFFFFFFFFFFFFFFFF AND PUSH20 0xFFFFFFFFFFFFFFFFFFFFFFFFFFFFFFFFFFFFFFFF AND DUP2 MSTORE PUSH1 0x20 ADD SWAP1 DUP2 MSTORE PUSH1 0x20 ADD PUSH0 KECCAK256 SLOAD EQ PUSH2 0x3A7 JUMPI PUSH2 0x3A6 PUSH2 0x7CF JUMP JUMPDEST JUMPDEST POP POP POP JUMP JUMPDEST PUSH0 PUSH1 0x1 PUSH0 SWAP1 SLOAD SWAP1 PUSH2 0x100 EXP SWAP1 DIV PUSH20 0xFFFFFFFFFFFFFFFFFFFFFFFFFFFFFFFFFFFFFFFF AND PUSH20 0xFFFFFFFFFFFFFFFFFFFFFFFFFFFFFFFFFFFFFFFF AND CALLER PUSH20 0xFFFFFFFFFFFFFFFFFFFFFFFFFFFFFFFFFFFFFFFF AND EQ PUSH2 0x43C JUMPI PUSH1 0x40 MLOAD PUSH32 0x8C379A000000000000000000000000000000000000000000000000000000000 DUP2 MSTORE PUSH1 0x4 ADD PUSH2 0x433 SWAP1 PUSH2 0x64E JUMP JUMPDEST PUSH1 0x40 MLOAD DUP1 SWAP2 SUB SWAP1 REVERT JUMPDEST DUP2 PUSH0 DUP1 CALLER PUSH20 0xFFFFFFFFFFFFFFFFFFFFFFFFFFFFFFFFFFFFFFFF AND PUSH20 0xFFFFFFFFFFFFFFFFFFFFFFFFFFFFFFFFFFFFFFFF AND DUP2 MSTORE PUSH1 0x20 ADD SWAP1 DUP2 MSTORE PUSH1 0x20 ADD PUSH0 KECCAK256 PUSH0 DUP3 DUP3 SLOAD PUSH2 0x487 SWAP2 SWAP1 PUSH2 0x79C JUMP JUMPDEST SWAP3 POP POP DUP2 SWAP1 SSTORE POP PUSH0 DUP1 CALLER PUSH20 0xFFFFFFFFFFFFFFFFFFFFFFFFFFFFFFFFFFFFFFFF AND PUSH20 0xFFFFFFFFFFFFFFFFFFFFFFFFFFFFFFFFFFFFFFFF AND DUP2 MSTORE PUSH1 0x20 ADD SWAP1 DUP2 MSTORE PUSH1 0x20 ADD PUSH0 KECCAK256 SLOAD SWAP1 POP SWAP2 SWAP1 POP JUMP JUMPDEST PUSH0 DUP2 SWAP1 POP SWAP2 SWAP1 POP JUMP JUMPDEST PUSH2 0x4E4 DUP2 PUSH2 0x4D2 JUMP JUMPDEST DUP3 MSTORE POP POP JUMP JUMPDEST PUSH0 PUSH1 0x20 DUP3 ADD SWAP1 POP PUSH2 0x4FD PUSH0 DUP4 ADD DUP5 PUSH2 0x4DB JUMP JUMPDEST SWAP3 SWAP2 POP POP JUMP JUMPDEST PUSH0 DUP1 REVERT JUMPDEST PUSH0 PUSH20 0xFFFFFFFFFFFFFFFFFFFFFFFFFFFFFFFFFFFFFFFF DUP3 AND SWAP1 POP SWAP2 SWAP1 POP JUMP JUMPDEST PUSH0 PUSH2 0x530 DUP3 PUSH2 0x507 JUMP JUMPDEST SWAP1 POP SWAP2 SWAP1 POP JUMP JUMPDEST PUSH2 0x540 DUP2 PUSH2 0x526 JUMP JUMPDEST DUP2 EQ PUSH2 0x54A JUMPI PUSH0 DUP1 REVERT JUMPDEST POP JUMP JUMPDEST PUSH0 DUP2 CALLDATALOAD SWAP1 POP PUSH2 0x55B DUP2 PUSH2 0x537 JUMP JUMPDEST SWAP3 SWAP2 POP POP JUMP JUMPDEST PUSH2 0x56A DUP2 PUSH2 0x4D2 JUMP JUMPDEST DUP2 EQ PUSH2 0x574 JUMPI PUSH0 DUP1 REVERT JUMPDEST POP JUMP JUMPDEST PUSH0 DUP2 CALLDATALOAD SWAP1 POP PUSH2 0x585 DUP2 PUSH2 0x561 JUMP JUMPDEST SWAP3 SWAP2 POP POP JUMP JUMPDEST PUSH0 DUP1 PUSH1 0x40 DUP4 DUP6 SUB SLT ISZERO PUSH2 0x5A1 JUMPI PUSH2 0x5A0 PUSH2 0x503 JUMP JUMPDEST JUMPDEST PUSH0 PUSH2 0x5AE DUP6 DUP3 DUP7 ADD PUSH2 0x54D JUMP JUMPDEST SWAP3 POP POP PUSH1 0x20 PUSH2 0x5BF DUP6 DUP3 DUP7 ADD PUSH2 0x577 JUMP JUMPDEST SWAP2 POP POP SWAP3 POP SWAP3 SWAP1 POP JUMP JUMPDEST PUSH0 PUSH1 0x20 DUP3 DUP5 SUB SLT ISZERO PUSH2 0x5DE JUMPI PUSH2 0x5DD PUSH2 0x503 JUMP JUMPDEST JUMPDEST PUSH0 PUSH2 0x5EB DUP5 DUP3 DUP6 ADD PUSH2 0x577 JUMP JUMPDEST SWAP2 POP POP SWAP3 SWAP2 POP POP JUMP JUMPDEST PUSH0 DUP3 DUP3 MSTORE PUSH1 0x20 DUP3 ADD SWAP1 POP SWAP3 SWAP2 POP POP JUMP JUMPDEST PUSH32 0x4F6E6C792042616E6B204F776E65720000000000000000000000000000000000 PUSH0 DUP3 ADD MSTORE POP JUMP JUMPDEST PUSH0 PUSH2 0x638 PUSH1 0xF DUP4 PUSH2 0x5F4 JUMP JUMPDEST SWAP2 POP PUSH2 0x643 DUP3 PUSH2 0x604 JUMP JUMPDEST PUSH1 0x20 DUP3 ADD SWAP1 POP SWAP2 SWAP1 POP JUMP JUMPDEST PUSH0 PUSH1 0x20 DUP3 ADD SWAP1 POP DUP2 DUP2 SUB PUSH0 DUP4 ADD MSTORE PUSH2 0x665 DUP2 PUSH2 0x62C JUMP JUMPDEST SWAP1 POP SWAP2 SWAP1 POP JUMP JUMPDEST PUSH32 0x496E73756666696369656E742042616C616E6365000000000000000000000000 PUSH0 DUP3 ADD MSTORE POP JUMP JUMPDEST PUSH0 PUSH2 0x6A0 PUSH1 0x14 DUP4 PUSH2 0x5F4 JUMP JUMPDEST SWAP2 POP PUSH2 0x6AB DUP3 PUSH2 0x66C JUMP JUMPDEST PUSH1 0x20 DUP3 ADD SWAP1 POP SWAP2 SWAP1 POP JUMP JUMPDEST PUSH0 PUSH1 0x20 DUP3 ADD SWAP1 POP DUP2 DUP2 SUB PUSH0 DUP4 ADD MSTORE PUSH2 0x6CD DUP2 PUSH2 0x694 JUMP JUMPDEST SWAP1 POP SWAP2 SWAP1 POP JUMP JUMPDEST PUSH32 0x596F752063616E27742046756E6420596F757273656C66000000000000000000 PUSH0 DUP3 ADD MSTORE POP JUMP JUMPDEST PUSH0 PUSH2 0x708 PUSH1 0x17 DUP4 PUSH2 0x5F4 JUMP JUMPDEST SWAP2 POP PUSH2 0x713 DUP3 PUSH2 0x6D4 JUMP JUMPDEST PUSH1 0x20 DUP3 ADD SWAP1 POP SWAP2 SWAP1 POP JUMP JUMPDEST PUSH0 PUSH1 0x20 DUP3 ADD SWAP1 POP DUP2 DUP2 SUB PUSH0 DUP4 ADD MSTORE PUSH2 0x735 DUP2 PUSH2 0x6FC JUMP JUMPDEST SWAP1 POP SWAP2 SWAP1 POP JUMP JUMPDEST PUSH32 0x4E487B7100000000000000000000000000000000000000000000000000000000 PUSH0 MSTORE PUSH1 0x11 PUSH1 0x4 MSTORE PUSH1 0x24 PUSH0 REVERT JUMPDEST PUSH0 PUSH2 0x773 DUP3 PUSH2 0x4D2 JUMP JUMPDEST SWAP2 POP PUSH2 0x77E DUP4 PUSH2 0x4D2 JUMP JUMPDEST SWAP3 POP DUP3 DUP3 SUB SWAP1 POP DUP2 DUP2 GT ISZERO PUSH2 0x796 JUMPI PUSH2 0x795 PUSH2 0x73C JUMP JUMPDEST JUMPDEST SWAP3 SWAP2 POP POP JUMP JUMPDEST PUSH0 PUSH2 0x7A6 DUP3 PUSH2 0x4D2 JUMP JUMPDEST SWAP2 POP PUSH2 0x7B1 DUP4 PUSH2 0x4D2 JUMP JUMPDEST SWAP3 POP DUP3 DUP3 ADD SWAP1 POP DUP1 DUP3 GT ISZERO PUSH2 0x7C9 JUMPI PUSH2 0x7C8 PUSH2 0x73C JUMP JUMPDEST JUMPDEST SWAP3 SWAP2 POP POP JUMP JUMPDEST PUSH32 0x4E487B7100000000000000000000000000000000000000000000000000000000 PUSH0 MSTORE PUSH1 0x1 PUSH1 0x4 MSTORE PUSH1 0x24 PUSH0 REVERT INVALID LOG2 PUSH5 0x6970667358 0x22 SLT KECCAK256 REVERT DUP11 PUSH17 0x67143DF56AEF794DAFA4BC2C998CEA4C58 NOT 0xEE SGT INVALID CALLDATASIZE CALLER PUSH11 0x5A780589E164736F6C6343 STOP ADDMOD BYTE STOP CALLER "
				},
				"gasEstimates": {
					"creation": {
						"codeDepositCost": "419600",
						"executionCost": "24718",
						"totalCost": "444318"
					},
					"external": {
						"addBalance(uint256)": "infinite",
						"getBalance()": "2497",
						"transfer(address,uint256)": "infinite"
					}
				},
				"methodIdentifiers": {
					"addBalance(uint256)": "d91921ed",
					"getBalance()": "12065fe0",
					"transfer(address,uint256)": "a9059cbb"
				}
			},
			"storageLayout": {
				"storage": [
					{
						"astId": 5,
						"contract": "contracts/modifier.sol:Bank",
						"label": "balanceOf",
						"offset": 0,
						"slot": "0",
						"type": "t_mapping(t_address,t_uint256)"
					},
					{
						"astId": 7,
						"contract": "contracts/modifier.sol:Bank",
						"label": "owner",
						"offset": 0,
						"slot": "1",
						"type": "t_address"
					}
				],
				"types": {
					"t_address": {
						"encoding": "inplace",
						"label": "address",
						"numberOfBytes": "20"
					},
					"t_mapping(t_address,t_uint256)": {
						"encoding": "mapping",
						"key": "t_address",
						"label": "mapping(address => uint256)",
						"numberOfBytes": "32",
						"value": "t_uint256"
					},
					"t_uint256": {
						"encoding": "inplace",
						"label": "uint256",
						"numberOfBytes": "32"
					}
				}
			},
			"userdoc": {
				"kind": "user",
				"methods": {},
				"version": 1
			}
		}
	}
}