{
	"contracts/struct.sol": {
		"CricketTeam": {
			"abi": [
				{
					"inputs": [
						{
							"internalType": "uint256",
							"name": "",
							"type": "uint256"
						}
					],
					"name": "PlayersData",
					"outputs": [
						{
							"internalType": "string",
							"name": "firstName",
							"type": "string"
						},
						{
							"internalType": "string",
							"name": "lastName",
							"type": "string"
						},
						{
							"internalType": "uint256",
							"name": "age",
							"type": "uint256"
						},
						{
							"internalType": "bool",
							"name": "isSmoker",
							"type": "bool"
						}
					],
					"stateMutability": "view",
					"type": "function"
				},
				{
					"inputs": [
						{
							"internalType": "string",
							"name": "_firstName",
							"type": "string"
						},
						{
							"internalType": "string",
							"name": "_lastName",
							"type": "string"
						},
						{
							"internalType": "uint256",
							"name": "_age",
							"type": "uint256"
						},
						{
							"internalType": "bool",
							"name": "_isSmoker",
							"type": "bool"
						}
					],
					"name": "addPlayer",
					"outputs": [],
					"stateMutability": "nonpayable",
					"type": "function"
				}
			],
			"devdoc": {
				"kind": "dev",
				"methods": {},
				"version": 1
			},
			"evm": {
				"assembly": "    /* \"contracts/struct.sol\":61:610  contract CricketTeam {... */\n  mstore(0x40, 0x80)\n  callvalue\n  dup1\n  iszero\n  tag_1\n  jumpi\n  0x00\n  dup1\n  revert\ntag_1:\n  pop\n  dataSize(sub_0)\n  dup1\n  dataOffset(sub_0)\n  0x00\n  codecopy\n  0x00\n  return\nstop\n\nsub_0: assembly {\n        /* \"contracts/struct.sol\":61:610  contract CricketTeam {... */\n      mstore(0x40, 0x80)\n      callvalue\n      dup1\n      iszero\n      tag_1\n      jumpi\n      0x00\n      dup1\n      revert\n    tag_1:\n      pop\n      jumpi(tag_2, lt(calldatasize, 0x04))\n      shr(0xe0, calldataload(0x00))\n      dup1\n      0x9e77c8d6\n      eq\n      tag_3\n      jumpi\n      dup1\n      0xe522ff57\n      eq\n      tag_4\n      jumpi\n    tag_2:\n      0x00\n      dup1\n      revert\n        /* \"contracts/struct.sol\":124:151  Player[] public PlayersData */\n    tag_3:\n      tag_5\n      0x04\n      dup1\n      calldatasize\n      sub\n      dup2\n      add\n      swap1\n      tag_6\n      swap2\n      swap1\n      tag_7\n      jump\t// in\n    tag_6:\n      tag_8\n      jump\t// in\n    tag_5:\n      mload(0x40)\n      tag_9\n      swap5\n      swap4\n      swap3\n      swap2\n      swap1\n      tag_10\n      jump\t// in\n    tag_9:\n      mload(0x40)\n      dup1\n      swap2\n      sub\n      swap1\n      return\n        /* \"contracts/struct.sol\":420:607  function addPlayer(string memory _firstName, string memory _lastName, uint _age, bool _isSmoker) public {... */\n    tag_4:\n      tag_11\n      0x04\n      dup1\n      calldatasize\n      sub\n      dup2\n      add\n      swap1\n      tag_12\n      swap2\n      swap1\n      tag_13\n      jump\t// in\n    tag_12:\n      tag_14\n      jump\t// in\n    tag_11:\n      stop\n        /* \"contracts/struct.sol\":124:151  Player[] public PlayersData */\n    tag_8:\n      0x00\n      dup2\n      dup2\n      sload\n      dup2\n      lt\n      tag_15\n      jumpi\n      0x00\n      dup1\n      revert\n    tag_15:\n      swap1\n      0x00\n      mstore\n      keccak256(0x00, 0x20)\n      swap1\n      0x04\n      mul\n      add\n      0x00\n      swap2\n      pop\n      swap1\n      pop\n      dup1\n      0x00\n      add\n      dup1\n      sload\n      tag_17\n      swap1\n      tag_18\n      jump\t// in\n    tag_17:\n      dup1\n      0x1f\n      add\n      0x20\n      dup1\n      swap2\n      div\n      mul\n      0x20\n      add\n      mload(0x40)\n      swap1\n      dup2\n      add\n      0x40\n      mstore\n      dup1\n      swap3\n      swap2\n      swap1\n      dup2\n      dup2\n      mstore\n      0x20\n      add\n      dup3\n      dup1\n      sload\n      tag_19\n      swap1\n      tag_18\n      jump\t// in\n    tag_19:\n      dup1\n      iszero\n      tag_20\n      jumpi\n      dup1\n      0x1f\n      lt\n      tag_21\n      jumpi\n      0x0100\n      dup1\n      dup4\n      sload\n      div\n      mul\n      dup4\n      mstore\n      swap2\n      0x20\n      add\n      swap2\n      jump(tag_20)\n    tag_21:\n      dup3\n      add\n      swap2\n      swap1\n      0x00\n      mstore\n      keccak256(0x00, 0x20)\n      swap1\n    tag_22:\n      dup2\n      sload\n      dup2\n      mstore\n      swap1\n      0x01\n      add\n      swap1\n      0x20\n      add\n      dup1\n      dup4\n      gt\n      tag_22\n      jumpi\n      dup3\n      swap1\n      sub\n      0x1f\n      and\n      dup3\n      add\n      swap2\n    tag_20:\n      pop\n      pop\n      pop\n      pop\n      pop\n      swap1\n      dup1\n      0x01\n      add\n      dup1\n      sload\n      tag_23\n      swap1\n      tag_18\n      jump\t// in\n    tag_23:\n      dup1\n      0x1f\n      add\n      0x20\n      dup1\n      swap2\n      div\n      mul\n      0x20\n      add\n      mload(0x40)\n      swap1\n      dup2\n      add\n      0x40\n      mstore\n      dup1\n      swap3\n      swap2\n      swap1\n      dup2\n      dup2\n      mstore\n      0x20\n      add\n      dup3\n      dup1\n      sload\n      tag_24\n      swap1\n      tag_18\n      jump\t// in\n    tag_24:\n      dup1\n      iszero\n      tag_25\n      jumpi\n      dup1\n      0x1f\n      lt\n      tag_26\n      jumpi\n      0x0100\n      dup1\n      dup4\n      sload\n      div\n      mul\n      dup4\n      mstore\n      swap2\n      0x20\n      add\n      swap2\n      jump(tag_25)\n    tag_26:\n      dup3\n      add\n      swap2\n      swap1\n      0x00\n      mstore\n      keccak256(0x00, 0x20)\n      swap1\n    tag_27:\n      dup2\n      sload\n      dup2\n      mstore\n      swap1\n      0x01\n      add\n      swap1\n      0x20\n      add\n      dup1\n      dup4\n      gt\n      tag_27\n      jumpi\n      dup3\n      swap1\n      sub\n      0x1f\n      and\n      dup3\n      add\n      swap2\n    tag_25:\n      pop\n      pop\n      pop\n      pop\n      pop\n      swap1\n      dup1\n      0x02\n      add\n      sload\n      swap1\n      dup1\n      0x03\n      add\n      0x00\n      swap1\n      sload\n      swap1\n      0x0100\n      exp\n      swap1\n      div\n      0xff\n      and\n      swap1\n      pop\n      dup5\n      jump\t// out\n        /* \"contracts/struct.sol\":420:607  function addPlayer(string memory _firstName, string memory _lastName, uint _age, bool _isSmoker) public {... */\n    tag_14:\n        /* \"contracts/struct.sol\":535:546  PlayersData */\n      0x00\n        /* \"contracts/struct.sol\":552:598  Player(_firstName, _lastName, _age, _isSmoker) */\n      mload(0x40)\n      dup1\n      0x80\n      add\n      0x40\n      mstore\n      dup1\n        /* \"contracts/struct.sol\":559:569  _firstName */\n      dup7\n        /* \"contracts/struct.sol\":552:598  Player(_firstName, _lastName, _age, _isSmoker) */\n      dup2\n      mstore\n      0x20\n      add\n        /* \"contracts/struct.sol\":571:580  _lastName */\n      dup6\n        /* \"contracts/struct.sol\":552:598  Player(_firstName, _lastName, _age, _isSmoker) */\n      dup2\n      mstore\n      0x20\n      add\n        /* \"contracts/struct.sol\":582:586  _age */\n      dup5\n        /* \"contracts/struct.sol\":552:598  Player(_firstName, _lastName, _age, _isSmoker) */\n      dup2\n      mstore\n      0x20\n      add\n        /* \"contracts/struct.sol\":588:597  _isSmoker */\n      dup4\n        /* \"contracts/struct.sol\":552:598  Player(_firstName, _lastName, _age, _isSmoker) */\n      iszero\n      iszero\n      dup2\n      mstore\n      pop\n        /* \"contracts/struct.sol\":535:599  PlayersData.push(Player(_firstName, _lastName, _age, _isSmoker)) */\n      swap1\n      dup1\n      0x01\n      dup2\n      sload\n      add\n      dup1\n      dup3\n      sstore\n      dup1\n      swap2\n      pop\n      pop\n      0x01\n      swap1\n      sub\n      swap1\n      0x00\n      mstore\n      keccak256(0x00, 0x20)\n      swap1\n      0x04\n      mul\n      add\n      0x00\n      swap1\n      swap2\n      swap1\n      swap2\n      swap1\n      swap2\n      pop\n      0x00\n      dup3\n      add\n      mload\n      dup2\n      0x00\n      add\n      swap1\n      dup2\n      tag_30\n      swap2\n      swap1\n      tag_31\n      jump\t// in\n    tag_30:\n      pop\n      0x20\n      dup3\n      add\n      mload\n      dup2\n      0x01\n      add\n      swap1\n      dup2\n      tag_32\n      swap2\n      swap1\n      tag_31\n      jump\t// in\n    tag_32:\n      pop\n      0x40\n      dup3\n      add\n      mload\n      dup2\n      0x02\n      add\n      sstore\n      0x60\n      dup3\n      add\n      mload\n      dup2\n      0x03\n      add\n      exp(0x0100, 0x00)\n      dup2\n      sload\n      dup2\n      0xff\n      mul\n      not\n      and\n      swap1\n      dup4\n      iszero\n      iszero\n      mul\n      or\n      swap1\n      sstore\n      pop\n      pop\n      pop\n        /* \"contracts/struct.sol\":420:607  function addPlayer(string memory _firstName, string memory _lastName, uint _age, bool _isSmoker) public {... */\n      pop\n      pop\n      pop\n      pop\n      jump\t// out\n        /* \"#utility.yul\":7:82   */\n    tag_33:\n        /* \"#utility.yul\":40:46   */\n      0x00\n        /* \"#utility.yul\":73:75   */\n      0x40\n        /* \"#utility.yul\":67:76   */\n      mload\n        /* \"#utility.yul\":57:76   */\n      swap1\n      pop\n        /* \"#utility.yul\":7:82   */\n      swap1\n      jump\t// out\n        /* \"#utility.yul\":88:205   */\n    tag_34:\n        /* \"#utility.yul\":197:198   */\n      0x00\n        /* \"#utility.yul\":194:195   */\n      dup1\n        /* \"#utility.yul\":187:199   */\n      revert\n        /* \"#utility.yul\":211:328   */\n    tag_35:\n        /* \"#utility.yul\":320:321   */\n      0x00\n        /* \"#utility.yul\":317:318   */\n      dup1\n        /* \"#utility.yul\":310:322   */\n      revert\n        /* \"#utility.yul\":334:411   */\n    tag_36:\n        /* \"#utility.yul\":371:378   */\n      0x00\n        /* \"#utility.yul\":400:405   */\n      dup2\n        /* \"#utility.yul\":389:405   */\n      swap1\n      pop\n        /* \"#utility.yul\":334:411   */\n      swap2\n      swap1\n      pop\n      jump\t// out\n        /* \"#utility.yul\":417:539   */\n    tag_37:\n        /* \"#utility.yul\":490:514   */\n      tag_80\n        /* \"#utility.yul\":508:513   */\n      dup2\n        /* \"#utility.yul\":490:514   */\n      tag_36\n      jump\t// in\n    tag_80:\n        /* \"#utility.yul\":483:488   */\n      dup2\n        /* \"#utility.yul\":480:515   */\n      eq\n        /* \"#utility.yul\":470:533   */\n      tag_81\n      jumpi\n        /* \"#utility.yul\":529:530   */\n      0x00\n        /* \"#utility.yul\":526:527   */\n      dup1\n        /* \"#utility.yul\":519:531   */\n      revert\n        /* \"#utility.yul\":470:533   */\n    tag_81:\n        /* \"#utility.yul\":417:539   */\n      pop\n      jump\t// out\n        /* \"#utility.yul\":545:684   */\n    tag_38:\n        /* \"#utility.yul\":591:596   */\n      0x00\n        /* \"#utility.yul\":629:635   */\n      dup2\n        /* \"#utility.yul\":616:636   */\n      calldataload\n        /* \"#utility.yul\":607:636   */\n      swap1\n      pop\n        /* \"#utility.yul\":645:678   */\n      tag_83\n        /* \"#utility.yul\":672:677   */\n      dup2\n        /* \"#utility.yul\":645:678   */\n      tag_37\n      jump\t// in\n    tag_83:\n        /* \"#utility.yul\":545:684   */\n      swap3\n      swap2\n      pop\n      pop\n      jump\t// out\n        /* \"#utility.yul\":690:1019   */\n    tag_7:\n        /* \"#utility.yul\":749:755   */\n      0x00\n        /* \"#utility.yul\":798:800   */\n      0x20\n        /* \"#utility.yul\":786:795   */\n      dup3\n        /* \"#utility.yul\":777:784   */\n      dup5\n        /* \"#utility.yul\":773:796   */\n      sub\n        /* \"#utility.yul\":769:801   */\n      slt\n        /* \"#utility.yul\":766:885   */\n      iszero\n      tag_85\n      jumpi\n        /* \"#utility.yul\":804:883   */\n      tag_86\n      tag_34\n      jump\t// in\n    tag_86:\n        /* \"#utility.yul\":766:885   */\n    tag_85:\n        /* \"#utility.yul\":924:925   */\n      0x00\n        /* \"#utility.yul\":949:1002   */\n      tag_87\n        /* \"#utility.yul\":994:1001   */\n      dup5\n        /* \"#utility.yul\":985:991   */\n      dup3\n        /* \"#utility.yul\":974:983   */\n      dup6\n        /* \"#utility.yul\":970:992   */\n      add\n        /* \"#utility.yul\":949:1002   */\n      tag_38\n      jump\t// in\n    tag_87:\n        /* \"#utility.yul\":939:1002   */\n      swap2\n      pop\n        /* \"#utility.yul\":895:1012   */\n      pop\n        /* \"#utility.yul\":690:1019   */\n      swap3\n      swap2\n      pop\n      pop\n      jump\t// out\n        /* \"#utility.yul\":1025:1124   */\n    tag_39:\n        /* \"#utility.yul\":1077:1083   */\n      0x00\n        /* \"#utility.yul\":1111:1116   */\n      dup2\n        /* \"#utility.yul\":1105:1117   */\n      mload\n        /* \"#utility.yul\":1095:1117   */\n      swap1\n      pop\n        /* \"#utility.yul\":1025:1124   */\n      swap2\n      swap1\n      pop\n      jump\t// out\n        /* \"#utility.yul\":1130:1299   */\n    tag_40:\n        /* \"#utility.yul\":1214:1225   */\n      0x00\n        /* \"#utility.yul\":1248:1254   */\n      dup3\n        /* \"#utility.yul\":1243:1246   */\n      dup3\n        /* \"#utility.yul\":1236:1255   */\n      mstore\n        /* \"#utility.yul\":1288:1292   */\n      0x20\n        /* \"#utility.yul\":1283:1286   */\n      dup3\n        /* \"#utility.yul\":1279:1293   */\n      add\n        /* \"#utility.yul\":1264:1293   */\n      swap1\n      pop\n        /* \"#utility.yul\":1130:1299   */\n      swap3\n      swap2\n      pop\n      pop\n      jump\t// out\n        /* \"#utility.yul\":1305:1444   */\n    tag_41:\n        /* \"#utility.yul\":1394:1400   */\n      dup3\n        /* \"#utility.yul\":1389:1392   */\n      dup2\n        /* \"#utility.yul\":1384:1387   */\n      dup4\n        /* \"#utility.yul\":1378:1401   */\n      mcopy\n        /* \"#utility.yul\":1435:1436   */\n      0x00\n        /* \"#utility.yul\":1426:1432   */\n      dup4\n        /* \"#utility.yul\":1421:1424   */\n      dup4\n        /* \"#utility.yul\":1417:1433   */\n      add\n        /* \"#utility.yul\":1410:1437   */\n      mstore\n        /* \"#utility.yul\":1305:1444   */\n      pop\n      pop\n      pop\n      jump\t// out\n        /* \"#utility.yul\":1450:1552   */\n    tag_42:\n        /* \"#utility.yul\":1491:1497   */\n      0x00\n        /* \"#utility.yul\":1542:1544   */\n      0x1f\n        /* \"#utility.yul\":1538:1545   */\n      not\n        /* \"#utility.yul\":1533:1535   */\n      0x1f\n        /* \"#utility.yul\":1526:1531   */\n      dup4\n        /* \"#utility.yul\":1522:1536   */\n      add\n        /* \"#utility.yul\":1518:1546   */\n      and\n        /* \"#utility.yul\":1508:1546   */\n      swap1\n      pop\n        /* \"#utility.yul\":1450:1552   */\n      swap2\n      swap1\n      pop\n      jump\t// out\n        /* \"#utility.yul\":1558:1935   */\n    tag_43:\n        /* \"#utility.yul\":1646:1649   */\n      0x00\n        /* \"#utility.yul\":1674:1713   */\n      tag_93\n        /* \"#utility.yul\":1707:1712   */\n      dup3\n        /* \"#utility.yul\":1674:1713   */\n      tag_39\n      jump\t// in\n    tag_93:\n        /* \"#utility.yul\":1729:1800   */\n      tag_94\n        /* \"#utility.yul\":1793:1799   */\n      dup2\n        /* \"#utility.yul\":1788:1791   */\n      dup6\n        /* \"#utility.yul\":1729:1800   */\n      tag_40\n      jump\t// in\n    tag_94:\n        /* \"#utility.yul\":1722:1800   */\n      swap4\n      pop\n        /* \"#utility.yul\":1809:1874   */\n      tag_95\n        /* \"#utility.yul\":1867:1873   */\n      dup2\n        /* \"#utility.yul\":1862:1865   */\n      dup6\n        /* \"#utility.yul\":1855:1859   */\n      0x20\n        /* \"#utility.yul\":1848:1853   */\n      dup7\n        /* \"#utility.yul\":1844:1860   */\n      add\n        /* \"#utility.yul\":1809:1874   */\n      tag_41\n      jump\t// in\n    tag_95:\n        /* \"#utility.yul\":1899:1928   */\n      tag_96\n        /* \"#utility.yul\":1921:1927   */\n      dup2\n        /* \"#utility.yul\":1899:1928   */\n      tag_42\n      jump\t// in\n    tag_96:\n        /* \"#utility.yul\":1894:1897   */\n      dup5\n        /* \"#utility.yul\":1890:1929   */\n      add\n        /* \"#utility.yul\":1883:1929   */\n      swap2\n      pop\n        /* \"#utility.yul\":1650:1935   */\n      pop\n        /* \"#utility.yul\":1558:1935   */\n      swap3\n      swap2\n      pop\n      pop\n      jump\t// out\n        /* \"#utility.yul\":1941:2059   */\n    tag_44:\n        /* \"#utility.yul\":2028:2052   */\n      tag_98\n        /* \"#utility.yul\":2046:2051   */\n      dup2\n        /* \"#utility.yul\":2028:2052   */\n      tag_36\n      jump\t// in\n    tag_98:\n        /* \"#utility.yul\":2023:2026   */\n      dup3\n        /* \"#utility.yul\":2016:2053   */\n      mstore\n        /* \"#utility.yul\":1941:2059   */\n      pop\n      pop\n      jump\t// out\n        /* \"#utility.yul\":2065:2155   */\n    tag_45:\n        /* \"#utility.yul\":2099:2106   */\n      0x00\n        /* \"#utility.yul\":2142:2147   */\n      dup2\n        /* \"#utility.yul\":2135:2148   */\n      iszero\n        /* \"#utility.yul\":2128:2149   */\n      iszero\n        /* \"#utility.yul\":2117:2149   */\n      swap1\n      pop\n        /* \"#utility.yul\":2065:2155   */\n      swap2\n      swap1\n      pop\n      jump\t// out\n        /* \"#utility.yul\":2161:2270   */\n    tag_46:\n        /* \"#utility.yul\":2242:2263   */\n      tag_101\n        /* \"#utility.yul\":2257:2262   */\n      dup2\n        /* \"#utility.yul\":2242:2263   */\n      tag_45\n      jump\t// in\n    tag_101:\n        /* \"#utility.yul\":2237:2240   */\n      dup3\n        /* \"#utility.yul\":2230:2264   */\n      mstore\n        /* \"#utility.yul\":2161:2270   */\n      pop\n      pop\n      jump\t// out\n        /* \"#utility.yul\":2276:2999   */\n    tag_10:\n        /* \"#utility.yul\":2487:2491   */\n      0x00\n        /* \"#utility.yul\":2525:2528   */\n      0x80\n        /* \"#utility.yul\":2514:2523   */\n      dup3\n        /* \"#utility.yul\":2510:2529   */\n      add\n        /* \"#utility.yul\":2502:2529   */\n      swap1\n      pop\n        /* \"#utility.yul\":2575:2584   */\n      dup2\n        /* \"#utility.yul\":2569:2573   */\n      dup2\n        /* \"#utility.yul\":2565:2585   */\n      sub\n        /* \"#utility.yul\":2561:2562   */\n      0x00\n        /* \"#utility.yul\":2550:2559   */\n      dup4\n        /* \"#utility.yul\":2546:2563   */\n      add\n        /* \"#utility.yul\":2539:2586   */\n      mstore\n        /* \"#utility.yul\":2603:2681   */\n      tag_103\n        /* \"#utility.yul\":2676:2680   */\n      dup2\n        /* \"#utility.yul\":2667:2673   */\n      dup8\n        /* \"#utility.yul\":2603:2681   */\n      tag_43\n      jump\t// in\n    tag_103:\n        /* \"#utility.yul\":2595:2681   */\n      swap1\n      pop\n        /* \"#utility.yul\":2728:2737   */\n      dup2\n        /* \"#utility.yul\":2722:2726   */\n      dup2\n        /* \"#utility.yul\":2718:2738   */\n      sub\n        /* \"#utility.yul\":2713:2715   */\n      0x20\n        /* \"#utility.yul\":2702:2711   */\n      dup4\n        /* \"#utility.yul\":2698:2716   */\n      add\n        /* \"#utility.yul\":2691:2739   */\n      mstore\n        /* \"#utility.yul\":2756:2834   */\n      tag_104\n        /* \"#utility.yul\":2829:2833   */\n      dup2\n        /* \"#utility.yul\":2820:2826   */\n      dup7\n        /* \"#utility.yul\":2756:2834   */\n      tag_43\n      jump\t// in\n    tag_104:\n        /* \"#utility.yul\":2748:2834   */\n      swap1\n      pop\n        /* \"#utility.yul\":2844:2916   */\n      tag_105\n        /* \"#utility.yul\":2912:2914   */\n      0x40\n        /* \"#utility.yul\":2901:2910   */\n      dup4\n        /* \"#utility.yul\":2897:2915   */\n      add\n        /* \"#utility.yul\":2888:2894   */\n      dup6\n        /* \"#utility.yul\":2844:2916   */\n      tag_44\n      jump\t// in\n    tag_105:\n        /* \"#utility.yul\":2926:2992   */\n      tag_106\n        /* \"#utility.yul\":2988:2990   */\n      0x60\n        /* \"#utility.yul\":2977:2986   */\n      dup4\n        /* \"#utility.yul\":2973:2991   */\n      add\n        /* \"#utility.yul\":2964:2970   */\n      dup5\n        /* \"#utility.yul\":2926:2992   */\n      tag_46\n      jump\t// in\n    tag_106:\n        /* \"#utility.yul\":2276:2999   */\n      swap6\n      swap5\n      pop\n      pop\n      pop\n      pop\n      pop\n      jump\t// out\n        /* \"#utility.yul\":3005:3122   */\n    tag_47:\n        /* \"#utility.yul\":3114:3115   */\n      0x00\n        /* \"#utility.yul\":3111:3112   */\n      dup1\n        /* \"#utility.yul\":3104:3116   */\n      revert\n        /* \"#utility.yul\":3128:3245   */\n    tag_48:\n        /* \"#utility.yul\":3237:3238   */\n      0x00\n        /* \"#utility.yul\":3234:3235   */\n      dup1\n        /* \"#utility.yul\":3227:3239   */\n      revert\n        /* \"#utility.yul\":3251:3431   */\n    tag_49:\n        /* \"#utility.yul\":3299:3376   */\n      0x4e487b7100000000000000000000000000000000000000000000000000000000\n        /* \"#utility.yul\":3296:3297   */\n      0x00\n        /* \"#utility.yul\":3289:3377   */\n      mstore\n        /* \"#utility.yul\":3396:3400   */\n      0x41\n        /* \"#utility.yul\":3393:3394   */\n      0x04\n        /* \"#utility.yul\":3386:3401   */\n      mstore\n        /* \"#utility.yul\":3420:3424   */\n      0x24\n        /* \"#utility.yul\":3417:3418   */\n      0x00\n        /* \"#utility.yul\":3410:3425   */\n      revert\n        /* \"#utility.yul\":3437:3718   */\n    tag_50:\n        /* \"#utility.yul\":3520:3547   */\n      tag_111\n        /* \"#utility.yul\":3542:3546   */\n      dup3\n        /* \"#utility.yul\":3520:3547   */\n      tag_42\n      jump\t// in\n    tag_111:\n        /* \"#utility.yul\":3512:3518   */\n      dup2\n        /* \"#utility.yul\":3508:3548   */\n      add\n        /* \"#utility.yul\":3650:3656   */\n      dup2\n        /* \"#utility.yul\":3638:3648   */\n      dup2\n        /* \"#utility.yul\":3635:3657   */\n      lt\n        /* \"#utility.yul\":3614:3632   */\n      0xffffffffffffffff\n        /* \"#utility.yul\":3602:3612   */\n      dup3\n        /* \"#utility.yul\":3599:3633   */\n      gt\n        /* \"#utility.yul\":3596:3658   */\n      or\n        /* \"#utility.yul\":3593:3681   */\n      iszero\n      tag_112\n      jumpi\n        /* \"#utility.yul\":3661:3679   */\n      tag_113\n      tag_49\n      jump\t// in\n    tag_113:\n        /* \"#utility.yul\":3593:3681   */\n    tag_112:\n        /* \"#utility.yul\":3701:3711   */\n      dup1\n        /* \"#utility.yul\":3697:3699   */\n      0x40\n        /* \"#utility.yul\":3690:3712   */\n      mstore\n        /* \"#utility.yul\":3480:3718   */\n      pop\n        /* \"#utility.yul\":3437:3718   */\n      pop\n      pop\n      jump\t// out\n        /* \"#utility.yul\":3724:3853   */\n    tag_51:\n        /* \"#utility.yul\":3758:3764   */\n      0x00\n        /* \"#utility.yul\":3785:3805   */\n      tag_115\n      tag_33\n      jump\t// in\n    tag_115:\n        /* \"#utility.yul\":3775:3805   */\n      swap1\n      pop\n        /* \"#utility.yul\":3814:3847   */\n      tag_116\n        /* \"#utility.yul\":3842:3846   */\n      dup3\n        /* \"#utility.yul\":3834:3840   */\n      dup3\n        /* \"#utility.yul\":3814:3847   */\n      tag_50\n      jump\t// in\n    tag_116:\n        /* \"#utility.yul\":3724:3853   */\n      swap2\n      swap1\n      pop\n      jump\t// out\n        /* \"#utility.yul\":3859:4167   */\n    tag_52:\n        /* \"#utility.yul\":3921:3925   */\n      0x00\n        /* \"#utility.yul\":4011:4029   */\n      0xffffffffffffffff\n        /* \"#utility.yul\":4003:4009   */\n      dup3\n        /* \"#utility.yul\":4000:4030   */\n      gt\n        /* \"#utility.yul\":3997:4053   */\n      iszero\n      tag_118\n      jumpi\n        /* \"#utility.yul\":4033:4051   */\n      tag_119\n      tag_49\n      jump\t// in\n    tag_119:\n        /* \"#utility.yul\":3997:4053   */\n    tag_118:\n        /* \"#utility.yul\":4071:4100   */\n      tag_120\n        /* \"#utility.yul\":4093:4099   */\n      dup3\n        /* \"#utility.yul\":4071:4100   */\n      tag_42\n      jump\t// in\n    tag_120:\n        /* \"#utility.yul\":4063:4100   */\n      swap1\n      pop\n        /* \"#utility.yul\":4155:4159   */\n      0x20\n        /* \"#utility.yul\":4149:4153   */\n      dup2\n        /* \"#utility.yul\":4145:4160   */\n      add\n        /* \"#utility.yul\":4137:4160   */\n      swap1\n      pop\n        /* \"#utility.yul\":3859:4167   */\n      swap2\n      swap1\n      pop\n      jump\t// out\n        /* \"#utility.yul\":4173:4321   */\n    tag_53:\n        /* \"#utility.yul\":4271:4277   */\n      dup3\n        /* \"#utility.yul\":4266:4269   */\n      dup2\n        /* \"#utility.yul\":4261:4264   */\n      dup4\n        /* \"#utility.yul\":4248:4278   */\n      calldatacopy\n        /* \"#utility.yul\":4312:4313   */\n      0x00\n        /* \"#utility.yul\":4303:4309   */\n      dup4\n        /* \"#utility.yul\":4298:4301   */\n      dup4\n        /* \"#utility.yul\":4294:4310   */\n      add\n        /* \"#utility.yul\":4287:4314   */\n      mstore\n        /* \"#utility.yul\":4173:4321   */\n      pop\n      pop\n      pop\n      jump\t// out\n        /* \"#utility.yul\":4327:4752   */\n    tag_54:\n        /* \"#utility.yul\":4405:4410   */\n      0x00\n        /* \"#utility.yul\":4430:4496   */\n      tag_123\n        /* \"#utility.yul\":4446:4495   */\n      tag_124\n        /* \"#utility.yul\":4488:4494   */\n      dup5\n        /* \"#utility.yul\":4446:4495   */\n      tag_52\n      jump\t// in\n    tag_124:\n        /* \"#utility.yul\":4430:4496   */\n      tag_51\n      jump\t// in\n    tag_123:\n        /* \"#utility.yul\":4421:4496   */\n      swap1\n      pop\n        /* \"#utility.yul\":4519:4525   */\n      dup3\n        /* \"#utility.yul\":4512:4517   */\n      dup2\n        /* \"#utility.yul\":4505:4526   */\n      mstore\n        /* \"#utility.yul\":4557:4561   */\n      0x20\n        /* \"#utility.yul\":4550:4555   */\n      dup2\n        /* \"#utility.yul\":4546:4562   */\n      add\n        /* \"#utility.yul\":4595:4598   */\n      dup5\n        /* \"#utility.yul\":4586:4592   */\n      dup5\n        /* \"#utility.yul\":4581:4584   */\n      dup5\n        /* \"#utility.yul\":4577:4593   */\n      add\n        /* \"#utility.yul\":4574:4599   */\n      gt\n        /* \"#utility.yul\":4571:4683   */\n      iszero\n      tag_125\n      jumpi\n        /* \"#utility.yul\":4602:4681   */\n      tag_126\n      tag_48\n      jump\t// in\n    tag_126:\n        /* \"#utility.yul\":4571:4683   */\n    tag_125:\n        /* \"#utility.yul\":4692:4746   */\n      tag_127\n        /* \"#utility.yul\":4739:4745   */\n      dup5\n        /* \"#utility.yul\":4734:4737   */\n      dup3\n        /* \"#utility.yul\":4729:4732   */\n      dup6\n        /* \"#utility.yul\":4692:4746   */\n      tag_53\n      jump\t// in\n    tag_127:\n        /* \"#utility.yul\":4411:4752   */\n      pop\n        /* \"#utility.yul\":4327:4752   */\n      swap4\n      swap3\n      pop\n      pop\n      pop\n      jump\t// out\n        /* \"#utility.yul\":4772:5112   */\n    tag_55:\n        /* \"#utility.yul\":4828:4833   */\n      0x00\n        /* \"#utility.yul\":4877:4880   */\n      dup3\n        /* \"#utility.yul\":4870:4874   */\n      0x1f\n        /* \"#utility.yul\":4862:4868   */\n      dup4\n        /* \"#utility.yul\":4858:4875   */\n      add\n        /* \"#utility.yul\":4854:4881   */\n      slt\n        /* \"#utility.yul\":4844:4966   */\n      tag_129\n      jumpi\n        /* \"#utility.yul\":4885:4964   */\n      tag_130\n      tag_47\n      jump\t// in\n    tag_130:\n        /* \"#utility.yul\":4844:4966   */\n    tag_129:\n        /* \"#utility.yul\":5002:5008   */\n      dup2\n        /* \"#utility.yul\":4989:5009   */\n      calldataload\n        /* \"#utility.yul\":5027:5106   */\n      tag_131\n        /* \"#utility.yul\":5102:5105   */\n      dup5\n        /* \"#utility.yul\":5094:5100   */\n      dup3\n        /* \"#utility.yul\":5087:5091   */\n      0x20\n        /* \"#utility.yul\":5079:5085   */\n      dup7\n        /* \"#utility.yul\":5075:5092   */\n      add\n        /* \"#utility.yul\":5027:5106   */\n      tag_54\n      jump\t// in\n    tag_131:\n        /* \"#utility.yul\":5018:5106   */\n      swap2\n      pop\n        /* \"#utility.yul\":4834:5112   */\n      pop\n        /* \"#utility.yul\":4772:5112   */\n      swap3\n      swap2\n      pop\n      pop\n      jump\t// out\n        /* \"#utility.yul\":5118:5234   */\n    tag_56:\n        /* \"#utility.yul\":5188:5209   */\n      tag_133\n        /* \"#utility.yul\":5203:5208   */\n      dup2\n        /* \"#utility.yul\":5188:5209   */\n      tag_45\n      jump\t// in\n    tag_133:\n        /* \"#utility.yul\":5181:5186   */\n      dup2\n        /* \"#utility.yul\":5178:5210   */\n      eq\n        /* \"#utility.yul\":5168:5228   */\n      tag_134\n      jumpi\n        /* \"#utility.yul\":5224:5225   */\n      0x00\n        /* \"#utility.yul\":5221:5222   */\n      dup1\n        /* \"#utility.yul\":5214:5226   */\n      revert\n        /* \"#utility.yul\":5168:5228   */\n    tag_134:\n        /* \"#utility.yul\":5118:5234   */\n      pop\n      jump\t// out\n        /* \"#utility.yul\":5240:5373   */\n    tag_57:\n        /* \"#utility.yul\":5283:5288   */\n      0x00\n        /* \"#utility.yul\":5321:5327   */\n      dup2\n        /* \"#utility.yul\":5308:5328   */\n      calldataload\n        /* \"#utility.yul\":5299:5328   */\n      swap1\n      pop\n        /* \"#utility.yul\":5337:5367   */\n      tag_136\n        /* \"#utility.yul\":5361:5366   */\n      dup2\n        /* \"#utility.yul\":5337:5367   */\n      tag_56\n      jump\t// in\n    tag_136:\n        /* \"#utility.yul\":5240:5373   */\n      swap3\n      swap2\n      pop\n      pop\n      jump\t// out\n        /* \"#utility.yul\":5379:6498   */\n    tag_13:\n        /* \"#utility.yul\":5482:5488   */\n      0x00\n        /* \"#utility.yul\":5490:5496   */\n      dup1\n        /* \"#utility.yul\":5498:5504   */\n      0x00\n        /* \"#utility.yul\":5506:5512   */\n      dup1\n        /* \"#utility.yul\":5555:5558   */\n      0x80\n        /* \"#utility.yul\":5543:5552   */\n      dup6\n        /* \"#utility.yul\":5534:5541   */\n      dup8\n        /* \"#utility.yul\":5530:5553   */\n      sub\n        /* \"#utility.yul\":5526:5559   */\n      slt\n        /* \"#utility.yul\":5523:5643   */\n      iszero\n      tag_138\n      jumpi\n        /* \"#utility.yul\":5562:5641   */\n      tag_139\n      tag_34\n      jump\t// in\n    tag_139:\n        /* \"#utility.yul\":5523:5643   */\n    tag_138:\n        /* \"#utility.yul\":5710:5711   */\n      0x00\n        /* \"#utility.yul\":5699:5708   */\n      dup6\n        /* \"#utility.yul\":5695:5712   */\n      add\n        /* \"#utility.yul\":5682:5713   */\n      calldataload\n        /* \"#utility.yul\":5740:5758   */\n      0xffffffffffffffff\n        /* \"#utility.yul\":5732:5738   */\n      dup2\n        /* \"#utility.yul\":5729:5759   */\n      gt\n        /* \"#utility.yul\":5726:5843   */\n      iszero\n      tag_140\n      jumpi\n        /* \"#utility.yul\":5762:5841   */\n      tag_141\n      tag_35\n      jump\t// in\n    tag_141:\n        /* \"#utility.yul\":5726:5843   */\n    tag_140:\n        /* \"#utility.yul\":5867:5930   */\n      tag_142\n        /* \"#utility.yul\":5922:5929   */\n      dup8\n        /* \"#utility.yul\":5913:5919   */\n      dup3\n        /* \"#utility.yul\":5902:5911   */\n      dup9\n        /* \"#utility.yul\":5898:5920   */\n      add\n        /* \"#utility.yul\":5867:5930   */\n      tag_55\n      jump\t// in\n    tag_142:\n        /* \"#utility.yul\":5857:5930   */\n      swap5\n      pop\n        /* \"#utility.yul\":5653:5940   */\n      pop\n        /* \"#utility.yul\":6007:6009   */\n      0x20\n        /* \"#utility.yul\":5996:6005   */\n      dup6\n        /* \"#utility.yul\":5992:6010   */\n      add\n        /* \"#utility.yul\":5979:6011   */\n      calldataload\n        /* \"#utility.yul\":6038:6056   */\n      0xffffffffffffffff\n        /* \"#utility.yul\":6030:6036   */\n      dup2\n        /* \"#utility.yul\":6027:6057   */\n      gt\n        /* \"#utility.yul\":6024:6141   */\n      iszero\n      tag_143\n      jumpi\n        /* \"#utility.yul\":6060:6139   */\n      tag_144\n      tag_35\n      jump\t// in\n    tag_144:\n        /* \"#utility.yul\":6024:6141   */\n    tag_143:\n        /* \"#utility.yul\":6165:6228   */\n      tag_145\n        /* \"#utility.yul\":6220:6227   */\n      dup8\n        /* \"#utility.yul\":6211:6217   */\n      dup3\n        /* \"#utility.yul\":6200:6209   */\n      dup9\n        /* \"#utility.yul\":6196:6218   */\n      add\n        /* \"#utility.yul\":6165:6228   */\n      tag_55\n      jump\t// in\n    tag_145:\n        /* \"#utility.yul\":6155:6228   */\n      swap4\n      pop\n        /* \"#utility.yul\":5950:6238   */\n      pop\n        /* \"#utility.yul\":6277:6279   */\n      0x40\n        /* \"#utility.yul\":6303:6356   */\n      tag_146\n        /* \"#utility.yul\":6348:6355   */\n      dup8\n        /* \"#utility.yul\":6339:6345   */\n      dup3\n        /* \"#utility.yul\":6328:6337   */\n      dup9\n        /* \"#utility.yul\":6324:6346   */\n      add\n        /* \"#utility.yul\":6303:6356   */\n      tag_38\n      jump\t// in\n    tag_146:\n        /* \"#utility.yul\":6293:6356   */\n      swap3\n      pop\n        /* \"#utility.yul\":6248:6366   */\n      pop\n        /* \"#utility.yul\":6405:6407   */\n      0x60\n        /* \"#utility.yul\":6431:6481   */\n      tag_147\n        /* \"#utility.yul\":6473:6480   */\n      dup8\n        /* \"#utility.yul\":6464:6470   */\n      dup3\n        /* \"#utility.yul\":6453:6462   */\n      dup9\n        /* \"#utility.yul\":6449:6471   */\n      add\n        /* \"#utility.yul\":6431:6481   */\n      tag_57\n      jump\t// in\n    tag_147:\n        /* \"#utility.yul\":6421:6481   */\n      swap2\n      pop\n        /* \"#utility.yul\":6376:6491   */\n      pop\n        /* \"#utility.yul\":5379:6498   */\n      swap3\n      swap6\n      swap2\n      swap5\n      pop\n      swap3\n      pop\n      jump\t// out\n        /* \"#utility.yul\":6504:6684   */\n    tag_58:\n        /* \"#utility.yul\":6552:6629   */\n      0x4e487b7100000000000000000000000000000000000000000000000000000000\n        /* \"#utility.yul\":6549:6550   */\n      0x00\n        /* \"#utility.yul\":6542:6630   */\n      mstore\n        /* \"#utility.yul\":6649:6653   */\n      0x22\n        /* \"#utility.yul\":6646:6647   */\n      0x04\n        /* \"#utility.yul\":6639:6654   */\n      mstore\n        /* \"#utility.yul\":6673:6677   */\n      0x24\n        /* \"#utility.yul\":6670:6671   */\n      0x00\n        /* \"#utility.yul\":6663:6678   */\n      revert\n        /* \"#utility.yul\":6690:7010   */\n    tag_18:\n        /* \"#utility.yul\":6734:6740   */\n      0x00\n        /* \"#utility.yul\":6771:6772   */\n      0x02\n        /* \"#utility.yul\":6765:6769   */\n      dup3\n        /* \"#utility.yul\":6761:6773   */\n      div\n        /* \"#utility.yul\":6751:6773   */\n      swap1\n      pop\n        /* \"#utility.yul\":6818:6819   */\n      0x01\n        /* \"#utility.yul\":6812:6816   */\n      dup3\n        /* \"#utility.yul\":6808:6820   */\n      and\n        /* \"#utility.yul\":6839:6857   */\n      dup1\n        /* \"#utility.yul\":6829:6910   */\n      tag_150\n      jumpi\n        /* \"#utility.yul\":6895:6899   */\n      0x7f\n        /* \"#utility.yul\":6887:6893   */\n      dup3\n        /* \"#utility.yul\":6883:6900   */\n      and\n        /* \"#utility.yul\":6873:6900   */\n      swap2\n      pop\n        /* \"#utility.yul\":6829:6910   */\n    tag_150:\n        /* \"#utility.yul\":6957:6959   */\n      0x20\n        /* \"#utility.yul\":6949:6955   */\n      dup3\n        /* \"#utility.yul\":6946:6960   */\n      lt\n        /* \"#utility.yul\":6926:6944   */\n      dup2\n        /* \"#utility.yul\":6923:6961   */\n      sub\n        /* \"#utility.yul\":6920:7004   */\n      tag_151\n      jumpi\n        /* \"#utility.yul\":6976:6994   */\n      tag_152\n      tag_58\n      jump\t// in\n    tag_152:\n        /* \"#utility.yul\":6920:7004   */\n    tag_151:\n        /* \"#utility.yul\":6741:7010   */\n      pop\n        /* \"#utility.yul\":6690:7010   */\n      swap2\n      swap1\n      pop\n      jump\t// out\n        /* \"#utility.yul\":7016:7157   */\n    tag_59:\n        /* \"#utility.yul\":7065:7069   */\n      0x00\n        /* \"#utility.yul\":7088:7091   */\n      dup2\n        /* \"#utility.yul\":7080:7091   */\n      swap1\n      pop\n        /* \"#utility.yul\":7111:7114   */\n      dup2\n        /* \"#utility.yul\":7108:7109   */\n      0x00\n        /* \"#utility.yul\":7101:7115   */\n      mstore\n        /* \"#utility.yul\":7145:7149   */\n      0x20\n        /* \"#utility.yul\":7142:7143   */\n      0x00\n        /* \"#utility.yul\":7132:7150   */\n      keccak256\n        /* \"#utility.yul\":7124:7150   */\n      swap1\n      pop\n        /* \"#utility.yul\":7016:7157   */\n      swap2\n      swap1\n      pop\n      jump\t// out\n        /* \"#utility.yul\":7163:7256   */\n    tag_60:\n        /* \"#utility.yul\":7200:7206   */\n      0x00\n        /* \"#utility.yul\":7247:7249   */\n      0x20\n        /* \"#utility.yul\":7242:7244   */\n      0x1f\n        /* \"#utility.yul\":7235:7240   */\n      dup4\n        /* \"#utility.yul\":7231:7245   */\n      add\n        /* \"#utility.yul\":7227:7250   */\n      div\n        /* \"#utility.yul\":7217:7250   */\n      swap1\n      pop\n        /* \"#utility.yul\":7163:7256   */\n      swap2\n      swap1\n      pop\n      jump\t// out\n        /* \"#utility.yul\":7262:7369   */\n    tag_61:\n        /* \"#utility.yul\":7306:7314   */\n      0x00\n        /* \"#utility.yul\":7356:7361   */\n      dup3\n        /* \"#utility.yul\":7350:7354   */\n      dup3\n        /* \"#utility.yul\":7346:7362   */\n      shl\n        /* \"#utility.yul\":7325:7362   */\n      swap1\n      pop\n        /* \"#utility.yul\":7262:7369   */\n      swap3\n      swap2\n      pop\n      pop\n      jump\t// out\n        /* \"#utility.yul\":7375:7768   */\n    tag_62:\n        /* \"#utility.yul\":7444:7450   */\n      0x00\n        /* \"#utility.yul\":7494:7495   */\n      0x08\n        /* \"#utility.yul\":7482:7492   */\n      dup4\n        /* \"#utility.yul\":7478:7496   */\n      mul\n        /* \"#utility.yul\":7517:7614   */\n      tag_157\n        /* \"#utility.yul\":7547:7613   */\n      0xffffffffffffffffffffffffffffffffffffffffffffffffffffffffffffffff\n        /* \"#utility.yul\":7536:7545   */\n      dup3\n        /* \"#utility.yul\":7517:7614   */\n      tag_61\n      jump\t// in\n    tag_157:\n        /* \"#utility.yul\":7635:7674   */\n      tag_158\n        /* \"#utility.yul\":7665:7673   */\n      dup7\n        /* \"#utility.yul\":7654:7663   */\n      dup4\n        /* \"#utility.yul\":7635:7674   */\n      tag_61\n      jump\t// in\n    tag_158:\n        /* \"#utility.yul\":7623:7674   */\n      swap6\n      pop\n        /* \"#utility.yul\":7707:7711   */\n      dup1\n        /* \"#utility.yul\":7703:7712   */\n      not\n        /* \"#utility.yul\":7696:7701   */\n      dup5\n        /* \"#utility.yul\":7692:7713   */\n      and\n        /* \"#utility.yul\":7683:7713   */\n      swap4\n      pop\n        /* \"#utility.yul\":7756:7760   */\n      dup1\n        /* \"#utility.yul\":7746:7754   */\n      dup7\n        /* \"#utility.yul\":7742:7761   */\n      and\n        /* \"#utility.yul\":7735:7740   */\n      dup5\n        /* \"#utility.yul\":7732:7762   */\n      or\n        /* \"#utility.yul\":7722:7762   */\n      swap3\n      pop\n        /* \"#utility.yul\":7451:7768   */\n      pop\n      pop\n        /* \"#utility.yul\":7375:7768   */\n      swap4\n      swap3\n      pop\n      pop\n      pop\n      jump\t// out\n        /* \"#utility.yul\":7774:7834   */\n    tag_63:\n        /* \"#utility.yul\":7802:7805   */\n      0x00\n        /* \"#utility.yul\":7823:7828   */\n      dup2\n        /* \"#utility.yul\":7816:7828   */\n      swap1\n      pop\n        /* \"#utility.yul\":7774:7834   */\n      swap2\n      swap1\n      pop\n      jump\t// out\n        /* \"#utility.yul\":7840:7982   */\n    tag_64:\n        /* \"#utility.yul\":7890:7899   */\n      0x00\n        /* \"#utility.yul\":7923:7976   */\n      tag_161\n        /* \"#utility.yul\":7941:7975   */\n      tag_162\n        /* \"#utility.yul\":7950:7974   */\n      tag_163\n        /* \"#utility.yul\":7968:7973   */\n      dup5\n        /* \"#utility.yul\":7950:7974   */\n      tag_36\n      jump\t// in\n    tag_163:\n        /* \"#utility.yul\":7941:7975   */\n      tag_63\n      jump\t// in\n    tag_162:\n        /* \"#utility.yul\":7923:7976   */\n      tag_36\n      jump\t// in\n    tag_161:\n        /* \"#utility.yul\":7910:7976   */\n      swap1\n      pop\n        /* \"#utility.yul\":7840:7982   */\n      swap2\n      swap1\n      pop\n      jump\t// out\n        /* \"#utility.yul\":7988:8063   */\n    tag_65:\n        /* \"#utility.yul\":8031:8034   */\n      0x00\n        /* \"#utility.yul\":8052:8057   */\n      dup2\n        /* \"#utility.yul\":8045:8057   */\n      swap1\n      pop\n        /* \"#utility.yul\":7988:8063   */\n      swap2\n      swap1\n      pop\n      jump\t// out\n        /* \"#utility.yul\":8069:8338   */\n    tag_66:\n        /* \"#utility.yul\":8179:8218   */\n      tag_166\n        /* \"#utility.yul\":8210:8217   */\n      dup4\n        /* \"#utility.yul\":8179:8218   */\n      tag_64\n      jump\t// in\n    tag_166:\n        /* \"#utility.yul\":8240:8331   */\n      tag_167\n        /* \"#utility.yul\":8289:8330   */\n      tag_168\n        /* \"#utility.yul\":8313:8329   */\n      dup3\n        /* \"#utility.yul\":8289:8330   */\n      tag_65\n      jump\t// in\n    tag_168:\n        /* \"#utility.yul\":8281:8287   */\n      dup5\n        /* \"#utility.yul\":8274:8278   */\n      dup5\n        /* \"#utility.yul\":8268:8279   */\n      sload\n        /* \"#utility.yul\":8240:8331   */\n      tag_62\n      jump\t// in\n    tag_167:\n        /* \"#utility.yul\":8234:8238   */\n      dup3\n        /* \"#utility.yul\":8227:8332   */\n      sstore\n        /* \"#utility.yul\":8145:8338   */\n      pop\n        /* \"#utility.yul\":8069:8338   */\n      pop\n      pop\n      pop\n      jump\t// out\n        /* \"#utility.yul\":8344:8417   */\n    tag_67:\n        /* \"#utility.yul\":8389:8392   */\n      0x00\n        /* \"#utility.yul\":8344:8417   */\n      swap1\n      jump\t// out\n        /* \"#utility.yul\":8423:8612   */\n    tag_68:\n        /* \"#utility.yul\":8500:8532   */\n      tag_171\n      tag_67\n      jump\t// in\n    tag_171:\n        /* \"#utility.yul\":8541:8606   */\n      tag_172\n        /* \"#utility.yul\":8599:8605   */\n      dup2\n        /* \"#utility.yul\":8591:8597   */\n      dup5\n        /* \"#utility.yul\":8585:8589   */\n      dup5\n        /* \"#utility.yul\":8541:8606   */\n      tag_66\n      jump\t// in\n    tag_172:\n        /* \"#utility.yul\":8476:8612   */\n      pop\n        /* \"#utility.yul\":8423:8612   */\n      pop\n      pop\n      jump\t// out\n        /* \"#utility.yul\":8618:8804   */\n    tag_69:\n        /* \"#utility.yul\":8678:8798   */\n    tag_174:\n        /* \"#utility.yul\":8695:8698   */\n      dup2\n        /* \"#utility.yul\":8688:8693   */\n      dup2\n        /* \"#utility.yul\":8685:8699   */\n      lt\n        /* \"#utility.yul\":8678:8798   */\n      iszero\n      tag_176\n      jumpi\n        /* \"#utility.yul\":8749:8788   */\n      tag_177\n        /* \"#utility.yul\":8786:8787   */\n      0x00\n        /* \"#utility.yul\":8779:8784   */\n      dup3\n        /* \"#utility.yul\":8749:8788   */\n      tag_68\n      jump\t// in\n    tag_177:\n        /* \"#utility.yul\":8722:8723   */\n      0x01\n        /* \"#utility.yul\":8715:8720   */\n      dup2\n        /* \"#utility.yul\":8711:8724   */\n      add\n        /* \"#utility.yul\":8702:8724   */\n      swap1\n      pop\n        /* \"#utility.yul\":8678:8798   */\n      jump(tag_174)\n    tag_176:\n        /* \"#utility.yul\":8618:8804   */\n      pop\n      pop\n      jump\t// out\n        /* \"#utility.yul\":8810:9353   */\n    tag_70:\n        /* \"#utility.yul\":8911:8913   */\n      0x1f\n        /* \"#utility.yul\":8906:8909   */\n      dup3\n        /* \"#utility.yul\":8903:8914   */\n      gt\n        /* \"#utility.yul\":8900:9346   */\n      iszero\n      tag_179\n      jumpi\n        /* \"#utility.yul\":8945:8983   */\n      tag_180\n        /* \"#utility.yul\":8977:8982   */\n      dup2\n        /* \"#utility.yul\":8945:8983   */\n      tag_59\n      jump\t// in\n    tag_180:\n        /* \"#utility.yul\":9029:9058   */\n      tag_181\n        /* \"#utility.yul\":9047:9057   */\n      dup5\n        /* \"#utility.yul\":9029:9058   */\n      tag_60\n      jump\t// in\n    tag_181:\n        /* \"#utility.yul\":9019:9027   */\n      dup2\n        /* \"#utility.yul\":9015:9059   */\n      add\n        /* \"#utility.yul\":9212:9214   */\n      0x20\n        /* \"#utility.yul\":9200:9210   */\n      dup6\n        /* \"#utility.yul\":9197:9215   */\n      lt\n        /* \"#utility.yul\":9194:9243   */\n      iszero\n      tag_182\n      jumpi\n        /* \"#utility.yul\":9233:9241   */\n      dup2\n        /* \"#utility.yul\":9218:9241   */\n      swap1\n      pop\n        /* \"#utility.yul\":9194:9243   */\n    tag_182:\n        /* \"#utility.yul\":9256:9336   */\n      tag_183\n        /* \"#utility.yul\":9312:9334   */\n      tag_184\n        /* \"#utility.yul\":9330:9333   */\n      dup6\n        /* \"#utility.yul\":9312:9334   */\n      tag_60\n      jump\t// in\n    tag_184:\n        /* \"#utility.yul\":9302:9310   */\n      dup4\n        /* \"#utility.yul\":9298:9335   */\n      add\n        /* \"#utility.yul\":9285:9296   */\n      dup3\n        /* \"#utility.yul\":9256:9336   */\n      tag_69\n      jump\t// in\n    tag_183:\n        /* \"#utility.yul\":8915:9346   */\n      pop\n      pop\n        /* \"#utility.yul\":8900:9346   */\n    tag_179:\n        /* \"#utility.yul\":8810:9353   */\n      pop\n      pop\n      pop\n      jump\t// out\n        /* \"#utility.yul\":9359:9476   */\n    tag_71:\n        /* \"#utility.yul\":9413:9421   */\n      0x00\n        /* \"#utility.yul\":9463:9468   */\n      dup3\n        /* \"#utility.yul\":9457:9461   */\n      dup3\n        /* \"#utility.yul\":9453:9469   */\n      shr\n        /* \"#utility.yul\":9432:9469   */\n      swap1\n      pop\n        /* \"#utility.yul\":9359:9476   */\n      swap3\n      swap2\n      pop\n      pop\n      jump\t// out\n        /* \"#utility.yul\":9482:9651   */\n    tag_72:\n        /* \"#utility.yul\":9526:9532   */\n      0x00\n        /* \"#utility.yul\":9559:9610   */\n      tag_187\n        /* \"#utility.yul\":9607:9608   */\n      0x00\n        /* \"#utility.yul\":9603:9609   */\n      not\n        /* \"#utility.yul\":9595:9600   */\n      dup5\n        /* \"#utility.yul\":9592:9593   */\n      0x08\n        /* \"#utility.yul\":9588:9601   */\n      mul\n        /* \"#utility.yul\":9559:9610   */\n      tag_71\n      jump\t// in\n    tag_187:\n        /* \"#utility.yul\":9555:9611   */\n      not\n        /* \"#utility.yul\":9640:9644   */\n      dup1\n        /* \"#utility.yul\":9634:9638   */\n      dup4\n        /* \"#utility.yul\":9630:9645   */\n      and\n        /* \"#utility.yul\":9620:9645   */\n      swap2\n      pop\n        /* \"#utility.yul\":9533:9651   */\n      pop\n        /* \"#utility.yul\":9482:9651   */\n      swap3\n      swap2\n      pop\n      pop\n      jump\t// out\n        /* \"#utility.yul\":9656:9951   */\n    tag_73:\n        /* \"#utility.yul\":9732:9736   */\n      0x00\n        /* \"#utility.yul\":9878:9907   */\n      tag_189\n        /* \"#utility.yul\":9903:9906   */\n      dup4\n        /* \"#utility.yul\":9897:9901   */\n      dup4\n        /* \"#utility.yul\":9878:9907   */\n      tag_72\n      jump\t// in\n    tag_189:\n        /* \"#utility.yul\":9870:9907   */\n      swap2\n      pop\n        /* \"#utility.yul\":9940:9943   */\n      dup3\n        /* \"#utility.yul\":9937:9938   */\n      0x02\n        /* \"#utility.yul\":9933:9944   */\n      mul\n        /* \"#utility.yul\":9927:9931   */\n      dup3\n        /* \"#utility.yul\":9924:9945   */\n      or\n        /* \"#utility.yul\":9916:9945   */\n      swap1\n      pop\n        /* \"#utility.yul\":9656:9951   */\n      swap3\n      swap2\n      pop\n      pop\n      jump\t// out\n        /* \"#utility.yul\":9956:11351   */\n    tag_31:\n        /* \"#utility.yul\":10073:10110   */\n      tag_191\n        /* \"#utility.yul\":10106:10109   */\n      dup3\n        /* \"#utility.yul\":10073:10110   */\n      tag_39\n      jump\t// in\n    tag_191:\n        /* \"#utility.yul\":10175:10193   */\n      0xffffffffffffffff\n        /* \"#utility.yul\":10167:10173   */\n      dup2\n        /* \"#utility.yul\":10164:10194   */\n      gt\n        /* \"#utility.yul\":10161:10217   */\n      iszero\n      tag_192\n      jumpi\n        /* \"#utility.yul\":10197:10215   */\n      tag_193\n      tag_49\n      jump\t// in\n    tag_193:\n        /* \"#utility.yul\":10161:10217   */\n    tag_192:\n        /* \"#utility.yul\":10241:10279   */\n      tag_194\n        /* \"#utility.yul\":10273:10277   */\n      dup3\n        /* \"#utility.yul\":10267:10278   */\n      sload\n        /* \"#utility.yul\":10241:10279   */\n      tag_18\n      jump\t// in\n    tag_194:\n        /* \"#utility.yul\":10326:10393   */\n      tag_195\n        /* \"#utility.yul\":10386:10392   */\n      dup3\n        /* \"#utility.yul\":10378:10384   */\n      dup3\n        /* \"#utility.yul\":10372:10376   */\n      dup6\n        /* \"#utility.yul\":10326:10393   */\n      tag_70\n      jump\t// in\n    tag_195:\n        /* \"#utility.yul\":10420:10421   */\n      0x00\n        /* \"#utility.yul\":10444:10448   */\n      0x20\n        /* \"#utility.yul\":10431:10448   */\n      swap1\n      pop\n        /* \"#utility.yul\":10476:10478   */\n      0x1f\n        /* \"#utility.yul\":10468:10474   */\n      dup4\n        /* \"#utility.yul\":10465:10479   */\n      gt\n        /* \"#utility.yul\":10493:10494   */\n      0x01\n        /* \"#utility.yul\":10488:11106   */\n      dup2\n      eq\n      tag_197\n      jumpi\n        /* \"#utility.yul\":11150:11151   */\n      0x00\n        /* \"#utility.yul\":11167:11173   */\n      dup5\n        /* \"#utility.yul\":11164:11241   */\n      iszero\n      tag_198\n      jumpi\n        /* \"#utility.yul\":11216:11225   */\n      dup3\n        /* \"#utility.yul\":11211:11214   */\n      dup8\n        /* \"#utility.yul\":11207:11226   */\n      add\n        /* \"#utility.yul\":11201:11227   */\n      mload\n        /* \"#utility.yul\":11192:11227   */\n      swap1\n      pop\n        /* \"#utility.yul\":11164:11241   */\n    tag_198:\n        /* \"#utility.yul\":11267:11334   */\n      tag_199\n        /* \"#utility.yul\":11327:11333   */\n      dup6\n        /* \"#utility.yul\":11320:11325   */\n      dup3\n        /* \"#utility.yul\":11267:11334   */\n      tag_73\n      jump\t// in\n    tag_199:\n        /* \"#utility.yul\":11261:11265   */\n      dup7\n        /* \"#utility.yul\":11254:11335   */\n      sstore\n        /* \"#utility.yul\":11123:11345   */\n      pop\n        /* \"#utility.yul\":10458:11345   */\n      jump(tag_196)\n        /* \"#utility.yul\":10488:11106   */\n    tag_197:\n        /* \"#utility.yul\":10540:10544   */\n      0x1f\n        /* \"#utility.yul\":10536:10545   */\n      not\n        /* \"#utility.yul\":10528:10534   */\n      dup5\n        /* \"#utility.yul\":10524:10546   */\n      and\n        /* \"#utility.yul\":10574:10611   */\n      tag_200\n        /* \"#utility.yul\":10606:10610   */\n      dup7\n        /* \"#utility.yul\":10574:10611   */\n      tag_59\n      jump\t// in\n    tag_200:\n        /* \"#utility.yul\":10633:10634   */\n      0x00\n        /* \"#utility.yul\":10647:10855   */\n    tag_201:\n        /* \"#utility.yul\":10661:10668   */\n      dup3\n        /* \"#utility.yul\":10658:10659   */\n      dup2\n        /* \"#utility.yul\":10655:10669   */\n      lt\n        /* \"#utility.yul\":10647:10855   */\n      iszero\n      tag_203\n      jumpi\n        /* \"#utility.yul\":10740:10749   */\n      dup5\n        /* \"#utility.yul\":10735:10738   */\n      dup10\n        /* \"#utility.yul\":10731:10750   */\n      add\n        /* \"#utility.yul\":10725:10751   */\n      mload\n        /* \"#utility.yul\":10717:10723   */\n      dup3\n        /* \"#utility.yul\":10710:10752   */\n      sstore\n        /* \"#utility.yul\":10791:10792   */\n      0x01\n        /* \"#utility.yul\":10783:10789   */\n      dup3\n        /* \"#utility.yul\":10779:10793   */\n      add\n        /* \"#utility.yul\":10769:10793   */\n      swap2\n      pop\n        /* \"#utility.yul\":10838:10840   */\n      0x20\n        /* \"#utility.yul\":10827:10836   */\n      dup6\n        /* \"#utility.yul\":10823:10841   */\n      add\n        /* \"#utility.yul\":10810:10841   */\n      swap5\n      pop\n        /* \"#utility.yul\":10684:10688   */\n      0x20\n        /* \"#utility.yul\":10681:10682   */\n      dup2\n        /* \"#utility.yul\":10677:10689   */\n      add\n        /* \"#utility.yul\":10672:10689   */\n      swap1\n      pop\n        /* \"#utility.yul\":10647:10855   */\n      jump(tag_201)\n    tag_203:\n        /* \"#utility.yul\":10883:10889   */\n      dup7\n        /* \"#utility.yul\":10874:10881   */\n      dup4\n        /* \"#utility.yul\":10871:10890   */\n      lt\n        /* \"#utility.yul\":10868:11047   */\n      iszero\n      tag_204\n      jumpi\n        /* \"#utility.yul\":10941:10950   */\n      dup5\n        /* \"#utility.yul\":10936:10939   */\n      dup10\n        /* \"#utility.yul\":10932:10951   */\n      add\n        /* \"#utility.yul\":10926:10952   */\n      mload\n        /* \"#utility.yul\":10984:11032   */\n      tag_205\n        /* \"#utility.yul\":11026:11030   */\n      0x1f\n        /* \"#utility.yul\":11018:11024   */\n      dup10\n        /* \"#utility.yul\":11014:11031   */\n      and\n        /* \"#utility.yul\":11003:11012   */\n      dup3\n        /* \"#utility.yul\":10984:11032   */\n      tag_72\n      jump\t// in\n    tag_205:\n        /* \"#utility.yul\":10976:10982   */\n      dup4\n        /* \"#utility.yul\":10969:11033   */\n      sstore\n        /* \"#utility.yul\":10891:11047   */\n      pop\n        /* \"#utility.yul\":10868:11047   */\n    tag_204:\n        /* \"#utility.yul\":11093:11094   */\n      0x01\n        /* \"#utility.yul\":11089:11090   */\n      0x02\n        /* \"#utility.yul\":11081:11087   */\n      dup9\n        /* \"#utility.yul\":11077:11091   */\n      mul\n        /* \"#utility.yul\":11073:11095   */\n      add\n        /* \"#utility.yul\":11067:11071   */\n      dup9\n        /* \"#utility.yul\":11060:11096   */\n      sstore\n        /* \"#utility.yul\":10495:11106   */\n      pop\n      pop\n      pop\n        /* \"#utility.yul\":10458:11345   */\n    tag_196:\n      pop\n        /* \"#utility.yul\":10048:11351   */\n      pop\n      pop\n      pop\n        /* \"#utility.yul\":9956:11351   */\n      pop\n      pop\n      jump\t// out\n\n    auxdata: 0xa264697066735822122083d975b6f6523cc056e164ee445c15bdd08b647b8cc6c3e063b29615984d9ffa64736f6c634300081a0033\n}\n",
				"bytecode": {
					"linkReferences": {},
					"object": "6080604052348015600e575f80fd5b506108c88061001c5f395ff3fe608060405234801561000f575f80fd5b5060043610610034575f3560e01c80639e77c8d614610038578063e522ff571461006b575b5f80fd5b610052600480360381019061004d91906102c2565b610087565b6040516100629493929190610386565b60405180910390f35b6100856004803603810190610080919061052d565b6101d9565b005b5f8181548110610095575f80fd5b905f5260205f2090600402015f91509050805f0180546100b4906105f6565b80601f01602080910402602001604051908101604052809291908181526020018280546100e0906105f6565b801561012b5780601f106101025761010080835404028352916020019161012b565b820191905f5260205f20905b81548152906001019060200180831161010e57829003601f168201915b505050505090806001018054610140906105f6565b80601f016020809104026020016040519081016040528092919081815260200182805461016c906105f6565b80156101b75780601f1061018e576101008083540402835291602001916101b7565b820191905f5260205f20905b81548152906001019060200180831161019a57829003601f168201915b505050505090806002015490806003015f9054906101000a900460ff16905084565b5f6040518060800160405280868152602001858152602001848152602001831515815250908060018154018082558091505060019003905f5260205f2090600402015f909190919091505f820151815f01908161023691906107c3565b50602082015181600101908161024c91906107c3565b50604082015181600201556060820151816003015f6101000a81548160ff021916908315150217905550505050505050565b5f604051905090565b5f80fd5b5f80fd5b5f819050919050565b6102a18161028f565b81146102ab575f80fd5b50565b5f813590506102bc81610298565b92915050565b5f602082840312156102d7576102d6610287565b5b5f6102e4848285016102ae565b91505092915050565b5f81519050919050565b5f82825260208201905092915050565b8281835e5f83830152505050565b5f601f19601f8301169050919050565b5f61032f826102ed565b61033981856102f7565b9350610349818560208601610307565b61035281610315565b840191505092915050565b6103668161028f565b82525050565b5f8115159050919050565b6103808161036c565b82525050565b5f6080820190508181035f83015261039e8187610325565b905081810360208301526103b28186610325565b90506103c1604083018561035d565b6103ce6060830184610377565b95945050505050565b5f80fd5b5f80fd5b7f4e487b71000000000000000000000000000000000000000000000000000000005f52604160045260245ffd5b61041582610315565b810181811067ffffffffffffffff82111715610434576104336103df565b5b80604052505050565b5f61044661027e565b9050610452828261040c565b919050565b5f67ffffffffffffffff821115610471576104706103df565b5b61047a82610315565b9050602081019050919050565b828183375f83830152505050565b5f6104a76104a284610457565b61043d565b9050828152602081018484840111156104c3576104c26103db565b5b6104ce848285610487565b509392505050565b5f82601f8301126104ea576104e96103d7565b5b81356104fa848260208601610495565b91505092915050565b61050c8161036c565b8114610516575f80fd5b50565b5f8135905061052781610503565b92915050565b5f805f806080858703121561054557610544610287565b5b5f85013567ffffffffffffffff8111156105625761056161028b565b5b61056e878288016104d6565b945050602085013567ffffffffffffffff81111561058f5761058e61028b565b5b61059b878288016104d6565b93505060406105ac878288016102ae565b92505060606105bd87828801610519565b91505092959194509250565b7f4e487b71000000000000000000000000000000000000000000000000000000005f52602260045260245ffd5b5f600282049050600182168061060d57607f821691505b6020821081036106205761061f6105c9565b5b50919050565b5f819050815f5260205f209050919050565b5f6020601f8301049050919050565b5f82821b905092915050565b5f600883026106827fffffffffffffffffffffffffffffffffffffffffffffffffffffffffffffffff82610647565b61068c8683610647565b95508019841693508086168417925050509392505050565b5f819050919050565b5f6106c76106c26106bd8461028f565b6106a4565b61028f565b9050919050565b5f819050919050565b6106e0836106ad565b6106f46106ec826106ce565b848454610653565b825550505050565b5f90565b6107086106fc565b6107138184846106d7565b505050565b5b818110156107365761072b5f82610700565b600181019050610719565b5050565b601f82111561077b5761074c81610626565b61075584610638565b81016020851015610764578190505b61077861077085610638565b830182610718565b50505b505050565b5f82821c905092915050565b5f61079b5f1984600802610780565b1980831691505092915050565b5f6107b3838361078c565b9150826002028217905092915050565b6107cc826102ed565b67ffffffffffffffff8111156107e5576107e46103df565b5b6107ef82546105f6565b6107fa82828561073a565b5f60209050601f83116001811461082b575f8415610819578287015190505b61082385826107a8565b86555061088a565b601f19841661083986610626565b5f5b828110156108605784890151825560018201915060208501945060208101905061083b565b8683101561087d5784890151610879601f89168261078c565b8355505b6001600288020188555050505b50505050505056fea264697066735822122083d975b6f6523cc056e164ee445c15bdd08b647b8cc6c3e063b29615984d9ffa64736f6c634300081a0033",
					"opcodes": "PUSH1 0x80 PUSH1 0x40 MSTORE CALLVALUE DUP1 ISZERO PUSH1 0xE JUMPI PUSH0 DUP1 REVERT JUMPDEST POP PUSH2 0x8C8 DUP1 PUSH2 0x1C PUSH0 CODECOPY PUSH0 RETURN INVALID PUSH1 0x80 PUSH1 0x40 MSTORE CALLVALUE DUP1 ISZERO PUSH2 0xF JUMPI PUSH0 DUP1 REVERT JUMPDEST POP PUSH1 0x4 CALLDATASIZE LT PUSH2 0x34 JUMPI PUSH0 CALLDATALOAD PUSH1 0xE0 SHR DUP1 PUSH4 0x9E77C8D6 EQ PUSH2 0x38 JUMPI DUP1 PUSH4 0xE522FF57 EQ PUSH2 0x6B JUMPI JUMPDEST PUSH0 DUP1 REVERT JUMPDEST PUSH2 0x52 PUSH1 0x4 DUP1 CALLDATASIZE SUB DUP2 ADD SWAP1 PUSH2 0x4D SWAP2 SWAP1 PUSH2 0x2C2 JUMP JUMPDEST PUSH2 0x87 JUMP JUMPDEST PUSH1 0x40 MLOAD PUSH2 0x62 SWAP5 SWAP4 SWAP3 SWAP2 SWAP1 PUSH2 0x386 JUMP JUMPDEST PUSH1 0x40 MLOAD DUP1 SWAP2 SUB SWAP1 RETURN JUMPDEST PUSH2 0x85 PUSH1 0x4 DUP1 CALLDATASIZE SUB DUP2 ADD SWAP1 PUSH2 0x80 SWAP2 SWAP1 PUSH2 0x52D JUMP JUMPDEST PUSH2 0x1D9 JUMP JUMPDEST STOP JUMPDEST PUSH0 DUP2 DUP2 SLOAD DUP2 LT PUSH2 0x95 JUMPI PUSH0 DUP1 REVERT JUMPDEST SWAP1 PUSH0 MSTORE PUSH1 0x20 PUSH0 KECCAK256 SWAP1 PUSH1 0x4 MUL ADD PUSH0 SWAP2 POP SWAP1 POP DUP1 PUSH0 ADD DUP1 SLOAD PUSH2 0xB4 SWAP1 PUSH2 0x5F6 JUMP JUMPDEST DUP1 PUSH1 0x1F ADD PUSH1 0x20 DUP1 SWAP2 DIV MUL PUSH1 0x20 ADD PUSH1 0x40 MLOAD SWAP1 DUP2 ADD PUSH1 0x40 MSTORE DUP1 SWAP3 SWAP2 SWAP1 DUP2 DUP2 MSTORE PUSH1 0x20 ADD DUP3 DUP1 SLOAD PUSH2 0xE0 SWAP1 PUSH2 0x5F6 JUMP JUMPDEST DUP1 ISZERO PUSH2 0x12B JUMPI DUP1 PUSH1 0x1F LT PUSH2 0x102 JUMPI PUSH2 0x100 DUP1 DUP4 SLOAD DIV MUL DUP4 MSTORE SWAP2 PUSH1 0x20 ADD SWAP2 PUSH2 0x12B JUMP JUMPDEST DUP3 ADD SWAP2 SWAP1 PUSH0 MSTORE PUSH1 0x20 PUSH0 KECCAK256 SWAP1 JUMPDEST DUP2 SLOAD DUP2 MSTORE SWAP1 PUSH1 0x1 ADD SWAP1 PUSH1 0x20 ADD DUP1 DUP4 GT PUSH2 0x10E JUMPI DUP3 SWAP1 SUB PUSH1 0x1F AND DUP3 ADD SWAP2 JUMPDEST POP POP POP POP POP SWAP1 DUP1 PUSH1 0x1 ADD DUP1 SLOAD PUSH2 0x140 SWAP1 PUSH2 0x5F6 JUMP JUMPDEST DUP1 PUSH1 0x1F ADD PUSH1 0x20 DUP1 SWAP2 DIV MUL PUSH1 0x20 ADD PUSH1 0x40 MLOAD SWAP1 DUP2 ADD PUSH1 0x40 MSTORE DUP1 SWAP3 SWAP2 SWAP1 DUP2 DUP2 MSTORE PUSH1 0x20 ADD DUP3 DUP1 SLOAD PUSH2 0x16C SWAP1 PUSH2 0x5F6 JUMP JUMPDEST DUP1 ISZERO PUSH2 0x1B7 JUMPI DUP1 PUSH1 0x1F LT PUSH2 0x18E JUMPI PUSH2 0x100 DUP1 DUP4 SLOAD DIV MUL DUP4 MSTORE SWAP2 PUSH1 0x20 ADD SWAP2 PUSH2 0x1B7 JUMP JUMPDEST DUP3 ADD SWAP2 SWAP1 PUSH0 MSTORE PUSH1 0x20 PUSH0 KECCAK256 SWAP1 JUMPDEST DUP2 SLOAD DUP2 MSTORE SWAP1 PUSH1 0x1 ADD SWAP1 PUSH1 0x20 ADD DUP1 DUP4 GT PUSH2 0x19A JUMPI DUP3 SWAP1 SUB PUSH1 0x1F AND DUP3 ADD SWAP2 JUMPDEST POP POP POP POP POP SWAP1 DUP1 PUSH1 0x2 ADD SLOAD SWAP1 DUP1 PUSH1 0x3 ADD PUSH0 SWAP1 SLOAD SWAP1 PUSH2 0x100 EXP SWAP1 DIV PUSH1 0xFF AND SWAP1 POP DUP5 JUMP JUMPDEST PUSH0 PUSH1 0x40 MLOAD DUP1 PUSH1 0x80 ADD PUSH1 0x40 MSTORE DUP1 DUP7 DUP2 MSTORE PUSH1 0x20 ADD DUP6 DUP2 MSTORE PUSH1 0x20 ADD DUP5 DUP2 MSTORE PUSH1 0x20 ADD DUP4 ISZERO ISZERO DUP2 MSTORE POP SWAP1 DUP1 PUSH1 0x1 DUP2 SLOAD ADD DUP1 DUP3 SSTORE DUP1 SWAP2 POP POP PUSH1 0x1 SWAP1 SUB SWAP1 PUSH0 MSTORE PUSH1 0x20 PUSH0 KECCAK256 SWAP1 PUSH1 0x4 MUL ADD PUSH0 SWAP1 SWAP2 SWAP1 SWAP2 SWAP1 SWAP2 POP PUSH0 DUP3 ADD MLOAD DUP2 PUSH0 ADD SWAP1 DUP2 PUSH2 0x236 SWAP2 SWAP1 PUSH2 0x7C3 JUMP JUMPDEST POP PUSH1 0x20 DUP3 ADD MLOAD DUP2 PUSH1 0x1 ADD SWAP1 DUP2 PUSH2 0x24C SWAP2 SWAP1 PUSH2 0x7C3 JUMP JUMPDEST POP PUSH1 0x40 DUP3 ADD MLOAD DUP2 PUSH1 0x2 ADD SSTORE PUSH1 0x60 DUP3 ADD MLOAD DUP2 PUSH1 0x3 ADD PUSH0 PUSH2 0x100 EXP DUP2 SLOAD DUP2 PUSH1 0xFF MUL NOT AND SWAP1 DUP4 ISZERO ISZERO MUL OR SWAP1 SSTORE POP POP POP POP POP POP POP JUMP JUMPDEST PUSH0 PUSH1 0x40 MLOAD SWAP1 POP SWAP1 JUMP JUMPDEST PUSH0 DUP1 REVERT JUMPDEST PUSH0 DUP1 REVERT JUMPDEST PUSH0 DUP2 SWAP1 POP SWAP2 SWAP1 POP JUMP JUMPDEST PUSH2 0x2A1 DUP2 PUSH2 0x28F JUMP JUMPDEST DUP2 EQ PUSH2 0x2AB JUMPI PUSH0 DUP1 REVERT JUMPDEST POP JUMP JUMPDEST PUSH0 DUP2 CALLDATALOAD SWAP1 POP PUSH2 0x2BC DUP2 PUSH2 0x298 JUMP JUMPDEST SWAP3 SWAP2 POP POP JUMP JUMPDEST PUSH0 PUSH1 0x20 DUP3 DUP5 SUB SLT ISZERO PUSH2 0x2D7 JUMPI PUSH2 0x2D6 PUSH2 0x287 JUMP JUMPDEST JUMPDEST PUSH0 PUSH2 0x2E4 DUP5 DUP3 DUP6 ADD PUSH2 0x2AE JUMP JUMPDEST SWAP2 POP POP SWAP3 SWAP2 POP POP JUMP JUMPDEST PUSH0 DUP2 MLOAD SWAP1 POP SWAP2 SWAP1 POP JUMP JUMPDEST PUSH0 DUP3 DUP3 MSTORE PUSH1 0x20 DUP3 ADD SWAP1 POP SWAP3 SWAP2 POP POP JUMP JUMPDEST DUP3 DUP2 DUP4 MCOPY PUSH0 DUP4 DUP4 ADD MSTORE POP POP POP JUMP JUMPDEST PUSH0 PUSH1 0x1F NOT PUSH1 0x1F DUP4 ADD AND SWAP1 POP SWAP2 SWAP1 POP JUMP JUMPDEST PUSH0 PUSH2 0x32F DUP3 PUSH2 0x2ED JUMP JUMPDEST PUSH2 0x339 DUP2 DUP6 PUSH2 0x2F7 JUMP JUMPDEST SWAP4 POP PUSH2 0x349 DUP2 DUP6 PUSH1 0x20 DUP7 ADD PUSH2 0x307 JUMP JUMPDEST PUSH2 0x352 DUP2 PUSH2 0x315 JUMP JUMPDEST DUP5 ADD SWAP2 POP POP SWAP3 SWAP2 POP POP JUMP JUMPDEST PUSH2 0x366 DUP2 PUSH2 0x28F JUMP JUMPDEST DUP3 MSTORE POP POP JUMP JUMPDEST PUSH0 DUP2 ISZERO ISZERO SWAP1 POP SWAP2 SWAP1 POP JUMP JUMPDEST PUSH2 0x380 DUP2 PUSH2 0x36C JUMP JUMPDEST DUP3 MSTORE POP POP JUMP JUMPDEST PUSH0 PUSH1 0x80 DUP3 ADD SWAP1 POP DUP2 DUP2 SUB PUSH0 DUP4 ADD MSTORE PUSH2 0x39E DUP2 DUP8 PUSH2 0x325 JUMP JUMPDEST SWAP1 POP DUP2 DUP2 SUB PUSH1 0x20 DUP4 ADD MSTORE PUSH2 0x3B2 DUP2 DUP7 PUSH2 0x325 JUMP JUMPDEST SWAP1 POP PUSH2 0x3C1 PUSH1 0x40 DUP4 ADD DUP6 PUSH2 0x35D JUMP JUMPDEST PUSH2 0x3CE PUSH1 0x60 DUP4 ADD DUP5 PUSH2 0x377 JUMP JUMPDEST SWAP6 SWAP5 POP POP POP POP POP JUMP JUMPDEST PUSH0 DUP1 REVERT JUMPDEST PUSH0 DUP1 REVERT JUMPDEST PUSH32 0x4E487B7100000000000000000000000000000000000000000000000000000000 PUSH0 MSTORE PUSH1 0x41 PUSH1 0x4 MSTORE PUSH1 0x24 PUSH0 REVERT JUMPDEST PUSH2 0x415 DUP3 PUSH2 0x315 JUMP JUMPDEST DUP2 ADD DUP2 DUP2 LT PUSH8 0xFFFFFFFFFFFFFFFF DUP3 GT OR ISZERO PUSH2 0x434 JUMPI PUSH2 0x433 PUSH2 0x3DF JUMP JUMPDEST JUMPDEST DUP1 PUSH1 0x40 MSTORE POP POP POP JUMP JUMPDEST PUSH0 PUSH2 0x446 PUSH2 0x27E JUMP JUMPDEST SWAP1 POP PUSH2 0x452 DUP3 DUP3 PUSH2 0x40C JUMP JUMPDEST SWAP2 SWAP1 POP JUMP JUMPDEST PUSH0 PUSH8 0xFFFFFFFFFFFFFFFF DUP3 GT ISZERO PUSH2 0x471 JUMPI PUSH2 0x470 PUSH2 0x3DF JUMP JUMPDEST JUMPDEST PUSH2 0x47A DUP3 PUSH2 0x315 JUMP JUMPDEST SWAP1 POP PUSH1 0x20 DUP2 ADD SWAP1 POP SWAP2 SWAP1 POP JUMP JUMPDEST DUP3 DUP2 DUP4 CALLDATACOPY PUSH0 DUP4 DUP4 ADD MSTORE POP POP POP JUMP JUMPDEST PUSH0 PUSH2 0x4A7 PUSH2 0x4A2 DUP5 PUSH2 0x457 JUMP JUMPDEST PUSH2 0x43D JUMP JUMPDEST SWAP1 POP DUP3 DUP2 MSTORE PUSH1 0x20 DUP2 ADD DUP5 DUP5 DUP5 ADD GT ISZERO PUSH2 0x4C3 JUMPI PUSH2 0x4C2 PUSH2 0x3DB JUMP JUMPDEST JUMPDEST PUSH2 0x4CE DUP5 DUP3 DUP6 PUSH2 0x487 JUMP JUMPDEST POP SWAP4 SWAP3 POP POP POP JUMP JUMPDEST PUSH0 DUP3 PUSH1 0x1F DUP4 ADD SLT PUSH2 0x4EA JUMPI PUSH2 0x4E9 PUSH2 0x3D7 JUMP JUMPDEST JUMPDEST DUP2 CALLDATALOAD PUSH2 0x4FA DUP5 DUP3 PUSH1 0x20 DUP7 ADD PUSH2 0x495 JUMP JUMPDEST SWAP2 POP POP SWAP3 SWAP2 POP POP JUMP JUMPDEST PUSH2 0x50C DUP2 PUSH2 0x36C JUMP JUMPDEST DUP2 EQ PUSH2 0x516 JUMPI PUSH0 DUP1 REVERT JUMPDEST POP JUMP JUMPDEST PUSH0 DUP2 CALLDATALOAD SWAP1 POP PUSH2 0x527 DUP2 PUSH2 0x503 JUMP JUMPDEST SWAP3 SWAP2 POP POP JUMP JUMPDEST PUSH0 DUP1 PUSH0 DUP1 PUSH1 0x80 DUP6 DUP8 SUB SLT ISZERO PUSH2 0x545 JUMPI PUSH2 0x544 PUSH2 0x287 JUMP JUMPDEST JUMPDEST PUSH0 DUP6 ADD CALLDATALOAD PUSH8 0xFFFFFFFFFFFFFFFF DUP2 GT ISZERO PUSH2 0x562 JUMPI PUSH2 0x561 PUSH2 0x28B JUMP JUMPDEST JUMPDEST PUSH2 0x56E DUP8 DUP3 DUP9 ADD PUSH2 0x4D6 JUMP JUMPDEST SWAP5 POP POP PUSH1 0x20 DUP6 ADD CALLDATALOAD PUSH8 0xFFFFFFFFFFFFFFFF DUP2 GT ISZERO PUSH2 0x58F JUMPI PUSH2 0x58E PUSH2 0x28B JUMP JUMPDEST JUMPDEST PUSH2 0x59B DUP8 DUP3 DUP9 ADD PUSH2 0x4D6 JUMP JUMPDEST SWAP4 POP POP PUSH1 0x40 PUSH2 0x5AC DUP8 DUP3 DUP9 ADD PUSH2 0x2AE JUMP JUMPDEST SWAP3 POP POP PUSH1 0x60 PUSH2 0x5BD DUP8 DUP3 DUP9 ADD PUSH2 0x519 JUMP JUMPDEST SWAP2 POP POP SWAP3 SWAP6 SWAP2 SWAP5 POP SWAP3 POP JUMP JUMPDEST PUSH32 0x4E487B7100000000000000000000000000000000000000000000000000000000 PUSH0 MSTORE PUSH1 0x22 PUSH1 0x4 MSTORE PUSH1 0x24 PUSH0 REVERT JUMPDEST PUSH0 PUSH1 0x2 DUP3 DIV SWAP1 POP PUSH1 0x1 DUP3 AND DUP1 PUSH2 0x60D JUMPI PUSH1 0x7F DUP3 AND SWAP2 POP JUMPDEST PUSH1 0x20 DUP3 LT DUP2 SUB PUSH2 0x620 JUMPI PUSH2 0x61F PUSH2 0x5C9 JUMP JUMPDEST JUMPDEST POP SWAP2 SWAP1 POP JUMP JUMPDEST PUSH0 DUP2 SWAP1 POP DUP2 PUSH0 MSTORE PUSH1 0x20 PUSH0 KECCAK256 SWAP1 POP SWAP2 SWAP1 POP JUMP JUMPDEST PUSH0 PUSH1 0x20 PUSH1 0x1F DUP4 ADD DIV SWAP1 POP SWAP2 SWAP1 POP JUMP JUMPDEST PUSH0 DUP3 DUP3 SHL SWAP1 POP SWAP3 SWAP2 POP POP JUMP JUMPDEST PUSH0 PUSH1 0x8 DUP4 MUL PUSH2 0x682 PUSH32 0xFFFFFFFFFFFFFFFFFFFFFFFFFFFFFFFFFFFFFFFFFFFFFFFFFFFFFFFFFFFFFFFF DUP3 PUSH2 0x647 JUMP JUMPDEST PUSH2 0x68C DUP7 DUP4 PUSH2 0x647 JUMP JUMPDEST SWAP6 POP DUP1 NOT DUP5 AND SWAP4 POP DUP1 DUP7 AND DUP5 OR SWAP3 POP POP POP SWAP4 SWAP3 POP POP POP JUMP JUMPDEST PUSH0 DUP2 SWAP1 POP SWAP2 SWAP1 POP JUMP JUMPDEST PUSH0 PUSH2 0x6C7 PUSH2 0x6C2 PUSH2 0x6BD DUP5 PUSH2 0x28F JUMP JUMPDEST PUSH2 0x6A4 JUMP JUMPDEST PUSH2 0x28F JUMP JUMPDEST SWAP1 POP SWAP2 SWAP1 POP JUMP JUMPDEST PUSH0 DUP2 SWAP1 POP SWAP2 SWAP1 POP JUMP JUMPDEST PUSH2 0x6E0 DUP4 PUSH2 0x6AD JUMP JUMPDEST PUSH2 0x6F4 PUSH2 0x6EC DUP3 PUSH2 0x6CE JUMP JUMPDEST DUP5 DUP5 SLOAD PUSH2 0x653 JUMP JUMPDEST DUP3 SSTORE POP POP POP POP JUMP JUMPDEST PUSH0 SWAP1 JUMP JUMPDEST PUSH2 0x708 PUSH2 0x6FC JUMP JUMPDEST PUSH2 0x713 DUP2 DUP5 DUP5 PUSH2 0x6D7 JUMP JUMPDEST POP POP POP JUMP JUMPDEST JUMPDEST DUP2 DUP2 LT ISZERO PUSH2 0x736 JUMPI PUSH2 0x72B PUSH0 DUP3 PUSH2 0x700 JUMP JUMPDEST PUSH1 0x1 DUP2 ADD SWAP1 POP PUSH2 0x719 JUMP JUMPDEST POP POP JUMP JUMPDEST PUSH1 0x1F DUP3 GT ISZERO PUSH2 0x77B JUMPI PUSH2 0x74C DUP2 PUSH2 0x626 JUMP JUMPDEST PUSH2 0x755 DUP5 PUSH2 0x638 JUMP JUMPDEST DUP2 ADD PUSH1 0x20 DUP6 LT ISZERO PUSH2 0x764 JUMPI DUP2 SWAP1 POP JUMPDEST PUSH2 0x778 PUSH2 0x770 DUP6 PUSH2 0x638 JUMP JUMPDEST DUP4 ADD DUP3 PUSH2 0x718 JUMP JUMPDEST POP POP JUMPDEST POP POP POP JUMP JUMPDEST PUSH0 DUP3 DUP3 SHR SWAP1 POP SWAP3 SWAP2 POP POP JUMP JUMPDEST PUSH0 PUSH2 0x79B PUSH0 NOT DUP5 PUSH1 0x8 MUL PUSH2 0x780 JUMP JUMPDEST NOT DUP1 DUP4 AND SWAP2 POP POP SWAP3 SWAP2 POP POP JUMP JUMPDEST PUSH0 PUSH2 0x7B3 DUP4 DUP4 PUSH2 0x78C JUMP JUMPDEST SWAP2 POP DUP3 PUSH1 0x2 MUL DUP3 OR SWAP1 POP SWAP3 SWAP2 POP POP JUMP JUMPDEST PUSH2 0x7CC DUP3 PUSH2 0x2ED JUMP JUMPDEST PUSH8 0xFFFFFFFFFFFFFFFF DUP2 GT ISZERO PUSH2 0x7E5 JUMPI PUSH2 0x7E4 PUSH2 0x3DF JUMP JUMPDEST JUMPDEST PUSH2 0x7EF DUP3 SLOAD PUSH2 0x5F6 JUMP JUMPDEST PUSH2 0x7FA DUP3 DUP3 DUP6 PUSH2 0x73A JUMP JUMPDEST PUSH0 PUSH1 0x20 SWAP1 POP PUSH1 0x1F DUP4 GT PUSH1 0x1 DUP2 EQ PUSH2 0x82B JUMPI PUSH0 DUP5 ISZERO PUSH2 0x819 JUMPI DUP3 DUP8 ADD MLOAD SWAP1 POP JUMPDEST PUSH2 0x823 DUP6 DUP3 PUSH2 0x7A8 JUMP JUMPDEST DUP7 SSTORE POP PUSH2 0x88A JUMP JUMPDEST PUSH1 0x1F NOT DUP5 AND PUSH2 0x839 DUP7 PUSH2 0x626 JUMP JUMPDEST PUSH0 JUMPDEST DUP3 DUP2 LT ISZERO PUSH2 0x860 JUMPI DUP5 DUP10 ADD MLOAD DUP3 SSTORE PUSH1 0x1 DUP3 ADD SWAP2 POP PUSH1 0x20 DUP6 ADD SWAP5 POP PUSH1 0x20 DUP2 ADD SWAP1 POP PUSH2 0x83B JUMP JUMPDEST DUP7 DUP4 LT ISZERO PUSH2 0x87D JUMPI DUP5 DUP10 ADD MLOAD PUSH2 0x879 PUSH1 0x1F DUP10 AND DUP3 PUSH2 0x78C JUMP JUMPDEST DUP4 SSTORE POP JUMPDEST PUSH1 0x1 PUSH1 0x2 DUP9 MUL ADD DUP9 SSTORE POP POP POP JUMPDEST POP POP POP POP POP POP JUMP INVALID LOG2 PUSH5 0x6970667358 0x22 SLT KECCAK256 DUP4 0xD9 PUSH22 0xB6F6523CC056E164EE445C15BDD08B647B8CC6C3E063 0xB2 SWAP7 ISZERO SWAP9 0x4D SWAP16 STATICCALL PUSH5 0x736F6C6343 STOP ADDMOD BYTE STOP CALLER "
				},
				"gasEstimates": {
					"creation": {
						"codeDepositCost": "449600",
						"executionCost": "484",
						"totalCost": "450084"
					},
					"external": {
						"PlayersData(uint256)": "infinite",
						"addPlayer(string,string,uint256,bool)": "infinite"
					}
				},
				"methodIdentifiers": {
					"PlayersData(uint256)": "9e77c8d6",
					"addPlayer(string,string,uint256,bool)": "e522ff57"
				}
			},
			"storageLayout": {
				"storage": [
					{
						"astId": 5,
						"contract": "contracts/struct.sol:CricketTeam",
						"label": "PlayersData",
						"offset": 0,
						"slot": "0",
						"type": "t_array(t_struct(Player)14_storage)dyn_storage"
					}
				],
				"types": {
					"t_array(t_struct(Player)14_storage)dyn_storage": {
						"base": "t_struct(Player)14_storage",
						"encoding": "dynamic_array",
						"label": "struct CricketTeam.Player[]",
						"numberOfBytes": "32"
					},
					"t_bool": {
						"encoding": "inplace",
						"label": "bool",
						"numberOfBytes": "1"
					},
					"t_string_storage": {
						"encoding": "bytes",
						"label": "string",
						"numberOfBytes": "32"
					},
					"t_struct(Player)14_storage": {
						"encoding": "inplace",
						"label": "struct CricketTeam.Player",
						"members": [
							{
								"astId": 7,
								"contract": "contracts/struct.sol:CricketTeam",
								"label": "firstName",
								"offset": 0,
								"slot": "0",
								"type": "t_string_storage"
							},
							{
								"astId": 9,
								"contract": "contracts/struct.sol:CricketTeam",
								"label": "lastName",
								"offset": 0,
								"slot": "1",
								"type": "t_string_storage"
							},
							{
								"astId": 11,
								"contract": "contracts/struct.sol:CricketTeam",
								"label": "age",
								"offset": 0,
								"slot": "2",
								"type": "t_uint256"
							},
							{
								"astId": 13,
								"contract": "contracts/struct.sol:CricketTeam",
								"label": "isSmoker",
								"offset": 0,
								"slot": "3",
								"type": "t_bool"
							}
						],
						"numberOfBytes": "128"
					},
					"t_uint256": {
						"encoding": "inplace",
						"label": "uint256",
						"numberOfBytes": "32"
					}
				}
			},
			"userdoc": {
				"kind": "user",
				"methods": {},
				"version": 1
			}
		}
	}
}